{
  "_format": "hh-sol-artifact-1",
  "contractName": "Lazy",
  "sourceName": "contracts/Lazy.sol",
  "abi": [
    {
      "inputs": [
        {
          "internalType": "address payable",
          "name": "minter",
          "type": "address"
        }
      ],
      "stateMutability": "nonpayable",
      "type": "constructor"
    },
    {
      "anonymous": false,
      "inputs": [
        {
          "indexed": true,
          "internalType": "address",
          "name": "owner",
          "type": "address"
        },
        {
          "indexed": true,
          "internalType": "address",
          "name": "approved",
          "type": "address"
        },
        {
          "indexed": true,
          "internalType": "uint256",
          "name": "tokenId",
          "type": "uint256"
        }
      ],
      "name": "Approval",
      "type": "event"
    },
    {
      "anonymous": false,
      "inputs": [
        {
          "indexed": true,
          "internalType": "address",
          "name": "owner",
          "type": "address"
        },
        {
          "indexed": true,
          "internalType": "address",
          "name": "operator",
          "type": "address"
        },
        {
          "indexed": false,
          "internalType": "bool",
          "name": "approved",
          "type": "bool"
        }
      ],
      "name": "ApprovalForAll",
      "type": "event"
    },
    {
      "anonymous": false,
      "inputs": [
        {
          "indexed": true,
          "internalType": "address",
          "name": "previousOwner",
          "type": "address"
        },
        {
          "indexed": true,
          "internalType": "address",
          "name": "newOwner",
          "type": "address"
        }
      ],
      "name": "OwnershipTransferred",
      "type": "event"
    },
    {
      "anonymous": false,
      "inputs": [
        {
          "indexed": true,
          "internalType": "bytes32",
          "name": "role",
          "type": "bytes32"
        },
        {
          "indexed": true,
          "internalType": "bytes32",
          "name": "previousAdminRole",
          "type": "bytes32"
        },
        {
          "indexed": true,
          "internalType": "bytes32",
          "name": "newAdminRole",
          "type": "bytes32"
        }
      ],
      "name": "RoleAdminChanged",
      "type": "event"
    },
    {
      "anonymous": false,
      "inputs": [
        {
          "indexed": true,
          "internalType": "bytes32",
          "name": "role",
          "type": "bytes32"
        },
        {
          "indexed": true,
          "internalType": "address",
          "name": "account",
          "type": "address"
        },
        {
          "indexed": true,
          "internalType": "address",
          "name": "sender",
          "type": "address"
        }
      ],
      "name": "RoleGranted",
      "type": "event"
    },
    {
      "anonymous": false,
      "inputs": [
        {
          "indexed": true,
          "internalType": "bytes32",
          "name": "role",
          "type": "bytes32"
        },
        {
          "indexed": true,
          "internalType": "address",
          "name": "account",
          "type": "address"
        },
        {
          "indexed": true,
          "internalType": "address",
          "name": "sender",
          "type": "address"
        }
      ],
      "name": "RoleRevoked",
      "type": "event"
    },
    {
      "anonymous": false,
      "inputs": [
        {
          "indexed": true,
          "internalType": "address",
          "name": "from",
          "type": "address"
        },
        {
          "indexed": true,
          "internalType": "address",
          "name": "to",
          "type": "address"
        },
        {
          "indexed": true,
          "internalType": "uint256",
          "name": "tokenId",
          "type": "uint256"
        }
      ],
      "name": "Transfer",
      "type": "event"
    },
    {
      "inputs": [],
      "name": "DEFAULT_ADMIN_ROLE",
      "outputs": [
        {
          "internalType": "bytes32",
          "name": "",
          "type": "bytes32"
        }
      ],
      "stateMutability": "view",
      "type": "function"
    },
    {
      "inputs": [],
      "name": "MINTER_ROLE",
      "outputs": [
        {
          "internalType": "bytes32",
          "name": "",
          "type": "bytes32"
        }
      ],
      "stateMutability": "view",
      "type": "function"
    },
    {
      "inputs": [
        {
          "internalType": "string",
          "name": "message",
          "type": "string"
        },
        {
          "internalType": "bytes",
          "name": "sign",
          "type": "bytes"
        }
      ],
      "name": "_verify",
      "outputs": [
        {
          "internalType": "address",
          "name": "",
          "type": "address"
        }
      ],
      "stateMutability": "pure",
      "type": "function"
    },
    {
      "inputs": [
        {
          "internalType": "address",
          "name": "user",
          "type": "address"
        }
      ],
      "name": "addWhitelistuser",
      "outputs": [],
      "stateMutability": "nonpayable",
      "type": "function"
    },
    {
      "inputs": [
        {
          "internalType": "address",
          "name": "to",
          "type": "address"
        },
        {
          "internalType": "uint256",
          "name": "tokenId",
          "type": "uint256"
        }
      ],
      "name": "approve",
      "outputs": [],
      "stateMutability": "nonpayable",
      "type": "function"
    },
    {
      "inputs": [
        {
          "internalType": "address",
          "name": "owner",
          "type": "address"
        }
      ],
      "name": "balanceOf",
      "outputs": [
        {
          "internalType": "uint256",
          "name": "",
          "type": "uint256"
        }
      ],
      "stateMutability": "view",
      "type": "function"
    },
    {
      "inputs": [
        {
          "internalType": "uint256",
          "name": "tokenId",
          "type": "uint256"
        }
      ],
      "name": "getApproved",
      "outputs": [
        {
          "internalType": "address",
          "name": "",
          "type": "address"
        }
      ],
      "stateMutability": "view",
      "type": "function"
    },
    {
      "inputs": [
        {
          "internalType": "bytes32",
          "name": "role",
          "type": "bytes32"
        }
      ],
      "name": "getRoleAdmin",
      "outputs": [
        {
          "internalType": "bytes32",
          "name": "",
          "type": "bytes32"
        }
      ],
      "stateMutability": "view",
      "type": "function"
    },
    {
      "inputs": [
        {
          "internalType": "bytes32",
          "name": "role",
          "type": "bytes32"
        },
        {
          "internalType": "address",
          "name": "account",
          "type": "address"
        }
      ],
      "name": "grantRole",
      "outputs": [],
      "stateMutability": "nonpayable",
      "type": "function"
    },
    {
      "inputs": [
        {
          "internalType": "bytes32",
          "name": "role",
          "type": "bytes32"
        },
        {
          "internalType": "address",
          "name": "account",
          "type": "address"
        }
      ],
      "name": "hasRole",
      "outputs": [
        {
          "internalType": "bool",
          "name": "",
          "type": "bool"
        }
      ],
      "stateMutability": "view",
      "type": "function"
    },
    {
      "inputs": [
        {
          "internalType": "address",
          "name": "owner",
          "type": "address"
        },
        {
          "internalType": "address",
          "name": "operator",
          "type": "address"
        }
      ],
      "name": "isApprovedForAll",
      "outputs": [
        {
          "internalType": "bool",
          "name": "",
          "type": "bool"
        }
      ],
      "stateMutability": "view",
      "type": "function"
    },
    {
      "inputs": [
        {
          "internalType": "uint256",
          "name": "tokenId",
          "type": "uint256"
        },
        {
          "internalType": "uint256",
          "name": "index",
          "type": "uint256"
        }
      ],
      "name": "mint",
      "outputs": [],
      "stateMutability": "nonpayable",
      "type": "function"
    },
    {
      "inputs": [
        {
          "internalType": "string",
          "name": "message",
          "type": "string"
        },
        {
          "internalType": "bytes",
          "name": "sign",
          "type": "bytes"
        }
      ],
      "name": "mintToken",
      "outputs": [],
      "stateMutability": "payable",
      "type": "function"
    },
    {
      "inputs": [],
      "name": "name",
      "outputs": [
        {
          "internalType": "string",
          "name": "",
          "type": "string"
        }
      ],
      "stateMutability": "view",
      "type": "function"
    },
    {
      "inputs": [],
      "name": "owner",
      "outputs": [
        {
          "internalType": "address",
          "name": "",
          "type": "address"
        }
      ],
      "stateMutability": "view",
      "type": "function"
    },
    {
      "inputs": [
        {
          "internalType": "uint256",
          "name": "tokenId",
          "type": "uint256"
        }
      ],
      "name": "ownerOf",
      "outputs": [
        {
          "internalType": "address",
          "name": "",
          "type": "address"
        }
      ],
      "stateMutability": "view",
      "type": "function"
    },
    {
      "inputs": [
        {
          "internalType": "address",
          "name": "user",
          "type": "address"
        }
      ],
      "name": "removeWhitelistuser",
      "outputs": [],
      "stateMutability": "nonpayable",
      "type": "function"
    },
    {
      "inputs": [],
      "name": "renounceOwnership",
      "outputs": [],
      "stateMutability": "nonpayable",
      "type": "function"
    },
    {
      "inputs": [
        {
          "internalType": "bytes32",
          "name": "role",
          "type": "bytes32"
        },
        {
          "internalType": "address",
          "name": "account",
          "type": "address"
        }
      ],
      "name": "renounceRole",
      "outputs": [],
      "stateMutability": "nonpayable",
      "type": "function"
    },
    {
      "inputs": [
        {
          "internalType": "bytes32",
          "name": "role",
          "type": "bytes32"
        },
        {
          "internalType": "address",
          "name": "account",
          "type": "address"
        }
      ],
      "name": "revokeRole",
      "outputs": [],
      "stateMutability": "nonpayable",
      "type": "function"
    },
    {
      "inputs": [
        {
          "internalType": "address",
          "name": "from",
          "type": "address"
        },
        {
          "internalType": "address",
          "name": "to",
          "type": "address"
        },
        {
          "internalType": "uint256",
          "name": "tokenId",
          "type": "uint256"
        }
      ],
      "name": "safeTransferFrom",
      "outputs": [],
      "stateMutability": "nonpayable",
      "type": "function"
    },
    {
      "inputs": [
        {
          "internalType": "address",
          "name": "from",
          "type": "address"
        },
        {
          "internalType": "address",
          "name": "to",
          "type": "address"
        },
        {
          "internalType": "uint256",
          "name": "tokenId",
          "type": "uint256"
        },
        {
          "internalType": "bytes",
          "name": "_data",
          "type": "bytes"
        }
      ],
      "name": "safeTransferFrom",
      "outputs": [],
      "stateMutability": "nonpayable",
      "type": "function"
    },
    {
      "inputs": [
        {
          "internalType": "address",
          "name": "operator",
          "type": "address"
        },
        {
          "internalType": "bool",
          "name": "approved",
          "type": "bool"
        }
      ],
      "name": "setApprovalForAll",
      "outputs": [],
      "stateMutability": "nonpayable",
      "type": "function"
    },
    {
      "inputs": [
        {
          "internalType": "bytes4",
          "name": "interfaceId",
          "type": "bytes4"
        }
      ],
      "name": "supportsInterface",
      "outputs": [
        {
          "internalType": "bool",
          "name": "",
          "type": "bool"
        }
      ],
      "stateMutability": "view",
      "type": "function"
    },
    {
      "inputs": [],
      "name": "symbol",
      "outputs": [
        {
          "internalType": "string",
          "name": "",
          "type": "string"
        }
      ],
      "stateMutability": "view",
      "type": "function"
    },
    {
      "inputs": [
        {
          "internalType": "uint256",
          "name": "index",
          "type": "uint256"
        }
      ],
      "name": "tokenByIndex",
      "outputs": [
        {
          "internalType": "uint256",
          "name": "",
          "type": "uint256"
        }
      ],
      "stateMutability": "view",
      "type": "function"
    },
    {
      "inputs": [
        {
          "internalType": "address",
          "name": "owner",
          "type": "address"
        },
        {
          "internalType": "uint256",
          "name": "index",
          "type": "uint256"
        }
      ],
      "name": "tokenOfOwnerByIndex",
      "outputs": [
        {
          "internalType": "uint256",
          "name": "",
          "type": "uint256"
        }
      ],
      "stateMutability": "view",
      "type": "function"
    },
    {
      "inputs": [
        {
          "internalType": "uint256",
          "name": "tokenId",
          "type": "uint256"
        }
      ],
      "name": "tokenURI",
      "outputs": [
        {
          "internalType": "string",
          "name": "",
          "type": "string"
        }
      ],
      "stateMutability": "view",
      "type": "function"
    },
    {
      "inputs": [],
      "name": "totalSupply",
      "outputs": [
        {
          "internalType": "uint256",
          "name": "",
          "type": "uint256"
        }
      ],
      "stateMutability": "view",
      "type": "function"
    },
    {
      "inputs": [
        {
          "internalType": "address",
          "name": "from",
          "type": "address"
        },
        {
          "internalType": "address",
          "name": "to",
          "type": "address"
        },
        {
          "internalType": "uint256",
          "name": "tokenId",
          "type": "uint256"
        }
      ],
      "name": "transferFrom",
      "outputs": [],
      "stateMutability": "nonpayable",
      "type": "function"
    },
    {
      "inputs": [
        {
          "internalType": "address",
          "name": "newOwner",
          "type": "address"
        }
      ],
      "name": "transferOwnership",
      "outputs": [],
      "stateMutability": "nonpayable",
      "type": "function"
    }
  ],
  "bytecode": "0x6101406040526703782dace9d90000600e5561206c600f556105dc60105560c860118190556116a8601255610fa0601355601455601680546001600160a01b03199081167390f79bf6eb2c4f870365e785982e1f101e93b906179091556017805482167315d34aaf54267db7d7c367839aaf71a00a2c6a6517905560188054909116739965507d1a55bcc2695c58ba16fb37d819b0a4dc179055348015620000a657600080fd5b50604051620035f5380380620035f5833981016040819052620000c99162000409565b6040518060400160405280600f81526020016e2630bd3ca7232a16ab37bab1b432b960891b815250604051806040016040528060018152602001603160f81b8152506040518060400160405280601081526020016f4c415a592d4d494e5445445f424f495360801b815250604051806040016040528060048152602001634c415a5960e01b81525081600090805190602001906200016992919062000363565b5080516200017f90600190602084019062000363565b5050825160208085019190912083518483012060e08290526101008190524660a0818152604080517f8b73c3c69bb8fe3d512ecc4cf759cc79239f7b179b0ffacaa9a75d522b39400f81880181905281830187905260608201869052608082019490945230818401528151808203909301835260c0019052805194019390932091935091906080523060601b60c05261012052506200022a9250620002249150503390565b6200025d565b620002567f9f2df0fed2c77648de5860a4cc508cd0818c85b8b8a1ab4ceeef8d981c8956a682620002af565b5062000476565b600880546001600160a01b038381166001600160a01b0319831681179093556040519116919082907f8be0079c531659141344cd1fd0a4f28419497f9722a3daafe3b4186f6b6457e090600090a35050565b620002bb8282620002bf565b5050565b60008281526007602090815260408083206001600160a01b038516845290915290205460ff16620002bb5760008281526007602090815260408083206001600160a01b03851684529091529020805460ff191660011790556200031f3390565b6001600160a01b0316816001600160a01b0316837f2f8788117e7eff1d82e926ec794901d17c78024a50270940304540a733656f0d60405160405180910390a45050565b828054620003719062000439565b90600052602060002090601f016020900481019282620003955760008555620003e0565b82601f10620003b057805160ff1916838001178555620003e0565b82800160010185558215620003e0579182015b82811115620003e0578251825591602001919060010190620003c3565b50620003ee929150620003f2565b5090565b5b80821115620003ee5760008155600101620003f3565b6000602082840312156200041b578081fd5b81516001600160a01b038116811462000432578182fd5b9392505050565b600181811c908216806200044e57607f821691505b602082108114156200047057634e487b7160e01b600052602260045260246000fd5b50919050565b60805160a05160c05160601c60e051610100516101205161313e620004b760003960005050600050506000505060005050600050506000505061313e6000f3fe6080604052600436106101d85760003560e01c806370a0823111610102578063b88d4fde11610095578063d539139311610064578063d53913931461054d578063d547741f14610581578063e985e9c5146105a1578063f2fde38b146105ea57600080fd5b8063b88d4fde146104cd578063c87b56dd146104ed578063cbf8127c1461050d578063d44d9d821461052d57600080fd5b806395d89b41116100d157806395d89b4114610470578063a1fd16fc14610485578063a217fddf14610498578063a22cb465146104ad57600080fd5b806370a08231146103fd578063715018a61461041d5780638da5cb5b1461043257806391d148541461045057600080fd5b8063248a9ca31161017a5780633fb2da5e116101495780633fb2da5e1461037d57806342842e0e1461039d5780634f6ccce7146103bd5780636352211e146103dd57600080fd5b8063248a9ca3146102ed5780632f2ff15d1461031d5780632f745c591461033d57806336568abe1461035d57600080fd5b8063095ea7b3116101b6578063095ea7b31461026c57806318160ddd1461028e5780631b2ef1ca146102ad57806323b872dd146102cd57600080fd5b806301ffc9a7146101dd57806306fdde0314610212578063081812fc14610234575b600080fd5b3480156101e957600080fd5b506101fd6101f8366004612af6565b61060a565b60405190151581526020015b60405180910390f35b34801561021e57600080fd5b5061022761062a565b6040516102099190612cd5565b34801561024057600080fd5b5061025461024f366004612abc565b6106bc565b6040516001600160a01b039091168152602001610209565b34801561027857600080fd5b5061028c610287366004612a93565b610749565b005b34801561029a57600080fd5b50600b545b604051908152602001610209565b3480156102b957600080fd5b5061028c6102c8366004612b97565b61085f565b3480156102d957600080fd5b5061028c6102e8366004612949565b610a4c565b3480156102f957600080fd5b5061029f610308366004612abc565b60009081526007602052604090206001015490565b34801561032957600080fd5b5061028c610338366004612ad4565b610a7d565b34801561034957600080fd5b5061029f610358366004612a93565b610aa3565b34801561036957600080fd5b5061028c610378366004612ad4565b610b39565b34801561038957600080fd5b5061028c6103983660046128fd565b610bb7565b3480156103a957600080fd5b5061028c6103b8366004612949565b610c02565b3480156103c957600080fd5b5061029f6103d8366004612abc565b610c1d565b3480156103e957600080fd5b506102546103f8366004612abc565b610cbe565b34801561040957600080fd5b5061029f6104183660046128fd565b610d35565b34801561042957600080fd5b5061028c610dbc565b34801561043e57600080fd5b506008546001600160a01b0316610254565b34801561045c57600080fd5b506101fd61046b366004612ad4565b610df2565b34801561047c57600080fd5b50610227610e1d565b61028c610493366004612b2e565b610e2c565b3480156104a457600080fd5b5061029f600081565b3480156104b957600080fd5b5061028c6104c8366004612a59565b611152565b3480156104d957600080fd5b5061028c6104e8366004612984565b61115d565b3480156104f957600080fd5b50610227610508366004612abc565b611195565b34801561051957600080fd5b5061028c6105283660046128fd565b6111a0565b34801561053957600080fd5b50610254610548366004612b2e565b6111ee565b34801561055957600080fd5b5061029f7f9f2df0fed2c77648de5860a4cc508cd0818c85b8b8a1ab4ceeef8d981c8956a681565b34801561058d57600080fd5b5061028c61059c366004612ad4565b611273565b3480156105ad57600080fd5b506101fd6105bc366004612917565b6001600160a01b03918216600090815260056020908152604080832093909416825291909152205460ff1690565b3480156105f657600080fd5b5061028c6106053660046128fd565b611299565b600061061582611334565b80610624575061062482611384565b92915050565b60606000805461063990612e93565b80601f016020809104026020016040519081016040528092919081815260200182805461066590612e93565b80156106b25780601f10610687576101008083540402835291602001916106b2565b820191906000526020600020905b81548152906001019060200180831161069557829003601f168201915b5050505050905090565b60006106c7826113a9565b61072d5760405162461bcd60e51b815260206004820152602c60248201527f4552433732313a20617070726f76656420717565727920666f72206e6f6e657860448201526b34b9ba32b73a103a37b5b2b760a11b60648201526084015b60405180910390fd5b506000908152600460205260409020546001600160a01b031690565b600061075482610cbe565b9050806001600160a01b0316836001600160a01b031614156107c25760405162461bcd60e51b815260206004820152602160248201527f4552433732313a20617070726f76616c20746f2063757272656e74206f776e656044820152603960f91b6064820152608401610724565b336001600160a01b03821614806107de57506107de81336105bc565b6108505760405162461bcd60e51b815260206004820152603860248201527f4552433732313a20617070726f76652063616c6c6572206973206e6f74206f7760448201527f6e6572206e6f7220617070726f76656420666f7220616c6c00000000000000006064820152608401610724565b61085a83836113c6565b505050565b6008546001600160a01b031633146108895760405162461bcd60e51b815260040161072490612d68565b6108933383611434565b60408051600580825260c08201909252600091816020015b60608152602001906001900390816108ab57905050905060405180608001604052806057815260200161300460579139816000815181106108fc57634e487b7160e01b600052603260045260246000fd5b6020026020010181905250604051806080016040528060578152602001612f56605791398160018151811061094157634e487b7160e01b600052603260045260246000fd5b602002602001018190525060405180608001604052806057815260200161305b605791398160028151811061098657634e487b7160e01b600052603260045260246000fd5b60200260200101819052506040518060800160405280605781526020016130b260579139816003815181106109cb57634e487b7160e01b600052603260045260246000fd5b6020026020010181905250604051806080016040528060578152602001612fad6057913981600481518110610a1057634e487b7160e01b600052603260045260246000fd5b602002602001018190525061085a83828481518110610a3f57634e487b7160e01b600052603260045260246000fd5b6020026020010151611573565b610a5633826115fe565b610a725760405162461bcd60e51b815260040161072490612d9d565b61085a8383836116e4565b600082815260076020526040902060010154610a99813361188f565b61085a83836118f3565b6000610aae83610d35565b8210610b105760405162461bcd60e51b815260206004820152602b60248201527f455243373231456e756d657261626c653a206f776e657220696e646578206f7560448201526a74206f6620626f756e647360a81b6064820152608401610724565b506001600160a01b03919091166000908152600960209081526040808320938352929052205490565b6001600160a01b0381163314610ba95760405162461bcd60e51b815260206004820152602f60248201527f416363657373436f6e74726f6c3a2063616e206f6e6c792072656e6f756e636560448201526e103937b632b9903337b91039b2b63360891b6064820152608401610724565b610bb38282611979565b5050565b6008546001600160a01b03163314610be15760405162461bcd60e51b815260040161072490612d68565b6001600160a01b03166000908152601560205260409020805460ff19169055565b61085a8383836040518060200160405280600081525061115d565b6000610c28600b5490565b8210610c8b5760405162461bcd60e51b815260206004820152602c60248201527f455243373231456e756d657261626c653a20676c6f62616c20696e646578206f60448201526b7574206f6620626f756e647360a01b6064820152608401610724565b600b8281548110610cac57634e487b7160e01b600052603260045260246000fd5b90600052602060002001549050919050565b6000818152600260205260408120546001600160a01b0316806106245760405162461bcd60e51b815260206004820152602960248201527f4552433732313a206f776e657220717565727920666f72206e6f6e657869737460448201526832b73a103a37b5b2b760b91b6064820152608401610724565b60006001600160a01b038216610da05760405162461bcd60e51b815260206004820152602a60248201527f4552433732313a2062616c616e636520717565727920666f7220746865207a65604482015269726f206164647265737360b01b6064820152608401610724565b506001600160a01b031660009081526003602052604090205490565b6008546001600160a01b03163314610de65760405162461bcd60e51b815260040161072490612d68565b610df060006119e0565b565b60009182526007602090815260408084206001600160a01b0393909316845291905290205460ff1690565b60606001805461063990612e93565b6000610e3a858585856111ee565b9050610e667f9f2df0fed2c77648de5860a4cc508cd0818c85b8b8a1ab4ceeef8d981c8956a682610df2565b610ebc5760405162461bcd60e51b815260206004820152602160248201527f5369676e617475726520696e76616c6964206f7220756e617574686f72697a656044820152601960fa1b6064820152608401610724565b600e543414610f005760405162461bcd60e51b815260206004820152601060248201526f6e6f7420656e6f756768206d6f6e657960801b6044820152606401610724565b6000610f0b600d5490565b9050610f1b600d80546001019055565b610f258282611434565b610f658187878080601f01602080910402602001604051908101604052809392919081815260200183838082843760009201919091525061157392505050565b610f708233836116e4565b336000908152601560205260408120548190819060ff1615610fa057601254925060135491506014549050610fb0565b600f549250601054915060115490505b6016546000906001600160a01b0316612710610fcc8634612e1a565b610fd69190612e06565b604051600081818185875af1925050503d8060008114611012576040519150601f19603f3d011682016040523d82523d6000602084013e611017565b606091505b50509050806110385760405162461bcd60e51b815260040161072490612d3a565b6017546001600160a01b03166127106110518534612e1a565b61105b9190612e06565b604051600081818185875af1925050503d8060008114611097576040519150601f19603f3d011682016040523d82523d6000602084013e61109c565b606091505b505080915050806110bf5760405162461bcd60e51b815260040161072490612d3a565b6018546001600160a01b03166127106110d88434612e1a565b6110e29190612e06565b604051600081818185875af1925050503d806000811461111e576040519150601f19603f3d011682016040523d82523d6000602084013e611123565b606091505b505080915050806111465760405162461bcd60e51b815260040161072490612d3a565b50505050505050505050565b610bb3338383611a32565b61116733836115fe565b6111835760405162461bcd60e51b815260040161072490612d9d565b61118f84848484611b01565b50505050565b606061062482611b34565b6008546001600160a01b031633146111ca5760405162461bcd60e51b815260040161072490612d68565b6001600160a01b03166000908152601560205260409020805460ff19166001179055565b6000808585604051602001611204929190612be4565b60405160208183030381529060405280519060200120905061126784848080601f0160208091040260200160405190810160405280939291908181526020018383808284376000920191909152506112619250859150611ca39050565b90611cf6565b9150505b949350505050565b60008281526007602052604090206001015461128f813361188f565b61085a8383611979565b6008546001600160a01b031633146112c35760405162461bcd60e51b815260040161072490612d68565b6001600160a01b0381166113285760405162461bcd60e51b815260206004820152602660248201527f4f776e61626c653a206e6577206f776e657220697320746865207a65726f206160448201526564647265737360d01b6064820152608401610724565b611331816119e0565b50565b60006001600160e01b031982166380ac58cd60e01b148061136557506001600160e01b03198216635b5e139f60e01b145b8061062457506301ffc9a760e01b6001600160e01b0319831614610624565b60006001600160e01b03198216637965db0b60e01b1480610624575061062482611334565b6000908152600260205260409020546001600160a01b0316151590565b600081815260046020526040902080546001600160a01b0319166001600160a01b03841690811790915581906113fb82610cbe565b6001600160a01b03167f8c5be1e5ebec7d5bd14f71427d1e84f3dd0314c0f7b2291e5b200ac8c7c3b92560405160405180910390a45050565b6001600160a01b03821661148a5760405162461bcd60e51b815260206004820181905260248201527f4552433732313a206d696e7420746f20746865207a65726f20616464726573736044820152606401610724565b611493816113a9565b156114e05760405162461bcd60e51b815260206004820152601c60248201527f4552433732313a20746f6b656e20616c7265616479206d696e746564000000006044820152606401610724565b6114ec60008383611d1a565b6001600160a01b0382166000908152600360205260408120805460019290611515908490612dee565b909155505060008181526002602052604080822080546001600160a01b0319166001600160a01b03861690811790915590518392907fddf252ad1be2c89b69c2b068fc378daa952ba7f163c4a11628f55a4df523b3ef908290a45050565b61157c826113a9565b6115df5760405162461bcd60e51b815260206004820152602e60248201527f45524337323155524953746f726167653a2055524920736574206f66206e6f6e60448201526d32bc34b9ba32b73a103a37b5b2b760911b6064820152608401610724565b6000828152600660209081526040909120825161085a92840190612808565b6000611609826113a9565b61166a5760405162461bcd60e51b815260206004820152602c60248201527f4552433732313a206f70657261746f7220717565727920666f72206e6f6e657860448201526b34b9ba32b73a103a37b5b2b760a11b6064820152608401610724565b600061167583610cbe565b9050806001600160a01b0316846001600160a01b031614806116b05750836001600160a01b03166116a5846106bc565b6001600160a01b0316145b8061126b57506001600160a01b0380821660009081526005602090815260408083209388168352929052205460ff1661126b565b826001600160a01b03166116f782610cbe565b6001600160a01b03161461175f5760405162461bcd60e51b815260206004820152602960248201527f4552433732313a207472616e73666572206f6620746f6b656e2074686174206960448201526839903737ba1037bbb760b91b6064820152608401610724565b6001600160a01b0382166117c15760405162461bcd60e51b8152602060048201526024808201527f4552433732313a207472616e7366657220746f20746865207a65726f206164646044820152637265737360e01b6064820152608401610724565b6117cc838383611d1a565b6117d76000826113c6565b6001600160a01b0383166000908152600360205260408120805460019290611800908490612e39565b90915550506001600160a01b038216600090815260036020526040812080546001929061182e908490612dee565b909155505060008181526002602052604080822080546001600160a01b0319166001600160a01b0386811691821790925591518493918716917fddf252ad1be2c89b69c2b068fc378daa952ba7f163c4a11628f55a4df523b3ef91a4505050565b6118998282610df2565b610bb3576118b1816001600160a01b03166014611d25565b6118bc836020611d25565b6040516020016118cd929190612c23565b60408051601f198184030181529082905262461bcd60e51b825261072491600401612cd5565b6118fd8282610df2565b610bb35760008281526007602090815260408083206001600160a01b03851684529091529020805460ff191660011790556119353390565b6001600160a01b0316816001600160a01b0316837f2f8788117e7eff1d82e926ec794901d17c78024a50270940304540a733656f0d60405160405180910390a45050565b6119838282610df2565b15610bb35760008281526007602090815260408083206001600160a01b0385168085529252808320805460ff1916905551339285917ff6391f5c32d9c69d2a47ea670b442974b53935d1edc7fd64eb21e047a839171b9190a45050565b600880546001600160a01b038381166001600160a01b0319831681179093556040519116919082907f8be0079c531659141344cd1fd0a4f28419497f9722a3daafe3b4186f6b6457e090600090a35050565b816001600160a01b0316836001600160a01b03161415611a945760405162461bcd60e51b815260206004820152601960248201527f4552433732313a20617070726f766520746f2063616c6c6572000000000000006044820152606401610724565b6001600160a01b03838116600081815260056020908152604080832094871680845294825291829020805460ff191686151590811790915591519182527f17307eab39ab6107e8899845ad3d59bd9653f200f220920489ca2b5937696c31910160405180910390a3505050565b611b0c8484846116e4565b611b1884848484611f0e565b61118f5760405162461bcd60e51b815260040161072490612ce8565b6060611b3f826113a9565b611ba55760405162461bcd60e51b815260206004820152603160248201527f45524337323155524953746f726167653a2055524920717565727920666f72206044820152703737b732bc34b9ba32b73a103a37b5b2b760791b6064820152608401610724565b60008281526006602052604081208054611bbe90612e93565b80601f0160208091040260200160405190810160405280929190818152602001828054611bea90612e93565b8015611c375780601f10611c0c57610100808354040283529160200191611c37565b820191906000526020600020905b815481529060010190602001808311611c1a57829003601f168201915b505050505090506000611c5560408051602081019091526000815290565b9050805160001415611c68575092915050565b815115611c9a578082604051602001611c82929190612bf4565b60405160208183030381529060405292505050919050565b61126b84612018565b6040517f19457468657265756d205369676e6564204d6573736167653a0a3332000000006020820152603c8101829052600090605c01604051602081830303815290604052805190602001209050919050565b6000806000611d0585856120ef565b91509150611d128161215f565b509392505050565b61085a838383612360565b60606000611d34836002612e1a565b611d3f906002612dee565b67ffffffffffffffff811115611d6557634e487b7160e01b600052604160045260246000fd5b6040519080825280601f01601f191660200182016040528015611d8f576020820181803683370190505b509050600360fc1b81600081518110611db857634e487b7160e01b600052603260045260246000fd5b60200101906001600160f81b031916908160001a905350600f60fb1b81600181518110611df557634e487b7160e01b600052603260045260246000fd5b60200101906001600160f81b031916908160001a9053506000611e19846002612e1a565b611e24906001612dee565b90505b6001811115611eb8576f181899199a1a9b1b9c1cb0b131b232b360811b85600f1660108110611e6657634e487b7160e01b600052603260045260246000fd5b1a60f81b828281518110611e8a57634e487b7160e01b600052603260045260246000fd5b60200101906001600160f81b031916908160001a90535060049490941c93611eb181612e7c565b9050611e27565b508315611f075760405162461bcd60e51b815260206004820181905260248201527f537472696e67733a20686578206c656e67746820696e73756666696369656e746044820152606401610724565b9392505050565b60006001600160a01b0384163b1561201057604051630a85bd0160e11b81526001600160a01b0385169063150b7a0290611f52903390899088908890600401612c98565b602060405180830381600087803b158015611f6c57600080fd5b505af1925050508015611f9c575060408051601f3d908101601f19168201909252611f9991810190612b12565b60015b611ff6573d808015611fca576040519150601f19603f3d011682016040523d82523d6000602084013e611fcf565b606091505b508051611fee5760405162461bcd60e51b815260040161072490612ce8565b805181602001fd5b6001600160e01b031916630a85bd0160e11b14905061126b565b50600161126b565b6060612023826113a9565b6120875760405162461bcd60e51b815260206004820152602f60248201527f4552433732314d657461646174613a2055524920717565727920666f72206e6f60448201526e3732bc34b9ba32b73a103a37b5b2b760891b6064820152608401610724565b600061209e60408051602081019091526000815290565b905060008151116120be5760405180602001604052806000815250611f07565b806120c884612418565b6040516020016120d9929190612bf4565b6040516020818303038152906040529392505050565b6000808251604114156121265760208301516040840151606085015160001a61211a87828585612532565b94509450505050612158565b825160401415612150576020830151604084015161214586838361261f565b935093505050612158565b506000905060025b9250929050565b600081600481111561218157634e487b7160e01b600052602160045260246000fd5b141561218a5750565b60018160048111156121ac57634e487b7160e01b600052602160045260246000fd5b14156121fa5760405162461bcd60e51b815260206004820152601860248201527f45434453413a20696e76616c6964207369676e617475726500000000000000006044820152606401610724565b600281600481111561221c57634e487b7160e01b600052602160045260246000fd5b141561226a5760405162461bcd60e51b815260206004820152601f60248201527f45434453413a20696e76616c6964207369676e6174757265206c656e677468006044820152606401610724565b600381600481111561228c57634e487b7160e01b600052602160045260246000fd5b14156122e55760405162461bcd60e51b815260206004820152602260248201527f45434453413a20696e76616c6964207369676e6174757265202773272076616c604482015261756560f01b6064820152608401610724565b600481600481111561230757634e487b7160e01b600052602160045260246000fd5b14156113315760405162461bcd60e51b815260206004820152602260248201527f45434453413a20696e76616c6964207369676e6174757265202776272076616c604482015261756560f01b6064820152608401610724565b6001600160a01b0383166123bb576123b681600b80546000838152600c60205260408120829055600182018355919091527f0175b7a638427703f0dbe7bb9bbf987a2551717b34e79f33b5b1008d1fa01db90155565b6123de565b816001600160a01b0316836001600160a01b0316146123de576123de838261264e565b6001600160a01b0382166123f55761085a816126eb565b826001600160a01b0316826001600160a01b03161461085a5761085a82826127c4565b60608161243c5750506040805180820190915260018152600360fc1b602082015290565b8160005b8115612466578061245081612ece565b915061245f9050600a83612e06565b9150612440565b60008167ffffffffffffffff81111561248f57634e487b7160e01b600052604160045260246000fd5b6040519080825280601f01601f1916602001820160405280156124b9576020820181803683370190505b5090505b841561126b576124ce600183612e39565b91506124db600a86612ee9565b6124e6906030612dee565b60f81b81838151811061250957634e487b7160e01b600052603260045260246000fd5b60200101906001600160f81b031916908160001a90535061252b600a86612e06565b94506124bd565b6000807f7fffffffffffffffffffffffffffffff5d576e7357a4501ddfe92f46681b20a08311156125695750600090506003612616565b8460ff16601b1415801561258157508460ff16601c14155b156125925750600090506004612616565b6040805160008082526020820180845289905260ff881692820192909252606081018690526080810185905260019060a0016020604051602081039080840390855afa1580156125e6573d6000803e3d6000fd5b5050604051601f1901519150506001600160a01b03811661260f57600060019250925050612616565b9150600090505b94509492505050565b6000806001600160ff1b03831660ff84901c601b0161264087828885612532565b935093505050935093915050565b6000600161265b84610d35565b6126659190612e39565b6000838152600a60205260409020549091508082146126b8576001600160a01b03841660009081526009602090815260408083208584528252808320548484528184208190558352600a90915290208190555b506000918252600a602090815260408084208490556001600160a01b039094168352600981528383209183525290812055565b600b546000906126fd90600190612e39565b6000838152600c6020526040812054600b805493945090928490811061273357634e487b7160e01b600052603260045260246000fd5b9060005260206000200154905080600b838154811061276257634e487b7160e01b600052603260045260246000fd5b6000918252602080832090910192909255828152600c9091526040808220849055858252812055600b8054806127a857634e487b7160e01b600052603160045260246000fd5b6001900381819060005260206000200160009055905550505050565b60006127cf83610d35565b6001600160a01b0390931660009081526009602090815260408083208684528252808320859055938252600a9052919091209190915550565b82805461281490612e93565b90600052602060002090601f016020900481019282612836576000855561287c565b82601f1061284f57805160ff191683800117855561287c565b8280016001018555821561287c579182015b8281111561287c578251825591602001919060010190612861565b5061288892915061288c565b5090565b5b80821115612888576000815560010161288d565b80356001600160a01b03811681146128b857600080fd5b919050565b60008083601f8401126128ce578182fd5b50813567ffffffffffffffff8111156128e5578182fd5b60208301915083602082850101111561215857600080fd5b60006020828403121561290e578081fd5b611f07826128a1565b60008060408385031215612929578081fd5b612932836128a1565b9150612940602084016128a1565b90509250929050565b60008060006060848603121561295d578081fd5b612966846128a1565b9250612974602085016128a1565b9150604084013590509250925092565b60008060008060808587031215612999578081fd5b6129a2856128a1565b93506129b0602086016128a1565b925060408501359150606085013567ffffffffffffffff808211156129d3578283fd5b818701915087601f8301126129e6578283fd5b8135818111156129f8576129f8612f29565b604051601f8201601f19908116603f01168101908382118183101715612a2057612a20612f29565b816040528281528a6020848701011115612a38578586fd5b82602086016020830137918201602001949094529598949750929550505050565b60008060408385031215612a6b578182fd5b612a74836128a1565b915060208301358015158114612a88578182fd5b809150509250929050565b60008060408385031215612aa5578182fd5b612aae836128a1565b946020939093013593505050565b600060208284031215612acd578081fd5b5035919050565b60008060408385031215612ae6578182fd5b82359150612940602084016128a1565b600060208284031215612b07578081fd5b8135611f0781612f3f565b600060208284031215612b23578081fd5b8151611f0781612f3f565b60008060008060408587031215612b43578384fd5b843567ffffffffffffffff80821115612b5a578586fd5b612b66888389016128bd565b90965094506020870135915080821115612b7e578384fd5b50612b8b878288016128bd565b95989497509550505050565b60008060408385031215612ba9578182fd5b50508035926020909101359150565b60008151808452612bd0816020860160208601612e50565b601f01601f19169290920160200192915050565b8183823760009101908152919050565b60008351612c06818460208801612e50565b835190830190612c1a818360208801612e50565b01949350505050565b7f416363657373436f6e74726f6c3a206163636f756e7420000000000000000000815260008351612c5b816017850160208801612e50565b7001034b99036b4b9b9b4b733903937b6329607d1b6017918401918201528351612c8c816028840160208801612e50565b01602801949350505050565b6001600160a01b0385811682528416602082015260408101839052608060608201819052600090612ccb90830184612bb8565b9695505050505050565b602081526000611f076020830184612bb8565b60208082526032908201527f4552433732313a207472616e7366657220746f206e6f6e20455243373231526560408201527131b2b4bb32b91034b6b83632b6b2b73a32b960711b606082015260800190565b6020808252601490820152732330b4b632b2103a379039b2b7321022ba3432b960611b604082015260600190565b6020808252818101527f4f776e61626c653a2063616c6c6572206973206e6f7420746865206f776e6572604082015260600190565b60208082526031908201527f4552433732313a207472616e736665722063616c6c6572206973206e6f74206f6040820152701ddb995c881b9bdc88185c1c1c9bdd9959607a1b606082015260800190565b60008219821115612e0157612e01612efd565b500190565b600082612e1557612e15612f13565b500490565b6000816000190483118215151615612e3457612e34612efd565b500290565b600082821015612e4b57612e4b612efd565b500390565b60005b83811015612e6b578181015183820152602001612e53565b8381111561118f5750506000910152565b600081612e8b57612e8b612efd565b506000190190565b600181811c90821680612ea757607f821691505b60208210811415612ec857634e487b7160e01b600052602260045260246000fd5b50919050565b6000600019821415612ee257612ee2612efd565b5060010190565b600082612ef857612ef8612f13565b500690565b634e487b7160e01b600052601160045260246000fd5b634e487b7160e01b600052601260045260246000fd5b634e487b7160e01b600052604160045260246000fd5b6001600160e01b03198116811461133157600080fdfe68747470733a2f2f676174657761792e70696e6174612e636c6f75642f697066732f516d52334e657057666f6164726f45504b585357364d4442706e766e5951663569363335784a37314e384e36706a2f322e6a736f6e68747470733a2f2f676174657761792e70696e6174612e636c6f75642f697066732f516d52334e657057666f6164726f45504b585357364d4442706e766e5951663569363335784a37314e384e36706a2f352e6a736f6e68747470733a2f2f676174657761792e70696e6174612e636c6f75642f697066732f516d52334e657057666f6164726f45504b585357364d4442706e766e5951663569363335784a37314e384e36706a2f312e6a736f6e68747470733a2f2f676174657761792e70696e6174612e636c6f75642f697066732f516d52334e657057666f6164726f45504b585357364d4442706e766e5951663569363335784a37314e384e36706a2f332e6a736f6e68747470733a2f2f676174657761792e70696e6174612e636c6f75642f697066732f516d52334e657057666f6164726f45504b585357364d4442706e766e5951663569363335784a37314e384e36706a2f342e6a736f6ea2646970667358221220cdd4ca9dba4ea87bafafccfd8ee31e68052c152ce9f37a9645606e34be73a45964736f6c63430008040033",
  "linkReferences": {},
  "deployedLinkReferences": {}
}