{
  "_format": "hh-sol-artifact-1",
  "contractName": "Lazy",
  "sourceName": "contracts/Lazy.sol",
  "abi": [
    {
      "inputs": [
        {
          "internalType": "address payable",
          "name": "minter",
          "type": "address"
        }
      ],
      "stateMutability": "nonpayable",
      "type": "constructor"
    },
    {
      "anonymous": false,
      "inputs": [
        {
          "indexed": true,
          "internalType": "address",
          "name": "owner",
          "type": "address"
        },
        {
          "indexed": true,
          "internalType": "address",
          "name": "approved",
          "type": "address"
        },
        {
          "indexed": true,
          "internalType": "uint256",
          "name": "tokenId",
          "type": "uint256"
        }
      ],
      "name": "Approval",
      "type": "event"
    },
    {
      "anonymous": false,
      "inputs": [
        {
          "indexed": true,
          "internalType": "address",
          "name": "owner",
          "type": "address"
        },
        {
          "indexed": true,
          "internalType": "address",
          "name": "operator",
          "type": "address"
        },
        {
          "indexed": false,
          "internalType": "bool",
          "name": "approved",
          "type": "bool"
        }
      ],
      "name": "ApprovalForAll",
      "type": "event"
    },
    {
      "anonymous": false,
      "inputs": [
        {
          "indexed": true,
          "internalType": "address",
          "name": "previousOwner",
          "type": "address"
        },
        {
          "indexed": true,
          "internalType": "address",
          "name": "newOwner",
          "type": "address"
        }
      ],
      "name": "OwnershipTransferred",
      "type": "event"
    },
    {
      "anonymous": false,
      "inputs": [
        {
          "indexed": true,
          "internalType": "bytes32",
          "name": "role",
          "type": "bytes32"
        },
        {
          "indexed": true,
          "internalType": "bytes32",
          "name": "previousAdminRole",
          "type": "bytes32"
        },
        {
          "indexed": true,
          "internalType": "bytes32",
          "name": "newAdminRole",
          "type": "bytes32"
        }
      ],
      "name": "RoleAdminChanged",
      "type": "event"
    },
    {
      "anonymous": false,
      "inputs": [
        {
          "indexed": true,
          "internalType": "bytes32",
          "name": "role",
          "type": "bytes32"
        },
        {
          "indexed": true,
          "internalType": "address",
          "name": "account",
          "type": "address"
        },
        {
          "indexed": true,
          "internalType": "address",
          "name": "sender",
          "type": "address"
        }
      ],
      "name": "RoleGranted",
      "type": "event"
    },
    {
      "anonymous": false,
      "inputs": [
        {
          "indexed": true,
          "internalType": "bytes32",
          "name": "role",
          "type": "bytes32"
        },
        {
          "indexed": true,
          "internalType": "address",
          "name": "account",
          "type": "address"
        },
        {
          "indexed": true,
          "internalType": "address",
          "name": "sender",
          "type": "address"
        }
      ],
      "name": "RoleRevoked",
      "type": "event"
    },
    {
      "anonymous": false,
      "inputs": [
        {
          "indexed": true,
          "internalType": "address",
          "name": "from",
          "type": "address"
        },
        {
          "indexed": true,
          "internalType": "address",
          "name": "to",
          "type": "address"
        },
        {
          "indexed": true,
          "internalType": "uint256",
          "name": "tokenId",
          "type": "uint256"
        }
      ],
      "name": "Transfer",
      "type": "event"
    },
    {
      "inputs": [],
      "name": "DEFAULT_ADMIN_ROLE",
      "outputs": [
        {
          "internalType": "bytes32",
          "name": "",
          "type": "bytes32"
        }
      ],
      "stateMutability": "view",
      "type": "function"
    },
    {
      "inputs": [],
      "name": "MINTER_ROLE",
      "outputs": [
        {
          "internalType": "bytes32",
          "name": "",
          "type": "bytes32"
        }
      ],
      "stateMutability": "view",
      "type": "function"
    },
    {
      "inputs": [
        {
          "internalType": "string",
          "name": "message",
          "type": "string"
        },
        {
          "internalType": "bytes",
          "name": "sign",
          "type": "bytes"
        }
      ],
      "name": "_verify",
      "outputs": [
        {
          "internalType": "address",
          "name": "",
          "type": "address"
        }
      ],
      "stateMutability": "pure",
      "type": "function"
    },
    {
      "inputs": [
        {
          "internalType": "address[]",
          "name": "users",
          "type": "address[]"
        }
      ],
      "name": "addBulkWhitelistUser",
      "outputs": [],
      "stateMutability": "nonpayable",
      "type": "function"
    },
    {
      "inputs": [
        {
          "internalType": "address",
          "name": "user",
          "type": "address"
        }
      ],
      "name": "addWhitelistuser",
      "outputs": [],
      "stateMutability": "nonpayable",
      "type": "function"
    },
    {
      "inputs": [
        {
          "internalType": "address",
          "name": "to",
          "type": "address"
        },
        {
          "internalType": "uint256",
          "name": "tokenId",
          "type": "uint256"
        }
      ],
      "name": "approve",
      "outputs": [],
      "stateMutability": "nonpayable",
      "type": "function"
    },
    {
      "inputs": [
        {
          "internalType": "address",
          "name": "owner",
          "type": "address"
        }
      ],
      "name": "balanceOf",
      "outputs": [
        {
          "internalType": "uint256",
          "name": "",
          "type": "uint256"
        }
      ],
      "stateMutability": "view",
      "type": "function"
    },
    {
      "inputs": [
        {
          "internalType": "uint256",
          "name": "tokenId",
          "type": "uint256"
        }
      ],
      "name": "getApproved",
      "outputs": [
        {
          "internalType": "address",
          "name": "",
          "type": "address"
        }
      ],
      "stateMutability": "view",
      "type": "function"
    },
    {
      "inputs": [
        {
          "internalType": "bytes32",
          "name": "role",
          "type": "bytes32"
        }
      ],
      "name": "getRoleAdmin",
      "outputs": [
        {
          "internalType": "bytes32",
          "name": "",
          "type": "bytes32"
        }
      ],
      "stateMutability": "view",
      "type": "function"
    },
    {
      "inputs": [
        {
          "internalType": "bytes32",
          "name": "role",
          "type": "bytes32"
        },
        {
          "internalType": "address",
          "name": "account",
          "type": "address"
        }
      ],
      "name": "grantRole",
      "outputs": [],
      "stateMutability": "nonpayable",
      "type": "function"
    },
    {
      "inputs": [
        {
          "internalType": "bytes32",
          "name": "role",
          "type": "bytes32"
        },
        {
          "internalType": "address",
          "name": "account",
          "type": "address"
        }
      ],
      "name": "hasRole",
      "outputs": [
        {
          "internalType": "bool",
          "name": "",
          "type": "bool"
        }
      ],
      "stateMutability": "view",
      "type": "function"
    },
    {
      "inputs": [
        {
          "internalType": "address",
          "name": "owner",
          "type": "address"
        },
        {
          "internalType": "address",
          "name": "operator",
          "type": "address"
        }
      ],
      "name": "isApprovedForAll",
      "outputs": [
        {
          "internalType": "bool",
          "name": "",
          "type": "bool"
        }
      ],
      "stateMutability": "view",
      "type": "function"
    },
    {
      "inputs": [
        {
          "internalType": "uint256",
          "name": "tokenId",
          "type": "uint256"
        },
        {
          "internalType": "string",
          "name": "see",
          "type": "string"
        }
      ],
      "name": "mint",
      "outputs": [],
      "stateMutability": "nonpayable",
      "type": "function"
    },
    {
      "inputs": [
        {
          "internalType": "uint256",
          "name": "amount",
          "type": "uint256"
        },
        {
          "internalType": "string[]",
          "name": "message",
          "type": "string[]"
        },
        {
          "internalType": "bytes[]",
          "name": "sign",
          "type": "bytes[]"
        }
      ],
      "name": "mintToken",
      "outputs": [],
      "stateMutability": "payable",
      "type": "function"
    },
    {
      "inputs": [],
      "name": "name",
      "outputs": [
        {
          "internalType": "string",
          "name": "",
          "type": "string"
        }
      ],
      "stateMutability": "view",
      "type": "function"
    },
    {
      "inputs": [],
      "name": "owner",
      "outputs": [
        {
          "internalType": "address",
          "name": "",
          "type": "address"
        }
      ],
      "stateMutability": "view",
      "type": "function"
    },
    {
      "inputs": [
        {
          "internalType": "uint256",
          "name": "tokenId",
          "type": "uint256"
        }
      ],
      "name": "ownerOf",
      "outputs": [
        {
          "internalType": "address",
          "name": "",
          "type": "address"
        }
      ],
      "stateMutability": "view",
      "type": "function"
    },
    {
      "inputs": [
        {
          "internalType": "address",
          "name": "user",
          "type": "address"
        }
      ],
      "name": "removeWhitelistuser",
      "outputs": [],
      "stateMutability": "nonpayable",
      "type": "function"
    },
    {
      "inputs": [],
      "name": "renounceOwnership",
      "outputs": [],
      "stateMutability": "nonpayable",
      "type": "function"
    },
    {
      "inputs": [
        {
          "internalType": "bytes32",
          "name": "role",
          "type": "bytes32"
        },
        {
          "internalType": "address",
          "name": "account",
          "type": "address"
        }
      ],
      "name": "renounceRole",
      "outputs": [],
      "stateMutability": "nonpayable",
      "type": "function"
    },
    {
      "inputs": [
        {
          "internalType": "bytes32",
          "name": "role",
          "type": "bytes32"
        },
        {
          "internalType": "address",
          "name": "account",
          "type": "address"
        }
      ],
      "name": "revokeRole",
      "outputs": [],
      "stateMutability": "nonpayable",
      "type": "function"
    },
    {
      "inputs": [
        {
          "internalType": "address",
          "name": "from",
          "type": "address"
        },
        {
          "internalType": "address",
          "name": "to",
          "type": "address"
        },
        {
          "internalType": "uint256",
          "name": "tokenId",
          "type": "uint256"
        }
      ],
      "name": "safeTransferFrom",
      "outputs": [],
      "stateMutability": "nonpayable",
      "type": "function"
    },
    {
      "inputs": [
        {
          "internalType": "address",
          "name": "from",
          "type": "address"
        },
        {
          "internalType": "address",
          "name": "to",
          "type": "address"
        },
        {
          "internalType": "uint256",
          "name": "tokenId",
          "type": "uint256"
        },
        {
          "internalType": "bytes",
          "name": "_data",
          "type": "bytes"
        }
      ],
      "name": "safeTransferFrom",
      "outputs": [],
      "stateMutability": "nonpayable",
      "type": "function"
    },
    {
      "inputs": [
        {
          "internalType": "address",
          "name": "operator",
          "type": "address"
        },
        {
          "internalType": "bool",
          "name": "approved",
          "type": "bool"
        }
      ],
      "name": "setApprovalForAll",
      "outputs": [],
      "stateMutability": "nonpayable",
      "type": "function"
    },
    {
      "inputs": [
        {
          "internalType": "bytes4",
          "name": "interfaceId",
          "type": "bytes4"
        }
      ],
      "name": "supportsInterface",
      "outputs": [
        {
          "internalType": "bool",
          "name": "",
          "type": "bool"
        }
      ],
      "stateMutability": "view",
      "type": "function"
    },
    {
      "inputs": [],
      "name": "symbol",
      "outputs": [
        {
          "internalType": "string",
          "name": "",
          "type": "string"
        }
      ],
      "stateMutability": "view",
      "type": "function"
    },
    {
      "inputs": [
        {
          "internalType": "uint256",
          "name": "index",
          "type": "uint256"
        }
      ],
      "name": "tokenByIndex",
      "outputs": [
        {
          "internalType": "uint256",
          "name": "",
          "type": "uint256"
        }
      ],
      "stateMutability": "view",
      "type": "function"
    },
    {
      "inputs": [
        {
          "internalType": "address",
          "name": "owner",
          "type": "address"
        },
        {
          "internalType": "uint256",
          "name": "index",
          "type": "uint256"
        }
      ],
      "name": "tokenOfOwnerByIndex",
      "outputs": [
        {
          "internalType": "uint256",
          "name": "",
          "type": "uint256"
        }
      ],
      "stateMutability": "view",
      "type": "function"
    },
    {
      "inputs": [
        {
          "internalType": "uint256",
          "name": "tokenId",
          "type": "uint256"
        }
      ],
      "name": "tokenURI",
      "outputs": [
        {
          "internalType": "string",
          "name": "",
          "type": "string"
        }
      ],
      "stateMutability": "view",
      "type": "function"
    },
    {
      "inputs": [],
      "name": "totalSupply",
      "outputs": [
        {
          "internalType": "uint256",
          "name": "",
          "type": "uint256"
        }
      ],
      "stateMutability": "view",
      "type": "function"
    },
    {
      "inputs": [
        {
          "internalType": "address",
          "name": "from",
          "type": "address"
        },
        {
          "internalType": "address",
          "name": "to",
          "type": "address"
        },
        {
          "internalType": "uint256",
          "name": "tokenId",
          "type": "uint256"
        }
      ],
      "name": "transferFrom",
      "outputs": [],
      "stateMutability": "nonpayable",
      "type": "function"
    },
    {
      "inputs": [
        {
          "internalType": "address",
          "name": "newOwner",
          "type": "address"
        }
      ],
      "name": "transferOwnership",
      "outputs": [],
      "stateMutability": "nonpayable",
      "type": "function"
    }
  ],
  "bytecode": "0x6101406040526703782dace9d90000600e5561206c600f556105dc60105560c860118190556116a8601255610fa0601355601455601680546001600160a01b0319908116735db8bb85d6065f95350d8ae3934d72ad0ab3ae7e179091556017805482167304d59d5699e1b28161ea972ffd81a6705bfeb8a317905560188054909116738ffaf9e4e61e4fbc5ba749be4498a08783b166b6179055348015620000a657600080fd5b50604051620036cb380380620036cb833981016040819052620000c99162000409565b6040518060400160405280600f81526020016e2630bd3ca7232a16ab37bab1b432b960891b815250604051806040016040528060018152602001603160f81b8152506040518060400160405280601081526020016f4c415a592d4d494e5445445f424f495360801b815250604051806040016040528060048152602001634c415a5960e01b81525081600090805190602001906200016992919062000363565b5080516200017f90600190602084019062000363565b5050825160208085019190912083518483012060e08290526101008190524660a0818152604080517f8b73c3c69bb8fe3d512ecc4cf759cc79239f7b179b0ffacaa9a75d522b39400f81880181905281830187905260608201869052608082019490945230818401528151808203909301835260c0019052805194019390932091935091906080523060601b60c05261012052506200022a9250620002249150503390565b6200025d565b620002567f9f2df0fed2c77648de5860a4cc508cd0818c85b8b8a1ab4ceeef8d981c8956a682620002af565b5062000476565b600880546001600160a01b038381166001600160a01b0319831681179093556040519116919082907f8be0079c531659141344cd1fd0a4f28419497f9722a3daafe3b4186f6b6457e090600090a35050565b620002bb8282620002bf565b5050565b60008281526007602090815260408083206001600160a01b038516845290915290205460ff16620002bb5760008281526007602090815260408083206001600160a01b03851684529091529020805460ff191660011790556200031f3390565b6001600160a01b0316816001600160a01b0316837f2f8788117e7eff1d82e926ec794901d17c78024a50270940304540a733656f0d60405160405180910390a45050565b828054620003719062000439565b90600052602060002090601f016020900481019282620003955760008555620003e0565b82601f10620003b057805160ff1916838001178555620003e0565b82800160010185558215620003e0579182015b82811115620003e0578251825591602001919060010190620003c3565b50620003ee929150620003f2565b5090565b5b80821115620003ee5760008155600101620003f3565b6000602082840312156200041b578081fd5b81516001600160a01b038116811462000432578182fd5b9392505050565b600181811c908216806200044e57607f821691505b602082108114156200047057634e487b7160e01b600052602260045260246000fd5b50919050565b60805160a05160c05160601c60e0516101005161012051613214620004b76000396000505060005050600050506000505060005050600050506132146000f3fe6080604052600436106101e35760003560e01c806373bf00eb11610102578063bdfb19c511610095578063d539139311610064578063d539139314610578578063d547741f146105ac578063e985e9c5146105cc578063f2fde38b1461061557600080fd5b8063bdfb19c5146104f8578063c87b56dd14610518578063cbf8127c14610538578063d44d9d821461055857600080fd5b806395d89b41116100d157806395d89b411461048e578063a217fddf146104a3578063a22cb465146104b8578063b88d4fde146104d857600080fd5b806373bf00eb1461041d57806377097fc8146104305780638da5cb5b1461045057806391d148541461046e57600080fd5b80632f745c591161017a5780634f6ccce7116101495780634f6ccce7146103a85780636352211e146103c857806370a08231146103e8578063715018a61461040857600080fd5b80632f745c591461032857806336568abe146103485780633fb2da5e1461036857806342842e0e1461038857600080fd5b806318160ddd116101b657806318160ddd1461029957806323b872dd146102b8578063248a9ca3146102d85780632f2ff15d1461030857600080fd5b806301ffc9a7146101e857806306fdde031461021d578063081812fc1461023f578063095ea7b314610277575b600080fd5b3480156101f457600080fd5b50610208610203366004612c5b565b610635565b60405190151581526020015b60405180910390f35b34801561022957600080fd5b50610232610655565b6040516102149190612ee8565b34801561024b57600080fd5b5061025f61025a366004612c21565b6106e7565b6040516001600160a01b039091168152602001610214565b34801561028357600080fd5b50610297610292366004612b49565b610774565b005b3480156102a557600080fd5b50600b545b604051908152602001610214565b3480156102c457600080fd5b506102976102d3366004612a5b565b61088a565b3480156102e457600080fd5b506102aa6102f3366004612c21565b60009081526007602052604090206001015490565b34801561031457600080fd5b50610297610323366004612c39565b6108bb565b34801561033457600080fd5b506102aa610343366004612b49565b6108e1565b34801561035457600080fd5b50610297610363366004612c39565b610977565b34801561037457600080fd5b50610297610383366004612a0f565b6109f5565b34801561039457600080fd5b506102976103a3366004612a5b565b610a40565b3480156103b457600080fd5b506102aa6103c3366004612c21565b610a5b565b3480156103d457600080fd5b5061025f6103e3366004612c21565b610afc565b3480156103f457600080fd5b506102aa610403366004612a0f565b610b73565b34801561041457600080fd5b50610297610bfa565b61029761042b366004612cfc565b610c30565b34801561043c57600080fd5b5061029761044b366004612d73565b6110b1565b34801561045c57600080fd5b506008546001600160a01b031661025f565b34801561047a57600080fd5b50610208610489366004612c39565b6110ef565b34801561049a57600080fd5b5061023261111a565b3480156104af57600080fd5b506102aa600081565b3480156104c457600080fd5b506102976104d3366004612b0f565b611129565b3480156104e457600080fd5b506102976104f3366004612a96565b611134565b34801561050457600080fd5b50610297610513366004612b72565b61116c565b34801561052457600080fd5b50610232610533366004612c21565b61120c565b34801561054457600080fd5b50610297610553366004612a0f565b611217565b34801561056457600080fd5b5061025f610573366004612c93565b611265565b34801561058457600080fd5b506102aa7f9f2df0fed2c77648de5860a4cc508cd0818c85b8b8a1ab4ceeef8d981c8956a681565b3480156105b857600080fd5b506102976105c7366004612c39565b6112ea565b3480156105d857600080fd5b506102086105e7366004612a29565b6001600160a01b03918216600090815260056020908152604080832093909416825291909152205460ff1690565b34801561062157600080fd5b50610297610630366004612a0f565b611310565b6000610640826113ab565b8061064f575061064f826113fb565b92915050565b6060600080546106649061311c565b80601f01602080910402602001604051908101604052809291908181526020018280546106909061311c565b80156106dd5780601f106106b2576101008083540402835291602001916106dd565b820191906000526020600020905b8154815290600101906020018083116106c057829003601f168201915b5050505050905090565b60006106f282611420565b6107585760405162461bcd60e51b815260206004820152602c60248201527f4552433732313a20617070726f76656420717565727920666f72206e6f6e657860448201526b34b9ba32b73a103a37b5b2b760a11b60648201526084015b60405180910390fd5b506000908152600460205260409020546001600160a01b031690565b600061077f82610afc565b9050806001600160a01b0316836001600160a01b031614156107ed5760405162461bcd60e51b815260206004820152602160248201527f4552433732313a20617070726f76616c20746f2063757272656e74206f776e656044820152603960f91b606482015260840161074f565b336001600160a01b0382161480610809575061080981336105e7565b61087b5760405162461bcd60e51b815260206004820152603860248201527f4552433732313a20617070726f76652063616c6c6572206973206e6f74206f7760448201527f6e6572206e6f7220617070726f76656420666f7220616c6c0000000000000000606482015260840161074f565b610885838361143d565b505050565b61089433826114ab565b6108b05760405162461bcd60e51b815260040161074f90612fb0565b610885838383611591565b6000828152600760205260409020600101546108d7813361173c565b61088583836117a0565b60006108ec83610b73565b821061094e5760405162461bcd60e51b815260206004820152602b60248201527f455243373231456e756d657261626c653a206f776e657220696e646578206f7560448201526a74206f6620626f756e647360a81b606482015260840161074f565b506001600160a01b03919091166000908152600960209081526040808320938352929052205490565b6001600160a01b03811633146109e75760405162461bcd60e51b815260206004820152602f60248201527f416363657373436f6e74726f6c3a2063616e206f6e6c792072656e6f756e636560448201526e103937b632b9903337b91039b2b63360891b606482015260840161074f565b6109f18282611826565b5050565b6008546001600160a01b03163314610a1f5760405162461bcd60e51b815260040161074f90612f7b565b6001600160a01b03166000908152601560205260409020805460ff19169055565b61088583838360405180602001604052806000815250611134565b6000610a66600b5490565b8210610ac95760405162461bcd60e51b815260206004820152602c60248201527f455243373231456e756d657261626c653a20676c6f62616c20696e646578206f60448201526b7574206f6620626f756e647360a01b606482015260840161074f565b600b8281548110610aea57634e487b7160e01b600052603260045260246000fd5b90600052602060002001549050919050565b6000818152600260205260408120546001600160a01b03168061064f5760405162461bcd60e51b815260206004820152602960248201527f4552433732313a206f776e657220717565727920666f72206e6f6e657869737460448201526832b73a103a37b5b2b760b91b606482015260840161074f565b60006001600160a01b038216610bde5760405162461bcd60e51b815260206004820152602a60248201527f4552433732313a2062616c616e636520717565727920666f7220746865207a65604482015269726f206164647265737360b01b606482015260840161074f565b506001600160a01b031660009081526003602052604090205490565b6008546001600160a01b03163314610c245760405162461bcd60e51b815260040161074f90612f7b565b610c2e600061188d565b565b828514610c7f5760405162461bcd60e51b815260206004820152601a60248201527f496e76616c6964206e756d626572206f66206d65737361676573000000000000604482015260640161074f565b84600e54610c8d91906130a3565b3414610cce5760405162461bcd60e51b815260206004820152601060248201526f6e6f7420656e6f756768206d6f6e657960801b604482015260640161074f565b61271085610cdb600b5490565b610ce59190613077565b1115610d245760405162461bcd60e51b815260206004820152600e60248201526d06f766572207468652031303030360941b604482015260640161074f565b60005b85811015610ecf576000610d98868684818110610d5457634e487b7160e01b600052603260045260246000fd5b9050602002810190610d669190613001565b868686818110610d8657634e487b7160e01b600052603260045260246000fd5b90506020028101906105739190613001565b9050610dc47f9f2df0fed2c77648de5860a4cc508cd0818c85b8b8a1ab4ceeef8d981c8956a6826110ef565b610e1a5760405162461bcd60e51b815260206004820152602160248201527f5369676e617475726520696e76616c6964206f7220756e617574686f72697a656044820152601960fa1b606482015260840161074f565b610e28600d80546001019055565b6000610e33600d5490565b9050610e3f82826118df565b610eaf81888886818110610e6357634e487b7160e01b600052603260045260246000fd5b9050602002810190610e759190613001565b8080601f016020809104026020016040519081016040528093929190818152602001838380828437600092019190915250611a1e92505050565b610eba823383611591565b50508080610ec790613157565b915050610d27565b50336000908152601560205260408120548190819060ff1615610f0057601254925060135491506014549050610f10565b600f549250601054915060115490505b6016546000906001600160a01b0316612710610f2c86346130a3565b610f36919061308f565b604051600081818185875af1925050503d8060008114610f72576040519150601f19603f3d011682016040523d82523d6000602084013e610f77565b606091505b5050905080610f985760405162461bcd60e51b815260040161074f90612f4d565b6017546001600160a01b0316612710610fb185346130a3565b610fbb919061308f565b604051600081818185875af1925050503d8060008114610ff7576040519150601f19603f3d011682016040523d82523d6000602084013e610ffc565b606091505b5050809150508061101f5760405162461bcd60e51b815260040161074f90612f4d565b6018546001600160a01b031661271061103884346130a3565b611042919061308f565b604051600081818185875af1925050503d806000811461107e576040519150601f19603f3d011682016040523d82523d6000602084013e611083565b606091505b505080915050806110a65760405162461bcd60e51b815260040161074f90612f4d565b505050505050505050565b6008546001600160a01b031633146110db5760405162461bcd60e51b815260040161074f90612f7b565b6110e533836118df565b6109f18282611a1e565b60009182526007602090815260408084206001600160a01b0393909316845291905290205460ff1690565b6060600180546106649061311c565b6109f1338383611aa9565b61113e33836114ab565b61115a5760405162461bcd60e51b815260040161074f90612fb0565b61116684848484611b78565b50505050565b6008546001600160a01b031633146111965760405162461bcd60e51b815260040161074f90612f7b565b60005b81518110156109f1576001601560008484815181106111c857634e487b7160e01b600052603260045260246000fd5b6020908102919091018101516001600160a01b03168252810191909152604001600020805460ff19169115159190911790558061120481613157565b915050611199565b606061064f82611bab565b6008546001600160a01b031633146112415760405162461bcd60e51b815260040161074f90612f7b565b6001600160a01b03166000908152601560205260409020805460ff19166001179055565b600080858560405160200161127b929190612df7565b6040516020818303038152906040528051906020012090506112de84848080601f0160208091040260200160405190810160405280939291908181526020018383808284376000920191909152506112d89250859150611d1a9050565b90611d6d565b9150505b949350505050565b600082815260076020526040902060010154611306813361173c565b6108858383611826565b6008546001600160a01b0316331461133a5760405162461bcd60e51b815260040161074f90612f7b565b6001600160a01b03811661139f5760405162461bcd60e51b815260206004820152602660248201527f4f776e61626c653a206e6577206f776e657220697320746865207a65726f206160448201526564647265737360d01b606482015260840161074f565b6113a88161188d565b50565b60006001600160e01b031982166380ac58cd60e01b14806113dc57506001600160e01b03198216635b5e139f60e01b145b8061064f57506301ffc9a760e01b6001600160e01b031983161461064f565b60006001600160e01b03198216637965db0b60e01b148061064f575061064f826113ab565b6000908152600260205260409020546001600160a01b0316151590565b600081815260046020526040902080546001600160a01b0319166001600160a01b038416908117909155819061147282610afc565b6001600160a01b03167f8c5be1e5ebec7d5bd14f71427d1e84f3dd0314c0f7b2291e5b200ac8c7c3b92560405160405180910390a45050565b60006114b682611420565b6115175760405162461bcd60e51b815260206004820152602c60248201527f4552433732313a206f70657261746f7220717565727920666f72206e6f6e657860448201526b34b9ba32b73a103a37b5b2b760a11b606482015260840161074f565b600061152283610afc565b9050806001600160a01b0316846001600160a01b0316148061155d5750836001600160a01b0316611552846106e7565b6001600160a01b0316145b806112e257506001600160a01b0380821660009081526005602090815260408083209388168352929052205460ff166112e2565b826001600160a01b03166115a482610afc565b6001600160a01b03161461160c5760405162461bcd60e51b815260206004820152602960248201527f4552433732313a207472616e73666572206f6620746f6b656e2074686174206960448201526839903737ba1037bbb760b91b606482015260840161074f565b6001600160a01b03821661166e5760405162461bcd60e51b8152602060048201526024808201527f4552433732313a207472616e7366657220746f20746865207a65726f206164646044820152637265737360e01b606482015260840161074f565b611679838383611d91565b61168460008261143d565b6001600160a01b03831660009081526003602052604081208054600192906116ad9084906130c2565b90915550506001600160a01b03821660009081526003602052604081208054600192906116db908490613077565b909155505060008181526002602052604080822080546001600160a01b0319166001600160a01b0386811691821790925591518493918716917fddf252ad1be2c89b69c2b068fc378daa952ba7f163c4a11628f55a4df523b3ef91a4505050565b61174682826110ef565b6109f15761175e816001600160a01b03166014611d9c565b611769836020611d9c565b60405160200161177a929190612e36565b60408051601f198184030181529082905262461bcd60e51b825261074f91600401612ee8565b6117aa82826110ef565b6109f15760008281526007602090815260408083206001600160a01b03851684529091529020805460ff191660011790556117e23390565b6001600160a01b0316816001600160a01b0316837f2f8788117e7eff1d82e926ec794901d17c78024a50270940304540a733656f0d60405160405180910390a45050565b61183082826110ef565b156109f15760008281526007602090815260408083206001600160a01b0385168085529252808320805460ff1916905551339285917ff6391f5c32d9c69d2a47ea670b442974b53935d1edc7fd64eb21e047a839171b9190a45050565b600880546001600160a01b038381166001600160a01b0319831681179093556040519116919082907f8be0079c531659141344cd1fd0a4f28419497f9722a3daafe3b4186f6b6457e090600090a35050565b6001600160a01b0382166119355760405162461bcd60e51b815260206004820181905260248201527f4552433732313a206d696e7420746f20746865207a65726f2061646472657373604482015260640161074f565b61193e81611420565b1561198b5760405162461bcd60e51b815260206004820152601c60248201527f4552433732313a20746f6b656e20616c7265616479206d696e74656400000000604482015260640161074f565b61199760008383611d91565b6001600160a01b03821660009081526003602052604081208054600192906119c0908490613077565b909155505060008181526002602052604080822080546001600160a01b0319166001600160a01b03861690811790915590518392907fddf252ad1be2c89b69c2b068fc378daa952ba7f163c4a11628f55a4df523b3ef908290a45050565b611a2782611420565b611a8a5760405162461bcd60e51b815260206004820152602e60248201527f45524337323155524953746f726167653a2055524920736574206f66206e6f6e60448201526d32bc34b9ba32b73a103a37b5b2b760911b606482015260840161074f565b600082815260066020908152604090912082516108859284019061287f565b816001600160a01b0316836001600160a01b03161415611b0b5760405162461bcd60e51b815260206004820152601960248201527f4552433732313a20617070726f766520746f2063616c6c657200000000000000604482015260640161074f565b6001600160a01b03838116600081815260056020908152604080832094871680845294825291829020805460ff191686151590811790915591519182527f17307eab39ab6107e8899845ad3d59bd9653f200f220920489ca2b5937696c31910160405180910390a3505050565b611b83848484611591565b611b8f84848484611f85565b6111665760405162461bcd60e51b815260040161074f90612efb565b6060611bb682611420565b611c1c5760405162461bcd60e51b815260206004820152603160248201527f45524337323155524953746f726167653a2055524920717565727920666f72206044820152703737b732bc34b9ba32b73a103a37b5b2b760791b606482015260840161074f565b60008281526006602052604081208054611c359061311c565b80601f0160208091040260200160405190810160405280929190818152602001828054611c619061311c565b8015611cae5780601f10611c8357610100808354040283529160200191611cae565b820191906000526020600020905b815481529060010190602001808311611c9157829003601f168201915b505050505090506000611ccc60408051602081019091526000815290565b9050805160001415611cdf575092915050565b815115611d11578082604051602001611cf9929190612e07565b60405160208183030381529060405292505050919050565b6112e28461208f565b6040517f19457468657265756d205369676e6564204d6573736167653a0a3332000000006020820152603c8101829052600090605c01604051602081830303815290604052805190602001209050919050565b6000806000611d7c8585612166565b91509150611d89816121d6565b509392505050565b6108858383836123d7565b60606000611dab8360026130a3565b611db6906002613077565b67ffffffffffffffff811115611ddc57634e487b7160e01b600052604160045260246000fd5b6040519080825280601f01601f191660200182016040528015611e06576020820181803683370190505b509050600360fc1b81600081518110611e2f57634e487b7160e01b600052603260045260246000fd5b60200101906001600160f81b031916908160001a905350600f60fb1b81600181518110611e6c57634e487b7160e01b600052603260045260246000fd5b60200101906001600160f81b031916908160001a9053506000611e908460026130a3565b611e9b906001613077565b90505b6001811115611f2f576f181899199a1a9b1b9c1cb0b131b232b360811b85600f1660108110611edd57634e487b7160e01b600052603260045260246000fd5b1a60f81b828281518110611f0157634e487b7160e01b600052603260045260246000fd5b60200101906001600160f81b031916908160001a90535060049490941c93611f2881613105565b9050611e9e565b508315611f7e5760405162461bcd60e51b815260206004820181905260248201527f537472696e67733a20686578206c656e67746820696e73756666696369656e74604482015260640161074f565b9392505050565b60006001600160a01b0384163b1561208757604051630a85bd0160e11b81526001600160a01b0385169063150b7a0290611fc9903390899088908890600401612eab565b602060405180830381600087803b158015611fe357600080fd5b505af1925050508015612013575060408051601f3d908101601f1916820190925261201091810190612c77565b60015b61206d573d808015612041576040519150601f19603f3d011682016040523d82523d6000602084013e612046565b606091505b5080516120655760405162461bcd60e51b815260040161074f90612efb565b805181602001fd5b6001600160e01b031916630a85bd0160e11b1490506112e2565b5060016112e2565b606061209a82611420565b6120fe5760405162461bcd60e51b815260206004820152602f60248201527f4552433732314d657461646174613a2055524920717565727920666f72206e6f60448201526e3732bc34b9ba32b73a103a37b5b2b760891b606482015260840161074f565b600061211560408051602081019091526000815290565b905060008151116121355760405180602001604052806000815250611f7e565b8061213f8461248f565b604051602001612150929190612e07565b6040516020818303038152906040529392505050565b60008082516041141561219d5760208301516040840151606085015160001a612191878285856125a9565b945094505050506121cf565b8251604014156121c757602083015160408401516121bc868383612696565b9350935050506121cf565b506000905060025b9250929050565b60008160048111156121f857634e487b7160e01b600052602160045260246000fd5b14156122015750565b600181600481111561222357634e487b7160e01b600052602160045260246000fd5b14156122715760405162461bcd60e51b815260206004820152601860248201527f45434453413a20696e76616c6964207369676e61747572650000000000000000604482015260640161074f565b600281600481111561229357634e487b7160e01b600052602160045260246000fd5b14156122e15760405162461bcd60e51b815260206004820152601f60248201527f45434453413a20696e76616c6964207369676e6174757265206c656e67746800604482015260640161074f565b600381600481111561230357634e487b7160e01b600052602160045260246000fd5b141561235c5760405162461bcd60e51b815260206004820152602260248201527f45434453413a20696e76616c6964207369676e6174757265202773272076616c604482015261756560f01b606482015260840161074f565b600481600481111561237e57634e487b7160e01b600052602160045260246000fd5b14156113a85760405162461bcd60e51b815260206004820152602260248201527f45434453413a20696e76616c6964207369676e6174757265202776272076616c604482015261756560f01b606482015260840161074f565b6001600160a01b0383166124325761242d81600b80546000838152600c60205260408120829055600182018355919091527f0175b7a638427703f0dbe7bb9bbf987a2551717b34e79f33b5b1008d1fa01db90155565b612455565b816001600160a01b0316836001600160a01b0316146124555761245583826126c5565b6001600160a01b03821661246c5761088581612762565b826001600160a01b0316826001600160a01b03161461088557610885828261283b565b6060816124b35750506040805180820190915260018152600360fc1b602082015290565b8160005b81156124dd57806124c781613157565b91506124d69050600a8361308f565b91506124b7565b60008167ffffffffffffffff81111561250657634e487b7160e01b600052604160045260246000fd5b6040519080825280601f01601f191660200182016040528015612530576020820181803683370190505b5090505b84156112e2576125456001836130c2565b9150612552600a86613172565b61255d906030613077565b60f81b81838151811061258057634e487b7160e01b600052603260045260246000fd5b60200101906001600160f81b031916908160001a9053506125a2600a8661308f565b9450612534565b6000807f7fffffffffffffffffffffffffffffff5d576e7357a4501ddfe92f46681b20a08311156125e0575060009050600361268d565b8460ff16601b141580156125f857508460ff16601c14155b15612609575060009050600461268d565b6040805160008082526020820180845289905260ff881692820192909252606081018690526080810185905260019060a0016020604051602081039080840390855afa15801561265d573d6000803e3d6000fd5b5050604051601f1901519150506001600160a01b0381166126865760006001925092505061268d565b9150600090505b94509492505050565b6000806001600160ff1b03831660ff84901c601b016126b7878288856125a9565b935093505050935093915050565b600060016126d284610b73565b6126dc91906130c2565b6000838152600a602052604090205490915080821461272f576001600160a01b03841660009081526009602090815260408083208584528252808320548484528184208190558352600a90915290208190555b506000918252600a602090815260408084208490556001600160a01b039094168352600981528383209183525290812055565b600b54600090612774906001906130c2565b6000838152600c6020526040812054600b80549394509092849081106127aa57634e487b7160e01b600052603260045260246000fd5b9060005260206000200154905080600b83815481106127d957634e487b7160e01b600052603260045260246000fd5b6000918252602080832090910192909255828152600c9091526040808220849055858252812055600b80548061281f57634e487b7160e01b600052603160045260246000fd5b6001900381819060005260206000200160009055905550505050565b600061284683610b73565b6001600160a01b0390931660009081526009602090815260408083208684528252808320859055938252600a9052919091209190915550565b82805461288b9061311c565b90600052602060002090601f0160209004810192826128ad57600085556128f3565b82601f106128c657805160ff19168380011785556128f3565b828001600101855582156128f3579182015b828111156128f35782518255916020019190600101906128d8565b506128ff929150612903565b5090565b5b808211156128ff5760008155600101612904565b600067ffffffffffffffff831115612932576129326131b2565b612945601f8401601f1916602001613046565b905082815283838301111561295957600080fd5b828260208301376000602084830101529392505050565b80356001600160a01b038116811461298757600080fd5b919050565b60008083601f84011261299d578182fd5b50813567ffffffffffffffff8111156129b4578182fd5b6020830191508360208260051b85010111156121cf57600080fd5b60008083601f8401126129e0578182fd5b50813567ffffffffffffffff8111156129f7578182fd5b6020830191508360208285010111156121cf57600080fd5b600060208284031215612a20578081fd5b611f7e82612970565b60008060408385031215612a3b578081fd5b612a4483612970565b9150612a5260208401612970565b90509250929050565b600080600060608486031215612a6f578081fd5b612a7884612970565b9250612a8660208501612970565b9150604084013590509250925092565b60008060008060808587031215612aab578081fd5b612ab485612970565b9350612ac260208601612970565b925060408501359150606085013567ffffffffffffffff811115612ae4578182fd5b8501601f81018713612af4578182fd5b612b0387823560208401612918565b91505092959194509250565b60008060408385031215612b21578182fd5b612b2a83612970565b915060208301358015158114612b3e578182fd5b809150509250929050565b60008060408385031215612b5b578182fd5b612b6483612970565b946020939093013593505050565b60006020808385031215612b84578182fd5b823567ffffffffffffffff80821115612b9b578384fd5b818501915085601f830112612bae578384fd5b813581811115612bc057612bc06131b2565b8060051b9150612bd1848301613046565b8181528481019084860184860187018a1015612beb578788fd5b8795505b83861015612c1457612c0081612970565b835260019590950194918601918601612bef565b5098975050505050505050565b600060208284031215612c32578081fd5b5035919050565b60008060408385031215612c4b578081fd5b82359150612a5260208401612970565b600060208284031215612c6c578081fd5b8135611f7e816131c8565b600060208284031215612c88578081fd5b8151611f7e816131c8565b60008060008060408587031215612ca8578182fd5b843567ffffffffffffffff80821115612cbf578384fd5b612ccb888389016129cf565b90965094506020870135915080821115612ce3578384fd5b50612cf0878288016129cf565b95989497509550505050565b600080600080600060608688031215612d13578283fd5b85359450602086013567ffffffffffffffff80821115612d31578485fd5b612d3d89838a0161298c565b90965094506040880135915080821115612d55578283fd5b50612d628882890161298c565b969995985093965092949392505050565b60008060408385031215612d85578182fd5b82359150602083013567ffffffffffffffff811115612da2578182fd5b8301601f81018513612db2578182fd5b612dc185823560208401612918565b9150509250929050565b60008151808452612de38160208601602086016130d9565b601f01601f19169290920160200192915050565b8183823760009101908152919050565b60008351612e198184602088016130d9565b835190830190612e2d8183602088016130d9565b01949350505050565b7f416363657373436f6e74726f6c3a206163636f756e7420000000000000000000815260008351612e6e8160178501602088016130d9565b7001034b99036b4b9b9b4b733903937b6329607d1b6017918401918201528351612e9f8160288401602088016130d9565b01602801949350505050565b6001600160a01b0385811682528416602082015260408101839052608060608201819052600090612ede90830184612dcb565b9695505050505050565b602081526000611f7e6020830184612dcb565b60208082526032908201527f4552433732313a207472616e7366657220746f206e6f6e20455243373231526560408201527131b2b4bb32b91034b6b83632b6b2b73a32b960711b606082015260800190565b6020808252601490820152732330b4b632b2103a379039b2b7321022ba3432b960611b604082015260600190565b6020808252818101527f4f776e61626c653a2063616c6c6572206973206e6f7420746865206f776e6572604082015260600190565b60208082526031908201527f4552433732313a207472616e736665722063616c6c6572206973206e6f74206f6040820152701ddb995c881b9bdc88185c1c1c9bdd9959607a1b606082015260800190565b6000808335601e19843603018112613017578283fd5b83018035915067ffffffffffffffff821115613031578283fd5b6020019150368190038213156121cf57600080fd5b604051601f8201601f1916810167ffffffffffffffff8111828210171561306f5761306f6131b2565b604052919050565b6000821982111561308a5761308a613186565b500190565b60008261309e5761309e61319c565b500490565b60008160001904831182151516156130bd576130bd613186565b500290565b6000828210156130d4576130d4613186565b500390565b60005b838110156130f45781810151838201526020016130dc565b838111156111665750506000910152565b60008161311457613114613186565b506000190190565b600181811c9082168061313057607f821691505b6020821081141561315157634e487b7160e01b600052602260045260246000fd5b50919050565b600060001982141561316b5761316b613186565b5060010190565b6000826131815761318161319c565b500690565b634e487b7160e01b600052601160045260246000fd5b634e487b7160e01b600052601260045260246000fd5b634e487b7160e01b600052604160045260246000fd5b6001600160e01b0319811681146113a857600080fdfea264697066735822122027d550bcfd2c4c92d2ca13792a71e9332524ebca5fcc5971ee8a670b5cce3da064736f6c63430008040033",
  "linkReferences": {},
  "deployedLinkReferences": {}
}