{
  "_format": "hh-sol-artifact-1",
  "contractName": "Lazy",
  "sourceName": "contracts/Lazy.sol",
  "abi": [
    {
      "inputs": [
        {
          "internalType": "address payable",
          "name": "minter",
          "type": "address"
        }
      ],
      "stateMutability": "nonpayable",
      "type": "constructor"
    },
    {
      "anonymous": false,
      "inputs": [
        {
          "indexed": true,
          "internalType": "address",
          "name": "owner",
          "type": "address"
        },
        {
          "indexed": true,
          "internalType": "address",
          "name": "approved",
          "type": "address"
        },
        {
          "indexed": true,
          "internalType": "uint256",
          "name": "tokenId",
          "type": "uint256"
        }
      ],
      "name": "Approval",
      "type": "event"
    },
    {
      "anonymous": false,
      "inputs": [
        {
          "indexed": true,
          "internalType": "address",
          "name": "owner",
          "type": "address"
        },
        {
          "indexed": true,
          "internalType": "address",
          "name": "operator",
          "type": "address"
        },
        {
          "indexed": false,
          "internalType": "bool",
          "name": "approved",
          "type": "bool"
        }
      ],
      "name": "ApprovalForAll",
      "type": "event"
    },
    {
      "anonymous": false,
      "inputs": [
        {
          "indexed": true,
          "internalType": "address",
          "name": "previousOwner",
          "type": "address"
        },
        {
          "indexed": true,
          "internalType": "address",
          "name": "newOwner",
          "type": "address"
        }
      ],
      "name": "OwnershipTransferred",
      "type": "event"
    },
    {
      "anonymous": false,
      "inputs": [
        {
          "indexed": true,
          "internalType": "bytes32",
          "name": "role",
          "type": "bytes32"
        },
        {
          "indexed": true,
          "internalType": "bytes32",
          "name": "previousAdminRole",
          "type": "bytes32"
        },
        {
          "indexed": true,
          "internalType": "bytes32",
          "name": "newAdminRole",
          "type": "bytes32"
        }
      ],
      "name": "RoleAdminChanged",
      "type": "event"
    },
    {
      "anonymous": false,
      "inputs": [
        {
          "indexed": true,
          "internalType": "bytes32",
          "name": "role",
          "type": "bytes32"
        },
        {
          "indexed": true,
          "internalType": "address",
          "name": "account",
          "type": "address"
        },
        {
          "indexed": true,
          "internalType": "address",
          "name": "sender",
          "type": "address"
        }
      ],
      "name": "RoleGranted",
      "type": "event"
    },
    {
      "anonymous": false,
      "inputs": [
        {
          "indexed": true,
          "internalType": "bytes32",
          "name": "role",
          "type": "bytes32"
        },
        {
          "indexed": true,
          "internalType": "address",
          "name": "account",
          "type": "address"
        },
        {
          "indexed": true,
          "internalType": "address",
          "name": "sender",
          "type": "address"
        }
      ],
      "name": "RoleRevoked",
      "type": "event"
    },
    {
      "anonymous": false,
      "inputs": [
        {
          "indexed": true,
          "internalType": "address",
          "name": "from",
          "type": "address"
        },
        {
          "indexed": true,
          "internalType": "address",
          "name": "to",
          "type": "address"
        },
        {
          "indexed": true,
          "internalType": "uint256",
          "name": "tokenId",
          "type": "uint256"
        }
      ],
      "name": "Transfer",
      "type": "event"
    },
    {
      "inputs": [],
      "name": "DEFAULT_ADMIN_ROLE",
      "outputs": [
        {
          "internalType": "bytes32",
          "name": "",
          "type": "bytes32"
        }
      ],
      "stateMutability": "view",
      "type": "function"
    },
    {
      "inputs": [],
      "name": "MINTER_ROLE",
      "outputs": [
        {
          "internalType": "bytes32",
          "name": "",
          "type": "bytes32"
        }
      ],
      "stateMutability": "view",
      "type": "function"
    },
    {
      "inputs": [
        {
          "internalType": "string",
          "name": "message",
          "type": "string"
        },
        {
          "internalType": "bytes",
          "name": "sign",
          "type": "bytes"
        }
      ],
      "name": "_verify",
      "outputs": [
        {
          "internalType": "address",
          "name": "",
          "type": "address"
        }
      ],
      "stateMutability": "pure",
      "type": "function"
    },
    {
      "inputs": [
        {
          "internalType": "address",
          "name": "user",
          "type": "address"
        }
      ],
      "name": "addWhitelistuser",
      "outputs": [],
      "stateMutability": "nonpayable",
      "type": "function"
    },
    {
      "inputs": [
        {
          "internalType": "address",
          "name": "to",
          "type": "address"
        },
        {
          "internalType": "uint256",
          "name": "tokenId",
          "type": "uint256"
        }
      ],
      "name": "approve",
      "outputs": [],
      "stateMutability": "nonpayable",
      "type": "function"
    },
    {
      "inputs": [
        {
          "internalType": "address",
          "name": "owner",
          "type": "address"
        }
      ],
      "name": "balanceOf",
      "outputs": [
        {
          "internalType": "uint256",
          "name": "",
          "type": "uint256"
        }
      ],
      "stateMutability": "view",
      "type": "function"
    },
    {
      "inputs": [
        {
          "internalType": "uint256",
          "name": "tokenId",
          "type": "uint256"
        }
      ],
      "name": "getApproved",
      "outputs": [
        {
          "internalType": "address",
          "name": "",
          "type": "address"
        }
      ],
      "stateMutability": "view",
      "type": "function"
    },
    {
      "inputs": [
        {
          "internalType": "bytes32",
          "name": "role",
          "type": "bytes32"
        }
      ],
      "name": "getRoleAdmin",
      "outputs": [
        {
          "internalType": "bytes32",
          "name": "",
          "type": "bytes32"
        }
      ],
      "stateMutability": "view",
      "type": "function"
    },
    {
      "inputs": [
        {
          "internalType": "bytes32",
          "name": "role",
          "type": "bytes32"
        },
        {
          "internalType": "address",
          "name": "account",
          "type": "address"
        }
      ],
      "name": "grantRole",
      "outputs": [],
      "stateMutability": "nonpayable",
      "type": "function"
    },
    {
      "inputs": [
        {
          "internalType": "bytes32",
          "name": "role",
          "type": "bytes32"
        },
        {
          "internalType": "address",
          "name": "account",
          "type": "address"
        }
      ],
      "name": "hasRole",
      "outputs": [
        {
          "internalType": "bool",
          "name": "",
          "type": "bool"
        }
      ],
      "stateMutability": "view",
      "type": "function"
    },
    {
      "inputs": [
        {
          "internalType": "address",
          "name": "owner",
          "type": "address"
        },
        {
          "internalType": "address",
          "name": "operator",
          "type": "address"
        }
      ],
      "name": "isApprovedForAll",
      "outputs": [
        {
          "internalType": "bool",
          "name": "",
          "type": "bool"
        }
      ],
      "stateMutability": "view",
      "type": "function"
    },
    {
      "inputs": [
        {
          "internalType": "string",
          "name": "message",
          "type": "string"
        },
        {
          "internalType": "bytes",
          "name": "sign",
          "type": "bytes"
        }
      ],
      "name": "mintToken",
      "outputs": [],
      "stateMutability": "payable",
      "type": "function"
    },
    {
      "inputs": [],
      "name": "name",
      "outputs": [
        {
          "internalType": "string",
          "name": "",
          "type": "string"
        }
      ],
      "stateMutability": "view",
      "type": "function"
    },
    {
      "inputs": [],
      "name": "owner",
      "outputs": [
        {
          "internalType": "address",
          "name": "",
          "type": "address"
        }
      ],
      "stateMutability": "view",
      "type": "function"
    },
    {
      "inputs": [
        {
          "internalType": "uint256",
          "name": "tokenId",
          "type": "uint256"
        }
      ],
      "name": "ownerOf",
      "outputs": [
        {
          "internalType": "address",
          "name": "",
          "type": "address"
        }
      ],
      "stateMutability": "view",
      "type": "function"
    },
    {
      "inputs": [
        {
          "internalType": "address",
          "name": "user",
          "type": "address"
        }
      ],
      "name": "removeWhitelistuser",
      "outputs": [],
      "stateMutability": "nonpayable",
      "type": "function"
    },
    {
      "inputs": [],
      "name": "renounceOwnership",
      "outputs": [],
      "stateMutability": "nonpayable",
      "type": "function"
    },
    {
      "inputs": [
        {
          "internalType": "bytes32",
          "name": "role",
          "type": "bytes32"
        },
        {
          "internalType": "address",
          "name": "account",
          "type": "address"
        }
      ],
      "name": "renounceRole",
      "outputs": [],
      "stateMutability": "nonpayable",
      "type": "function"
    },
    {
      "inputs": [
        {
          "internalType": "bytes32",
          "name": "role",
          "type": "bytes32"
        },
        {
          "internalType": "address",
          "name": "account",
          "type": "address"
        }
      ],
      "name": "revokeRole",
      "outputs": [],
      "stateMutability": "nonpayable",
      "type": "function"
    },
    {
      "inputs": [
        {
          "internalType": "address",
          "name": "from",
          "type": "address"
        },
        {
          "internalType": "address",
          "name": "to",
          "type": "address"
        },
        {
          "internalType": "uint256",
          "name": "tokenId",
          "type": "uint256"
        }
      ],
      "name": "safeTransferFrom",
      "outputs": [],
      "stateMutability": "nonpayable",
      "type": "function"
    },
    {
      "inputs": [
        {
          "internalType": "address",
          "name": "from",
          "type": "address"
        },
        {
          "internalType": "address",
          "name": "to",
          "type": "address"
        },
        {
          "internalType": "uint256",
          "name": "tokenId",
          "type": "uint256"
        },
        {
          "internalType": "bytes",
          "name": "_data",
          "type": "bytes"
        }
      ],
      "name": "safeTransferFrom",
      "outputs": [],
      "stateMutability": "nonpayable",
      "type": "function"
    },
    {
      "inputs": [
        {
          "internalType": "address",
          "name": "operator",
          "type": "address"
        },
        {
          "internalType": "bool",
          "name": "approved",
          "type": "bool"
        }
      ],
      "name": "setApprovalForAll",
      "outputs": [],
      "stateMutability": "nonpayable",
      "type": "function"
    },
    {
      "inputs": [
        {
          "internalType": "bytes4",
          "name": "interfaceId",
          "type": "bytes4"
        }
      ],
      "name": "supportsInterface",
      "outputs": [
        {
          "internalType": "bool",
          "name": "",
          "type": "bool"
        }
      ],
      "stateMutability": "view",
      "type": "function"
    },
    {
      "inputs": [],
      "name": "symbol",
      "outputs": [
        {
          "internalType": "string",
          "name": "",
          "type": "string"
        }
      ],
      "stateMutability": "view",
      "type": "function"
    },
    {
      "inputs": [
        {
          "internalType": "uint256",
          "name": "index",
          "type": "uint256"
        }
      ],
      "name": "tokenByIndex",
      "outputs": [
        {
          "internalType": "uint256",
          "name": "",
          "type": "uint256"
        }
      ],
      "stateMutability": "view",
      "type": "function"
    },
    {
      "inputs": [
        {
          "internalType": "address",
          "name": "owner",
          "type": "address"
        },
        {
          "internalType": "uint256",
          "name": "index",
          "type": "uint256"
        }
      ],
      "name": "tokenOfOwnerByIndex",
      "outputs": [
        {
          "internalType": "uint256",
          "name": "",
          "type": "uint256"
        }
      ],
      "stateMutability": "view",
      "type": "function"
    },
    {
      "inputs": [
        {
          "internalType": "uint256",
          "name": "tokenId",
          "type": "uint256"
        }
      ],
      "name": "tokenURI",
      "outputs": [
        {
          "internalType": "string",
          "name": "",
          "type": "string"
        }
      ],
      "stateMutability": "view",
      "type": "function"
    },
    {
      "inputs": [],
      "name": "totalSupply",
      "outputs": [
        {
          "internalType": "uint256",
          "name": "",
          "type": "uint256"
        }
      ],
      "stateMutability": "view",
      "type": "function"
    },
    {
      "inputs": [
        {
          "internalType": "address",
          "name": "from",
          "type": "address"
        },
        {
          "internalType": "address",
          "name": "to",
          "type": "address"
        },
        {
          "internalType": "uint256",
          "name": "tokenId",
          "type": "uint256"
        }
      ],
      "name": "transferFrom",
      "outputs": [],
      "stateMutability": "nonpayable",
      "type": "function"
    },
    {
      "inputs": [
        {
          "internalType": "address",
          "name": "newOwner",
          "type": "address"
        }
      ],
      "name": "transferOwnership",
      "outputs": [],
      "stateMutability": "nonpayable",
      "type": "function"
    }
  ],
  "bytecode": "0x6101406040526703782dace9d90000600e5561206c600f556105dc60105560c860118190556116a8601255610fa0601355601455601680546001600160a01b0319908116735db8bb85d6065f95350d8ae3934d72ad0ab3ae7e179091556017805482167304d59d5699e1b28161ea972ffd81a6705bfeb8a317905560188054909116738ffaf9e4e61e4fbc5ba749be4498a08783b166b6179055348015620000a657600080fd5b506040516200320938038062003209833981016040819052620000c99162000409565b6040518060400160405280600f81526020016e2630bd3ca7232a16ab37bab1b432b960891b815250604051806040016040528060018152602001603160f81b8152506040518060400160405280601081526020016f4c415a592d4d494e5445445f424f495360801b815250604051806040016040528060048152602001634c415a5960e01b81525081600090805190602001906200016992919062000363565b5080516200017f90600190602084019062000363565b5050825160208085019190912083518483012060e08290526101008190524660a0818152604080517f8b73c3c69bb8fe3d512ecc4cf759cc79239f7b179b0ffacaa9a75d522b39400f81880181905281830187905260608201869052608082019490945230818401528151808203909301835260c0019052805194019390932091935091906080523060601b60c05261012052506200022a9250620002249150503390565b6200025d565b620002567f9f2df0fed2c77648de5860a4cc508cd0818c85b8b8a1ab4ceeef8d981c8956a682620002af565b5062000476565b600880546001600160a01b038381166001600160a01b0319831681179093556040519116919082907f8be0079c531659141344cd1fd0a4f28419497f9722a3daafe3b4186f6b6457e090600090a35050565b620002bb8282620002bf565b5050565b60008281526007602090815260408083206001600160a01b038516845290915290205460ff16620002bb5760008281526007602090815260408083206001600160a01b03851684529091529020805460ff191660011790556200031f3390565b6001600160a01b0316816001600160a01b0316837f2f8788117e7eff1d82e926ec794901d17c78024a50270940304540a733656f0d60405160405180910390a45050565b828054620003719062000439565b90600052602060002090601f016020900481019282620003955760008555620003e0565b82601f10620003b057805160ff1916838001178555620003e0565b82800160010185558215620003e0579182015b82811115620003e0578251825591602001919060010190620003c3565b50620003ee929150620003f2565b5090565b5b80821115620003ee5760008155600101620003f3565b6000602082840312156200041b578081fd5b81516001600160a01b038116811462000432578182fd5b9392505050565b600181811c908216806200044e57607f821691505b602082108114156200047057634e487b7160e01b600052602260045260246000fd5b50919050565b60805160a05160c05160601c60e0516101005161012051612d52620004b7600039600050506000505060005050600050506000505060005050612d526000f3fe6080604052600436106101cd5760003560e01c8063715018a6116100f7578063b88d4fde11610095578063d539139311610064578063d539139314610522578063d547741f14610556578063e985e9c514610576578063f2fde38b146105bf57600080fd5b8063b88d4fde146104a2578063c87b56dd146104c2578063cbf8127c146104e2578063d44d9d821461050257600080fd5b806395d89b41116100d157806395d89b4114610445578063a1fd16fc1461045a578063a217fddf1461046d578063a22cb4651461048257600080fd5b8063715018a6146103f25780638da5cb5b1461040757806391d148541461042557600080fd5b80632f2ff15d1161016f57806342842e0e1161013e57806342842e0e146103725780634f6ccce7146103925780636352211e146103b257806370a08231146103d257600080fd5b80632f2ff15d146102f25780632f745c591461031257806336568abe146103325780633fb2da5e1461035257600080fd5b8063095ea7b3116101ab578063095ea7b31461026157806318160ddd1461028357806323b872dd146102a2578063248a9ca3146102c257600080fd5b806301ffc9a7146101d257806306fdde0314610207578063081812fc14610229575b600080fd5b3480156101de57600080fd5b506101f26101ed3660046128de565b6105df565b60405190151581526020015b60405180910390f35b34801561021357600080fd5b5061021c6105ff565b6040516101fe9190612a9c565b34801561023557600080fd5b506102496102443660046128a4565b610691565b6040516001600160a01b0390911681526020016101fe565b34801561026d57600080fd5b5061028161027c36600461287b565b61071e565b005b34801561028f57600080fd5b50600b545b6040519081526020016101fe565b3480156102ae57600080fd5b506102816102bd366004612731565b610834565b3480156102ce57600080fd5b506102946102dd3660046128a4565b60009081526007602052604090206001015490565b3480156102fe57600080fd5b5061028161030d3660046128bc565b610865565b34801561031e57600080fd5b5061029461032d36600461287b565b61088b565b34801561033e57600080fd5b5061028161034d3660046128bc565b610921565b34801561035e57600080fd5b5061028161036d3660046126e5565b61099f565b34801561037e57600080fd5b5061028161038d366004612731565b6109ea565b34801561039e57600080fd5b506102946103ad3660046128a4565b610a05565b3480156103be57600080fd5b506102496103cd3660046128a4565b610aa6565b3480156103de57600080fd5b506102946103ed3660046126e5565b610b1d565b3480156103fe57600080fd5b50610281610ba4565b34801561041357600080fd5b506008546001600160a01b0316610249565b34801561043157600080fd5b506101f26104403660046128bc565b610bda565b34801561045157600080fd5b5061021c610c05565b610281610468366004612916565b610c14565b34801561047957600080fd5b50610294600081565b34801561048e57600080fd5b5061028161049d366004612841565b610f3a565b3480156104ae57600080fd5b506102816104bd36600461276c565b610f45565b3480156104ce57600080fd5b5061021c6104dd3660046128a4565b610f7d565b3480156104ee57600080fd5b506102816104fd3660046126e5565b610f88565b34801561050e57600080fd5b5061024961051d366004612916565b610fd6565b34801561052e57600080fd5b506102947f9f2df0fed2c77648de5860a4cc508cd0818c85b8b8a1ab4ceeef8d981c8956a681565b34801561056257600080fd5b506102816105713660046128bc565b61105b565b34801561058257600080fd5b506101f26105913660046126ff565b6001600160a01b03918216600090815260056020908152604080832093909416825291909152205460ff1690565b3480156105cb57600080fd5b506102816105da3660046126e5565b611081565b60006105ea8261111c565b806105f957506105f98261116c565b92915050565b60606000805461060e90612c5a565b80601f016020809104026020016040519081016040528092919081815260200182805461063a90612c5a565b80156106875780601f1061065c57610100808354040283529160200191610687565b820191906000526020600020905b81548152906001019060200180831161066a57829003601f168201915b5050505050905090565b600061069c82611191565b6107025760405162461bcd60e51b815260206004820152602c60248201527f4552433732313a20617070726f76656420717565727920666f72206e6f6e657860448201526b34b9ba32b73a103a37b5b2b760a11b60648201526084015b60405180910390fd5b506000908152600460205260409020546001600160a01b031690565b600061072982610aa6565b9050806001600160a01b0316836001600160a01b031614156107975760405162461bcd60e51b815260206004820152602160248201527f4552433732313a20617070726f76616c20746f2063757272656e74206f776e656044820152603960f91b60648201526084016106f9565b336001600160a01b03821614806107b357506107b38133610591565b6108255760405162461bcd60e51b815260206004820152603860248201527f4552433732313a20617070726f76652063616c6c6572206973206e6f74206f7760448201527f6e6572206e6f7220617070726f76656420666f7220616c6c000000000000000060648201526084016106f9565b61082f83836111ae565b505050565b61083e338261121c565b61085a5760405162461bcd60e51b81526004016106f990612b64565b61082f838383611302565b60008281526007602052604090206001015461088181336114ad565b61082f8383611511565b600061089683610b1d565b82106108f85760405162461bcd60e51b815260206004820152602b60248201527f455243373231456e756d657261626c653a206f776e657220696e646578206f7560448201526a74206f6620626f756e647360a81b60648201526084016106f9565b506001600160a01b03919091166000908152600960209081526040808320938352929052205490565b6001600160a01b03811633146109915760405162461bcd60e51b815260206004820152602f60248201527f416363657373436f6e74726f6c3a2063616e206f6e6c792072656e6f756e636560448201526e103937b632b9903337b91039b2b63360891b60648201526084016106f9565b61099b8282611597565b5050565b6008546001600160a01b031633146109c95760405162461bcd60e51b81526004016106f990612b2f565b6001600160a01b03166000908152601560205260409020805460ff19169055565b61082f83838360405180602001604052806000815250610f45565b6000610a10600b5490565b8210610a735760405162461bcd60e51b815260206004820152602c60248201527f455243373231456e756d657261626c653a20676c6f62616c20696e646578206f60448201526b7574206f6620626f756e647360a01b60648201526084016106f9565b600b8281548110610a9457634e487b7160e01b600052603260045260246000fd5b90600052602060002001549050919050565b6000818152600260205260408120546001600160a01b0316806105f95760405162461bcd60e51b815260206004820152602960248201527f4552433732313a206f776e657220717565727920666f72206e6f6e657869737460448201526832b73a103a37b5b2b760b91b60648201526084016106f9565b60006001600160a01b038216610b885760405162461bcd60e51b815260206004820152602a60248201527f4552433732313a2062616c616e636520717565727920666f7220746865207a65604482015269726f206164647265737360b01b60648201526084016106f9565b506001600160a01b031660009081526003602052604090205490565b6008546001600160a01b03163314610bce5760405162461bcd60e51b81526004016106f990612b2f565b610bd860006115fe565b565b60009182526007602090815260408084206001600160a01b0393909316845291905290205460ff1690565b60606001805461060e90612c5a565b6000610c2285858585610fd6565b9050610c4e7f9f2df0fed2c77648de5860a4cc508cd0818c85b8b8a1ab4ceeef8d981c8956a682610bda565b610ca45760405162461bcd60e51b815260206004820152602160248201527f5369676e617475726520696e76616c6964206f7220756e617574686f72697a656044820152601960fa1b60648201526084016106f9565b600e543414610ce85760405162461bcd60e51b815260206004820152601060248201526f6e6f7420656e6f756768206d6f6e657960801b60448201526064016106f9565b610cf6600d80546001019055565b6000610d01600d5490565b9050610d0d8282611650565b610d4d8187878080601f01602080910402602001604051908101604052809392919081815260200183838082843760009201919091525061178f92505050565b610d58823383611302565b336000908152601560205260408120548190819060ff1615610d8857601254925060135491506014549050610d98565b600f549250601054915060115490505b6016546000906001600160a01b0316612710610db48634612be1565b610dbe9190612bcd565b604051600081818185875af1925050503d8060008114610dfa576040519150601f19603f3d011682016040523d82523d6000602084013e610dff565b606091505b5050905080610e205760405162461bcd60e51b81526004016106f990612b01565b6017546001600160a01b0316612710610e398534612be1565b610e439190612bcd565b604051600081818185875af1925050503d8060008114610e7f576040519150601f19603f3d011682016040523d82523d6000602084013e610e84565b606091505b50508091505080610ea75760405162461bcd60e51b81526004016106f990612b01565b6018546001600160a01b0316612710610ec08434612be1565b610eca9190612bcd565b604051600081818185875af1925050503d8060008114610f06576040519150601f19603f3d011682016040523d82523d6000602084013e610f0b565b606091505b50508091505080610f2e5760405162461bcd60e51b81526004016106f990612b01565b50505050505050505050565b61099b33838361181a565b610f4f338361121c565b610f6b5760405162461bcd60e51b81526004016106f990612b64565b610f77848484846118e9565b50505050565b60606105f98261191c565b6008546001600160a01b03163314610fb25760405162461bcd60e51b81526004016106f990612b2f565b6001600160a01b03166000908152601560205260409020805460ff19166001179055565b6000808585604051602001610fec9291906129ab565b60405160208183030381529060405280519060200120905061104f84848080601f0160208091040260200160405190810160405280939291908181526020018383808284376000920191909152506110499250859150611a8b9050565b90611ade565b9150505b949350505050565b60008281526007602052604090206001015461107781336114ad565b61082f8383611597565b6008546001600160a01b031633146110ab5760405162461bcd60e51b81526004016106f990612b2f565b6001600160a01b0381166111105760405162461bcd60e51b815260206004820152602660248201527f4f776e61626c653a206e6577206f776e657220697320746865207a65726f206160448201526564647265737360d01b60648201526084016106f9565b611119816115fe565b50565b60006001600160e01b031982166380ac58cd60e01b148061114d57506001600160e01b03198216635b5e139f60e01b145b806105f957506301ffc9a760e01b6001600160e01b03198316146105f9565b60006001600160e01b03198216637965db0b60e01b14806105f957506105f98261111c565b6000908152600260205260409020546001600160a01b0316151590565b600081815260046020526040902080546001600160a01b0319166001600160a01b03841690811790915581906111e382610aa6565b6001600160a01b03167f8c5be1e5ebec7d5bd14f71427d1e84f3dd0314c0f7b2291e5b200ac8c7c3b92560405160405180910390a45050565b600061122782611191565b6112885760405162461bcd60e51b815260206004820152602c60248201527f4552433732313a206f70657261746f7220717565727920666f72206e6f6e657860448201526b34b9ba32b73a103a37b5b2b760a11b60648201526084016106f9565b600061129383610aa6565b9050806001600160a01b0316846001600160a01b031614806112ce5750836001600160a01b03166112c384610691565b6001600160a01b0316145b8061105357506001600160a01b0380821660009081526005602090815260408083209388168352929052205460ff16611053565b826001600160a01b031661131582610aa6565b6001600160a01b03161461137d5760405162461bcd60e51b815260206004820152602960248201527f4552433732313a207472616e73666572206f6620746f6b656e2074686174206960448201526839903737ba1037bbb760b91b60648201526084016106f9565b6001600160a01b0382166113df5760405162461bcd60e51b8152602060048201526024808201527f4552433732313a207472616e7366657220746f20746865207a65726f206164646044820152637265737360e01b60648201526084016106f9565b6113ea838383611b02565b6113f56000826111ae565b6001600160a01b038316600090815260036020526040812080546001929061141e908490612c00565b90915550506001600160a01b038216600090815260036020526040812080546001929061144c908490612bb5565b909155505060008181526002602052604080822080546001600160a01b0319166001600160a01b0386811691821790925591518493918716917fddf252ad1be2c89b69c2b068fc378daa952ba7f163c4a11628f55a4df523b3ef91a4505050565b6114b78282610bda565b61099b576114cf816001600160a01b03166014611b0d565b6114da836020611b0d565b6040516020016114eb9291906129ea565b60408051601f198184030181529082905262461bcd60e51b82526106f991600401612a9c565b61151b8282610bda565b61099b5760008281526007602090815260408083206001600160a01b03851684529091529020805460ff191660011790556115533390565b6001600160a01b0316816001600160a01b0316837f2f8788117e7eff1d82e926ec794901d17c78024a50270940304540a733656f0d60405160405180910390a45050565b6115a18282610bda565b1561099b5760008281526007602090815260408083206001600160a01b0385168085529252808320805460ff1916905551339285917ff6391f5c32d9c69d2a47ea670b442974b53935d1edc7fd64eb21e047a839171b9190a45050565b600880546001600160a01b038381166001600160a01b0319831681179093556040519116919082907f8be0079c531659141344cd1fd0a4f28419497f9722a3daafe3b4186f6b6457e090600090a35050565b6001600160a01b0382166116a65760405162461bcd60e51b815260206004820181905260248201527f4552433732313a206d696e7420746f20746865207a65726f206164647265737360448201526064016106f9565b6116af81611191565b156116fc5760405162461bcd60e51b815260206004820152601c60248201527f4552433732313a20746f6b656e20616c7265616479206d696e7465640000000060448201526064016106f9565b61170860008383611b02565b6001600160a01b0382166000908152600360205260408120805460019290611731908490612bb5565b909155505060008181526002602052604080822080546001600160a01b0319166001600160a01b03861690811790915590518392907fddf252ad1be2c89b69c2b068fc378daa952ba7f163c4a11628f55a4df523b3ef908290a45050565b61179882611191565b6117fb5760405162461bcd60e51b815260206004820152602e60248201527f45524337323155524953746f726167653a2055524920736574206f66206e6f6e60448201526d32bc34b9ba32b73a103a37b5b2b760911b60648201526084016106f9565b6000828152600660209081526040909120825161082f928401906125f0565b816001600160a01b0316836001600160a01b0316141561187c5760405162461bcd60e51b815260206004820152601960248201527f4552433732313a20617070726f766520746f2063616c6c65720000000000000060448201526064016106f9565b6001600160a01b03838116600081815260056020908152604080832094871680845294825291829020805460ff191686151590811790915591519182527f17307eab39ab6107e8899845ad3d59bd9653f200f220920489ca2b5937696c31910160405180910390a3505050565b6118f4848484611302565b61190084848484611cf6565b610f775760405162461bcd60e51b81526004016106f990612aaf565b606061192782611191565b61198d5760405162461bcd60e51b815260206004820152603160248201527f45524337323155524953746f726167653a2055524920717565727920666f72206044820152703737b732bc34b9ba32b73a103a37b5b2b760791b60648201526084016106f9565b600082815260066020526040812080546119a690612c5a565b80601f01602080910402602001604051908101604052809291908181526020018280546119d290612c5a565b8015611a1f5780601f106119f457610100808354040283529160200191611a1f565b820191906000526020600020905b815481529060010190602001808311611a0257829003601f168201915b505050505090506000611a3d60408051602081019091526000815290565b9050805160001415611a50575092915050565b815115611a82578082604051602001611a6a9291906129bb565b60405160208183030381529060405292505050919050565b61105384611e00565b6040517f19457468657265756d205369676e6564204d6573736167653a0a3332000000006020820152603c8101829052600090605c01604051602081830303815290604052805190602001209050919050565b6000806000611aed8585611ed7565b91509150611afa81611f47565b509392505050565b61082f838383612148565b60606000611b1c836002612be1565b611b27906002612bb5565b67ffffffffffffffff811115611b4d57634e487b7160e01b600052604160045260246000fd5b6040519080825280601f01601f191660200182016040528015611b77576020820181803683370190505b509050600360fc1b81600081518110611ba057634e487b7160e01b600052603260045260246000fd5b60200101906001600160f81b031916908160001a905350600f60fb1b81600181518110611bdd57634e487b7160e01b600052603260045260246000fd5b60200101906001600160f81b031916908160001a9053506000611c01846002612be1565b611c0c906001612bb5565b90505b6001811115611ca0576f181899199a1a9b1b9c1cb0b131b232b360811b85600f1660108110611c4e57634e487b7160e01b600052603260045260246000fd5b1a60f81b828281518110611c7257634e487b7160e01b600052603260045260246000fd5b60200101906001600160f81b031916908160001a90535060049490941c93611c9981612c43565b9050611c0f565b508315611cef5760405162461bcd60e51b815260206004820181905260248201527f537472696e67733a20686578206c656e67746820696e73756666696369656e7460448201526064016106f9565b9392505050565b60006001600160a01b0384163b15611df857604051630a85bd0160e11b81526001600160a01b0385169063150b7a0290611d3a903390899088908890600401612a5f565b602060405180830381600087803b158015611d5457600080fd5b505af1925050508015611d84575060408051601f3d908101601f19168201909252611d81918101906128fa565b60015b611dde573d808015611db2576040519150601f19603f3d011682016040523d82523d6000602084013e611db7565b606091505b508051611dd65760405162461bcd60e51b81526004016106f990612aaf565b805181602001fd5b6001600160e01b031916630a85bd0160e11b149050611053565b506001611053565b6060611e0b82611191565b611e6f5760405162461bcd60e51b815260206004820152602f60248201527f4552433732314d657461646174613a2055524920717565727920666f72206e6f60448201526e3732bc34b9ba32b73a103a37b5b2b760891b60648201526084016106f9565b6000611e8660408051602081019091526000815290565b90506000815111611ea65760405180602001604052806000815250611cef565b80611eb084612200565b604051602001611ec19291906129bb565b6040516020818303038152906040529392505050565b600080825160411415611f0e5760208301516040840151606085015160001a611f028782858561231a565b94509450505050611f40565b825160401415611f385760208301516040840151611f2d868383612407565b935093505050611f40565b506000905060025b9250929050565b6000816004811115611f6957634e487b7160e01b600052602160045260246000fd5b1415611f725750565b6001816004811115611f9457634e487b7160e01b600052602160045260246000fd5b1415611fe25760405162461bcd60e51b815260206004820152601860248201527f45434453413a20696e76616c6964207369676e6174757265000000000000000060448201526064016106f9565b600281600481111561200457634e487b7160e01b600052602160045260246000fd5b14156120525760405162461bcd60e51b815260206004820152601f60248201527f45434453413a20696e76616c6964207369676e6174757265206c656e6774680060448201526064016106f9565b600381600481111561207457634e487b7160e01b600052602160045260246000fd5b14156120cd5760405162461bcd60e51b815260206004820152602260248201527f45434453413a20696e76616c6964207369676e6174757265202773272076616c604482015261756560f01b60648201526084016106f9565b60048160048111156120ef57634e487b7160e01b600052602160045260246000fd5b14156111195760405162461bcd60e51b815260206004820152602260248201527f45434453413a20696e76616c6964207369676e6174757265202776272076616c604482015261756560f01b60648201526084016106f9565b6001600160a01b0383166121a35761219e81600b80546000838152600c60205260408120829055600182018355919091527f0175b7a638427703f0dbe7bb9bbf987a2551717b34e79f33b5b1008d1fa01db90155565b6121c6565b816001600160a01b0316836001600160a01b0316146121c6576121c68382612436565b6001600160a01b0382166121dd5761082f816124d3565b826001600160a01b0316826001600160a01b03161461082f5761082f82826125ac565b6060816122245750506040805180820190915260018152600360fc1b602082015290565b8160005b811561224e578061223881612c95565b91506122479050600a83612bcd565b9150612228565b60008167ffffffffffffffff81111561227757634e487b7160e01b600052604160045260246000fd5b6040519080825280601f01601f1916602001820160405280156122a1576020820181803683370190505b5090505b8415611053576122b6600183612c00565b91506122c3600a86612cb0565b6122ce906030612bb5565b60f81b8183815181106122f157634e487b7160e01b600052603260045260246000fd5b60200101906001600160f81b031916908160001a905350612313600a86612bcd565b94506122a5565b6000807f7fffffffffffffffffffffffffffffff5d576e7357a4501ddfe92f46681b20a083111561235157506000905060036123fe565b8460ff16601b1415801561236957508460ff16601c14155b1561237a57506000905060046123fe565b6040805160008082526020820180845289905260ff881692820192909252606081018690526080810185905260019060a0016020604051602081039080840390855afa1580156123ce573d6000803e3d6000fd5b5050604051601f1901519150506001600160a01b0381166123f7576000600192509250506123fe565b9150600090505b94509492505050565b6000806001600160ff1b03831660ff84901c601b016124288782888561231a565b935093505050935093915050565b6000600161244384610b1d565b61244d9190612c00565b6000838152600a60205260409020549091508082146124a0576001600160a01b03841660009081526009602090815260408083208584528252808320548484528184208190558352600a90915290208190555b506000918252600a602090815260408084208490556001600160a01b039094168352600981528383209183525290812055565b600b546000906124e590600190612c00565b6000838152600c6020526040812054600b805493945090928490811061251b57634e487b7160e01b600052603260045260246000fd5b9060005260206000200154905080600b838154811061254a57634e487b7160e01b600052603260045260246000fd5b6000918252602080832090910192909255828152600c9091526040808220849055858252812055600b80548061259057634e487b7160e01b600052603160045260246000fd5b6001900381819060005260206000200160009055905550505050565b60006125b783610b1d565b6001600160a01b0390931660009081526009602090815260408083208684528252808320859055938252600a9052919091209190915550565b8280546125fc90612c5a565b90600052602060002090601f01602090048101928261261e5760008555612664565b82601f1061263757805160ff1916838001178555612664565b82800160010185558215612664579182015b82811115612664578251825591602001919060010190612649565b50612670929150612674565b5090565b5b808211156126705760008155600101612675565b80356001600160a01b03811681146126a057600080fd5b919050565b60008083601f8401126126b6578182fd5b50813567ffffffffffffffff8111156126cd578182fd5b602083019150836020828501011115611f4057600080fd5b6000602082840312156126f6578081fd5b611cef82612689565b60008060408385031215612711578081fd5b61271a83612689565b915061272860208401612689565b90509250929050565b600080600060608486031215612745578081fd5b61274e84612689565b925061275c60208501612689565b9150604084013590509250925092565b60008060008060808587031215612781578081fd5b61278a85612689565b935061279860208601612689565b925060408501359150606085013567ffffffffffffffff808211156127bb578283fd5b818701915087601f8301126127ce578283fd5b8135818111156127e0576127e0612cf0565b604051601f8201601f19908116603f0116810190838211818310171561280857612808612cf0565b816040528281528a6020848701011115612820578586fd5b82602086016020830137918201602001949094529598949750929550505050565b60008060408385031215612853578182fd5b61285c83612689565b915060208301358015158114612870578182fd5b809150509250929050565b6000806040838503121561288d578182fd5b61289683612689565b946020939093013593505050565b6000602082840312156128b5578081fd5b5035919050565b600080604083850312156128ce578182fd5b8235915061272860208401612689565b6000602082840312156128ef578081fd5b8135611cef81612d06565b60006020828403121561290b578081fd5b8151611cef81612d06565b6000806000806040858703121561292b578384fd5b843567ffffffffffffffff80821115612942578586fd5b61294e888389016126a5565b90965094506020870135915080821115612966578384fd5b50612973878288016126a5565b95989497509550505050565b60008151808452612997816020860160208601612c17565b601f01601f19169290920160200192915050565b8183823760009101908152919050565b600083516129cd818460208801612c17565b8351908301906129e1818360208801612c17565b01949350505050565b7f416363657373436f6e74726f6c3a206163636f756e7420000000000000000000815260008351612a22816017850160208801612c17565b7001034b99036b4b9b9b4b733903937b6329607d1b6017918401918201528351612a53816028840160208801612c17565b01602801949350505050565b6001600160a01b0385811682528416602082015260408101839052608060608201819052600090612a929083018461297f565b9695505050505050565b602081526000611cef602083018461297f565b60208082526032908201527f4552433732313a207472616e7366657220746f206e6f6e20455243373231526560408201527131b2b4bb32b91034b6b83632b6b2b73a32b960711b606082015260800190565b6020808252601490820152732330b4b632b2103a379039b2b7321022ba3432b960611b604082015260600190565b6020808252818101527f4f776e61626c653a2063616c6c6572206973206e6f7420746865206f776e6572604082015260600190565b60208082526031908201527f4552433732313a207472616e736665722063616c6c6572206973206e6f74206f6040820152701ddb995c881b9bdc88185c1c1c9bdd9959607a1b606082015260800190565b60008219821115612bc857612bc8612cc4565b500190565b600082612bdc57612bdc612cda565b500490565b6000816000190483118215151615612bfb57612bfb612cc4565b500290565b600082821015612c1257612c12612cc4565b500390565b60005b83811015612c32578181015183820152602001612c1a565b83811115610f775750506000910152565b600081612c5257612c52612cc4565b506000190190565b600181811c90821680612c6e57607f821691505b60208210811415612c8f57634e487b7160e01b600052602260045260246000fd5b50919050565b6000600019821415612ca957612ca9612cc4565b5060010190565b600082612cbf57612cbf612cda565b500690565b634e487b7160e01b600052601160045260246000fd5b634e487b7160e01b600052601260045260246000fd5b634e487b7160e01b600052604160045260246000fd5b6001600160e01b03198116811461111957600080fdfea2646970667358221220d8a5807cd66b1a2287b7ddf49255072a3e3abcb3e62233b2cfc39c91ed5e8ccf64736f6c63430008040033",
  "linkReferences": {},
  "deployedLinkReferences": {}
}