{
  "_format": "hh-sol-artifact-1",
  "contractName": "Lazy",
  "sourceName": "contracts/Lazy.sol",
  "abi": [
    {
      "inputs": [
        {
          "internalType": "address payable",
          "name": "minter",
          "type": "address"
        }
      ],
      "stateMutability": "nonpayable",
      "type": "constructor"
    },
    {
      "anonymous": false,
      "inputs": [
        {
          "indexed": true,
          "internalType": "address",
          "name": "owner",
          "type": "address"
        },
        {
          "indexed": true,
          "internalType": "address",
          "name": "approved",
          "type": "address"
        },
        {
          "indexed": true,
          "internalType": "uint256",
          "name": "tokenId",
          "type": "uint256"
        }
      ],
      "name": "Approval",
      "type": "event"
    },
    {
      "anonymous": false,
      "inputs": [
        {
          "indexed": true,
          "internalType": "address",
          "name": "owner",
          "type": "address"
        },
        {
          "indexed": true,
          "internalType": "address",
          "name": "operator",
          "type": "address"
        },
        {
          "indexed": false,
          "internalType": "bool",
          "name": "approved",
          "type": "bool"
        }
      ],
      "name": "ApprovalForAll",
      "type": "event"
    },
    {
      "anonymous": false,
      "inputs": [
        {
          "indexed": true,
          "internalType": "bytes32",
          "name": "role",
          "type": "bytes32"
        },
        {
          "indexed": true,
          "internalType": "bytes32",
          "name": "previousAdminRole",
          "type": "bytes32"
        },
        {
          "indexed": true,
          "internalType": "bytes32",
          "name": "newAdminRole",
          "type": "bytes32"
        }
      ],
      "name": "RoleAdminChanged",
      "type": "event"
    },
    {
      "anonymous": false,
      "inputs": [
        {
          "indexed": true,
          "internalType": "bytes32",
          "name": "role",
          "type": "bytes32"
        },
        {
          "indexed": true,
          "internalType": "address",
          "name": "account",
          "type": "address"
        },
        {
          "indexed": true,
          "internalType": "address",
          "name": "sender",
          "type": "address"
        }
      ],
      "name": "RoleGranted",
      "type": "event"
    },
    {
      "anonymous": false,
      "inputs": [
        {
          "indexed": true,
          "internalType": "bytes32",
          "name": "role",
          "type": "bytes32"
        },
        {
          "indexed": true,
          "internalType": "address",
          "name": "account",
          "type": "address"
        },
        {
          "indexed": true,
          "internalType": "address",
          "name": "sender",
          "type": "address"
        }
      ],
      "name": "RoleRevoked",
      "type": "event"
    },
    {
      "anonymous": false,
      "inputs": [
        {
          "indexed": true,
          "internalType": "address",
          "name": "from",
          "type": "address"
        },
        {
          "indexed": true,
          "internalType": "address",
          "name": "to",
          "type": "address"
        },
        {
          "indexed": true,
          "internalType": "uint256",
          "name": "tokenId",
          "type": "uint256"
        }
      ],
      "name": "Transfer",
      "type": "event"
    },
    {
      "inputs": [],
      "name": "DEFAULT_ADMIN_ROLE",
      "outputs": [
        {
          "internalType": "bytes32",
          "name": "",
          "type": "bytes32"
        }
      ],
      "stateMutability": "view",
      "type": "function"
    },
    {
      "inputs": [],
      "name": "MINTER_ROLE",
      "outputs": [
        {
          "internalType": "bytes32",
          "name": "",
          "type": "bytes32"
        }
      ],
      "stateMutability": "view",
      "type": "function"
    },
    {
      "inputs": [
        {
          "internalType": "address",
          "name": "to",
          "type": "address"
        },
        {
          "internalType": "uint256",
          "name": "tokenId",
          "type": "uint256"
        }
      ],
      "name": "approve",
      "outputs": [],
      "stateMutability": "nonpayable",
      "type": "function"
    },
    {
      "inputs": [
        {
          "internalType": "address",
          "name": "owner",
          "type": "address"
        }
      ],
      "name": "balanceOf",
      "outputs": [
        {
          "internalType": "uint256",
          "name": "",
          "type": "uint256"
        }
      ],
      "stateMutability": "view",
      "type": "function"
    },
    {
      "inputs": [
        {
          "internalType": "uint256",
          "name": "tokenId",
          "type": "uint256"
        }
      ],
      "name": "getApproved",
      "outputs": [
        {
          "internalType": "address",
          "name": "",
          "type": "address"
        }
      ],
      "stateMutability": "view",
      "type": "function"
    },
    {
      "inputs": [
        {
          "internalType": "bytes32",
          "name": "role",
          "type": "bytes32"
        }
      ],
      "name": "getRoleAdmin",
      "outputs": [
        {
          "internalType": "bytes32",
          "name": "",
          "type": "bytes32"
        }
      ],
      "stateMutability": "view",
      "type": "function"
    },
    {
      "inputs": [
        {
          "internalType": "bytes32",
          "name": "role",
          "type": "bytes32"
        },
        {
          "internalType": "address",
          "name": "account",
          "type": "address"
        }
      ],
      "name": "grantRole",
      "outputs": [],
      "stateMutability": "nonpayable",
      "type": "function"
    },
    {
      "inputs": [
        {
          "internalType": "bytes32",
          "name": "role",
          "type": "bytes32"
        },
        {
          "internalType": "address",
          "name": "account",
          "type": "address"
        }
      ],
      "name": "hasRole",
      "outputs": [
        {
          "internalType": "bool",
          "name": "",
          "type": "bool"
        }
      ],
      "stateMutability": "view",
      "type": "function"
    },
    {
      "inputs": [
        {
          "internalType": "address",
          "name": "owner",
          "type": "address"
        },
        {
          "internalType": "address",
          "name": "operator",
          "type": "address"
        }
      ],
      "name": "isApprovedForAll",
      "outputs": [
        {
          "internalType": "bool",
          "name": "",
          "type": "bool"
        }
      ],
      "stateMutability": "view",
      "type": "function"
    },
    {
      "inputs": [
        {
          "internalType": "string",
          "name": "message",
          "type": "string"
        },
        {
          "internalType": "bytes",
          "name": "sign",
          "type": "bytes"
        }
      ],
      "name": "mintToken",
      "outputs": [],
      "stateMutability": "payable",
      "type": "function"
    },
    {
      "inputs": [],
      "name": "name",
      "outputs": [
        {
          "internalType": "string",
          "name": "",
          "type": "string"
        }
      ],
      "stateMutability": "view",
      "type": "function"
    },
    {
      "inputs": [
        {
          "internalType": "uint256",
          "name": "tokenId",
          "type": "uint256"
        }
      ],
      "name": "ownerOf",
      "outputs": [
        {
          "internalType": "address",
          "name": "",
          "type": "address"
        }
      ],
      "stateMutability": "view",
      "type": "function"
    },
    {
      "inputs": [
        {
          "internalType": "bytes32",
          "name": "role",
          "type": "bytes32"
        },
        {
          "internalType": "address",
          "name": "account",
          "type": "address"
        }
      ],
      "name": "renounceRole",
      "outputs": [],
      "stateMutability": "nonpayable",
      "type": "function"
    },
    {
      "inputs": [
        {
          "internalType": "bytes32",
          "name": "role",
          "type": "bytes32"
        },
        {
          "internalType": "address",
          "name": "account",
          "type": "address"
        }
      ],
      "name": "revokeRole",
      "outputs": [],
      "stateMutability": "nonpayable",
      "type": "function"
    },
    {
      "inputs": [
        {
          "internalType": "address",
          "name": "from",
          "type": "address"
        },
        {
          "internalType": "address",
          "name": "to",
          "type": "address"
        },
        {
          "internalType": "uint256",
          "name": "tokenId",
          "type": "uint256"
        }
      ],
      "name": "safeTransferFrom",
      "outputs": [],
      "stateMutability": "nonpayable",
      "type": "function"
    },
    {
      "inputs": [
        {
          "internalType": "address",
          "name": "from",
          "type": "address"
        },
        {
          "internalType": "address",
          "name": "to",
          "type": "address"
        },
        {
          "internalType": "uint256",
          "name": "tokenId",
          "type": "uint256"
        },
        {
          "internalType": "bytes",
          "name": "_data",
          "type": "bytes"
        }
      ],
      "name": "safeTransferFrom",
      "outputs": [],
      "stateMutability": "nonpayable",
      "type": "function"
    },
    {
      "inputs": [
        {
          "internalType": "address",
          "name": "operator",
          "type": "address"
        },
        {
          "internalType": "bool",
          "name": "approved",
          "type": "bool"
        }
      ],
      "name": "setApprovalForAll",
      "outputs": [],
      "stateMutability": "nonpayable",
      "type": "function"
    },
    {
      "inputs": [
        {
          "internalType": "bytes4",
          "name": "interfaceId",
          "type": "bytes4"
        }
      ],
      "name": "supportsInterface",
      "outputs": [
        {
          "internalType": "bool",
          "name": "",
          "type": "bool"
        }
      ],
      "stateMutability": "view",
      "type": "function"
    },
    {
      "inputs": [],
      "name": "symbol",
      "outputs": [
        {
          "internalType": "string",
          "name": "",
          "type": "string"
        }
      ],
      "stateMutability": "view",
      "type": "function"
    },
    {
      "inputs": [
        {
          "internalType": "uint256",
          "name": "tokenId",
          "type": "uint256"
        }
      ],
      "name": "tokenURI",
      "outputs": [
        {
          "internalType": "string",
          "name": "",
          "type": "string"
        }
      ],
      "stateMutability": "view",
      "type": "function"
    },
    {
      "inputs": [
        {
          "internalType": "address",
          "name": "from",
          "type": "address"
        },
        {
          "internalType": "address",
          "name": "to",
          "type": "address"
        },
        {
          "internalType": "uint256",
          "name": "tokenId",
          "type": "uint256"
        }
      ],
      "name": "transferFrom",
      "outputs": [],
      "stateMutability": "nonpayable",
      "type": "function"
    }
  ],
  "bytecode": "0x6101406040526703782dace9d9000060095561206c600a556105dc600b5560c8600c819055612648600d556064600e819055600f55610fa06010556116a860115560125560148054730d4ae8effbcdf74f6005a4a4b6a28b50f36b75f06001600160a01b03199182168117909255601580548216831790556016805490911690911790553480156200009057600080fd5b5060405162002a3038038062002a30833981016040819052620000b39162000390565b6040518060400160405280600f81526020016e2630bd3ca7232a16ab37bab1b432b960891b815250604051806040016040528060018152602001603160f81b8152506040518060400160405280601081526020016f4c415a592d4d494e5445445f424f495360801b815250604051806040016040528060048152602001634c415a5960e01b815250816000908051906020019062000153929190620002ea565b50805162000169906001906020840190620002ea565b5050825160208085019190912083518483012060e08290526101008190524660a0818152604080517f8b73c3c69bb8fe3d512ecc4cf759cc79239f7b179b0ffacaa9a75d522b39400f81880181905281830187905260608201869052608082019490945230818401528151808203909301835260c0019052805194019390932091935091906080523060601b60c05261012052506200022f92507f9f2df0fed2c77648de5860a4cc508cd0818c85b8b8a1ab4ceeef8d981c8956a6915083905062000236565b50620003fd565b62000242828262000246565b5050565b60008281526007602090815260408083206001600160a01b038516845290915290205460ff16620002425760008281526007602090815260408083206001600160a01b03851684529091529020805460ff19166001179055620002a63390565b6001600160a01b0316816001600160a01b0316837f2f8788117e7eff1d82e926ec794901d17c78024a50270940304540a733656f0d60405160405180910390a45050565b828054620002f890620003c0565b90600052602060002090601f0160209004810192826200031c576000855562000367565b82601f106200033757805160ff191683800117855562000367565b8280016001018555821562000367579182015b82811115620003675782518255916020019190600101906200034a565b506200037592915062000379565b5090565b5b808211156200037557600081556001016200037a565b600060208284031215620003a2578081fd5b81516001600160a01b0381168114620003b9578182fd5b9392505050565b600181811c90821680620003d557607f821691505b60208210811415620003f757634e487b7160e01b600052602260045260246000fd5b50919050565b60805160a05160c05160601c60e05161010051610120516125f26200043e6000396000505060005050600050506000505060005050600050506125f26000f3fe60806040526004361061012a5760003560e01c806370a08231116100ab578063a22cb4651161006f578063a22cb4651461033b578063b88d4fde1461035b578063c87b56dd1461037b578063d53913931461039b578063d547741f146103cf578063e985e9c5146103ef57600080fd5b806370a08231146102be57806391d14854146102de57806395d89b41146102fe578063a1fd16fc14610313578063a217fddf1461032657600080fd5b8063248a9ca3116100f2578063248a9ca3146102005780632f2ff15d1461023e57806336568abe1461025e57806342842e0e1461027e5780636352211e1461029e57600080fd5b806301ffc9a71461012f57806306fdde0314610164578063081812fc14610186578063095ea7b3146101be57806323b872dd146101e0575b600080fd5b34801561013b57600080fd5b5061014f61014a3660046121bd565b610438565b60405190151581526020015b60405180910390f35b34801561017057600080fd5b50610179610458565b60405161015b9190612371565b34801561019257600080fd5b506101a66101a1366004612183565b6104ea565b6040516001600160a01b03909116815260200161015b565b3480156101ca57600080fd5b506101de6101d936600461215a565b610577565b005b3480156101ec57600080fd5b506101de6101fb366004612010565b61068d565b34801561020c57600080fd5b5061023061021b366004612183565b60009081526007602052604090206001015490565b60405190815260200161015b565b34801561024a57600080fd5b506101de61025936600461219b565b6106be565b34801561026a57600080fd5b506101de61027936600461219b565b6106e4565b34801561028a57600080fd5b506101de610299366004612010565b610762565b3480156102aa57600080fd5b506101a66102b9366004612183565b61077d565b3480156102ca57600080fd5b506102306102d9366004611fc4565b6107f4565b3480156102ea57600080fd5b5061014f6102f936600461219b565b61087b565b34801561030a57600080fd5b506101796108a6565b6101de6103213660046121f5565b6108b5565b34801561033257600080fd5b50610230600081565b34801561034757600080fd5b506101de610356366004612120565b610a0a565b34801561036757600080fd5b506101de61037636600461204b565b610a15565b34801561038757600080fd5b50610179610396366004612183565b610a4d565b3480156103a757600080fd5b506102307f9f2df0fed2c77648de5860a4cc508cd0818c85b8b8a1ab4ceeef8d981c8956a681565b3480156103db57600080fd5b506101de6103ea36600461219b565b610bc4565b3480156103fb57600080fd5b5061014f61040a366004611fde565b6001600160a01b03918216600090815260056020908152604080832093909416825291909152205460ff1690565b600061044382610bea565b80610452575061045282610c3a565b92915050565b606060008054610467906124fa565b80601f0160208091040260200160405190810160405280929190818152602001828054610493906124fa565b80156104e05780601f106104b5576101008083540402835291602001916104e0565b820191906000526020600020905b8154815290600101906020018083116104c357829003601f168201915b5050505050905090565b60006104f582610c5f565b61055b5760405162461bcd60e51b815260206004820152602c60248201527f4552433732313a20617070726f76656420717565727920666f72206e6f6e657860448201526b34b9ba32b73a103a37b5b2b760a11b60648201526084015b60405180910390fd5b506000908152600460205260409020546001600160a01b031690565b60006105828261077d565b9050806001600160a01b0316836001600160a01b031614156105f05760405162461bcd60e51b815260206004820152602160248201527f4552433732313a20617070726f76616c20746f2063757272656e74206f776e656044820152603960f91b6064820152608401610552565b336001600160a01b038216148061060c575061060c813361040a565b61067e5760405162461bcd60e51b815260206004820152603860248201527f4552433732313a20617070726f76652063616c6c6572206973206e6f74206f7760448201527f6e6572206e6f7220617070726f76656420666f7220616c6c00000000000000006064820152608401610552565b6106888383610c7c565b505050565b6106973382610cea565b6106b35760405162461bcd60e51b815260040161055290612404565b610688838383610dd0565b6000828152600760205260409020600101546106da8133610f70565b6106888383610fd4565b6001600160a01b03811633146107545760405162461bcd60e51b815260206004820152602f60248201527f416363657373436f6e74726f6c3a2063616e206f6e6c792072656e6f756e636560448201526e103937b632b9903337b91039b2b63360891b6064820152608401610552565b61075e828261105a565b5050565b61068883838360405180602001604052806000815250610a15565b6000818152600260205260408120546001600160a01b0316806104525760405162461bcd60e51b815260206004820152602960248201527f4552433732313a206f776e657220717565727920666f72206e6f6e657869737460448201526832b73a103a37b5b2b760b91b6064820152608401610552565b60006001600160a01b03821661085f5760405162461bcd60e51b815260206004820152602a60248201527f4552433732313a2062616c616e636520717565727920666f7220746865207a65604482015269726f206164647265737360b01b6064820152608401610552565b506001600160a01b031660009081526003602052604090205490565b60009182526007602090815260408084206001600160a01b0393909316845291905290205460ff1690565b606060018054610467906124fa565b60006108c3858585856110c1565b90506108ef7f9f2df0fed2c77648de5860a4cc508cd0818c85b8b8a1ab4ceeef8d981c8956a68261087b565b6109455760405162461bcd60e51b815260206004820152602160248201527f5369676e617475726520696e76616c6964206f7220756e617574686f72697a656044820152601960fa1b6064820152608401610552565b60095434146109895760405162461bcd60e51b815260206004820152601060248201526f6e6f7420656e6f756768206d6f6e657960801b6044820152606401610552565b600061099460085490565b90506109a4600880546001019055565b6109ae8282611144565b6109ee8187878080601f01602080910402602001604051908101604052809392919081815260200183838082843760009201919091525061127792505050565b6109f9823383610dd0565b610a0233611302565b505050505050565b61075e3383836114e8565b610a1f3383610cea565b610a3b5760405162461bcd60e51b815260040161055290612404565b610a47848484846115b7565b50505050565b6060610a5882610c5f565b610abe5760405162461bcd60e51b815260206004820152603160248201527f45524337323155524953746f726167653a2055524920717565727920666f72206044820152703737b732bc34b9ba32b73a103a37b5b2b760791b6064820152608401610552565b60008281526006602052604081208054610ad7906124fa565b80601f0160208091040260200160405190810160405280929190818152602001828054610b03906124fa565b8015610b505780601f10610b2557610100808354040283529160200191610b50565b820191906000526020600020905b815481529060010190602001808311610b3357829003601f168201915b505050505090506000610b6e60408051602081019091526000815290565b9050805160001415610b81575092915050565b815115610bb3578082604051602001610b9b92919061229a565b60405160208183030381529060405292505050919050565b610bbc846115ea565b949350505050565b600082815260076020526040902060010154610be08133610f70565b610688838361105a565b60006001600160e01b031982166380ac58cd60e01b1480610c1b57506001600160e01b03198216635b5e139f60e01b145b8061045257506301ffc9a760e01b6001600160e01b0319831614610452565b60006001600160e01b03198216637965db0b60e01b1480610452575061045282610bea565b6000908152600260205260409020546001600160a01b0316151590565b600081815260046020526040902080546001600160a01b0319166001600160a01b0384169081179091558190610cb18261077d565b6001600160a01b03167f8c5be1e5ebec7d5bd14f71427d1e84f3dd0314c0f7b2291e5b200ac8c7c3b92560405160405180910390a45050565b6000610cf582610c5f565b610d565760405162461bcd60e51b815260206004820152602c60248201527f4552433732313a206f70657261746f7220717565727920666f72206e6f6e657860448201526b34b9ba32b73a103a37b5b2b760a11b6064820152608401610552565b6000610d618361077d565b9050806001600160a01b0316846001600160a01b03161480610d9c5750836001600160a01b0316610d91846104ea565b6001600160a01b0316145b80610bbc57506001600160a01b0380821660009081526005602090815260408083209388168352929052205460ff16610bbc565b826001600160a01b0316610de38261077d565b6001600160a01b031614610e4b5760405162461bcd60e51b815260206004820152602960248201527f4552433732313a207472616e73666572206f6620746f6b656e2074686174206960448201526839903737ba1037bbb760b91b6064820152608401610552565b6001600160a01b038216610ead5760405162461bcd60e51b8152602060048201526024808201527f4552433732313a207472616e7366657220746f20746865207a65726f206164646044820152637265737360e01b6064820152608401610552565b610eb8600082610c7c565b6001600160a01b0383166000908152600360205260408120805460019290610ee19084906124a0565b90915550506001600160a01b0382166000908152600360205260408120805460019290610f0f908490612455565b909155505060008181526002602052604080822080546001600160a01b0319166001600160a01b0386811691821790925591518493918716917fddf252ad1be2c89b69c2b068fc378daa952ba7f163c4a11628f55a4df523b3ef91a4505050565b610f7a828261087b565b61075e57610f92816001600160a01b031660146116c2565b610f9d8360206116c2565b604051602001610fae9291906122c9565b60408051601f198184030181529082905262461bcd60e51b825261055291600401612371565b610fde828261087b565b61075e5760008281526007602090815260408083206001600160a01b03851684529091529020805460ff191660011790556110163390565b6001600160a01b0316816001600160a01b0316837f2f8788117e7eff1d82e926ec794901d17c78024a50270940304540a733656f0d60405160405180910390a45050565b611064828261087b565b1561075e5760008281526007602090815260408083206001600160a01b0385168085529252808320805460ff1916905551339285917ff6391f5c32d9c69d2a47ea670b442974b53935d1edc7fd64eb21e047a839171b9190a45050565b60008085856040516020016110d792919061228a565b60405160208183030381529060405280519060200120905061113a84848080601f01602080910402602001604051908101604052809392919081815260200183838082843760009201919091525061113492508591506118a49050565b906118f7565b9695505050505050565b6001600160a01b03821661119a5760405162461bcd60e51b815260206004820181905260248201527f4552433732313a206d696e7420746f20746865207a65726f20616464726573736044820152606401610552565b6111a381610c5f565b156111f05760405162461bcd60e51b815260206004820152601c60248201527f4552433732313a20746f6b656e20616c7265616479206d696e746564000000006044820152606401610552565b6001600160a01b0382166000908152600360205260408120805460019290611219908490612455565b909155505060008181526002602052604080822080546001600160a01b0319166001600160a01b03861690811790915590518392907fddf252ad1be2c89b69c2b068fc378daa952ba7f163c4a11628f55a4df523b3ef908290a45050565b61128082610c5f565b6112e35760405162461bcd60e51b815260206004820152602e60248201527f45524337323155524953746f726167653a2055524920736574206f66206e6f6e60448201526d32bc34b9ba32b73a103a37b5b2b760911b6064820152608401610552565b6000828152600660209081526040909120825161068892840190611ecf565b6001600160a01b0381166000908152601360205260408120548190819060ff161561133b5760105492506011549150601254905061134b565b600a549250600b549150600c5490505b6014546000906001600160a01b03166127106113678634612481565b611371919061246d565b604051600081818185875af1925050503d80600081146113ad576040519150601f19603f3d011682016040523d82523d6000602084013e6113b2565b606091505b50509050806113d35760405162461bcd60e51b8152600401610552906123d6565b6015546001600160a01b03166127106113ec8534612481565b6113f6919061246d565b604051600081818185875af1925050503d8060008114611432576040519150601f19603f3d011682016040523d82523d6000602084013e611437565b606091505b5050809150508061145a5760405162461bcd60e51b8152600401610552906123d6565b6016546001600160a01b03166127106114738434612481565b61147d919061246d565b604051600081818185875af1925050503d80600081146114b9576040519150601f19603f3d011682016040523d82523d6000602084013e6114be565b606091505b505080915050806114e15760405162461bcd60e51b8152600401610552906123d6565b5050505050565b816001600160a01b0316836001600160a01b0316141561154a5760405162461bcd60e51b815260206004820152601960248201527f4552433732313a20617070726f766520746f2063616c6c6572000000000000006044820152606401610552565b6001600160a01b03838116600081815260056020908152604080832094871680845294825291829020805460ff191686151590811790915591519182527f17307eab39ab6107e8899845ad3d59bd9653f200f220920489ca2b5937696c31910160405180910390a3505050565b6115c2848484610dd0565b6115ce8484848461191b565b610a475760405162461bcd60e51b815260040161055290612384565b60606115f582610c5f565b6116595760405162461bcd60e51b815260206004820152602f60248201527f4552433732314d657461646174613a2055524920717565727920666f72206e6f60448201526e3732bc34b9ba32b73a103a37b5b2b760891b6064820152608401610552565b600061167060408051602081019091526000815290565b9050600081511161169057604051806020016040528060008152506116bb565b8061169a84611a25565b6040516020016116ab92919061229a565b6040516020818303038152906040525b9392505050565b606060006116d1836002612481565b6116dc906002612455565b67ffffffffffffffff81111561170257634e487b7160e01b600052604160045260246000fd5b6040519080825280601f01601f19166020018201604052801561172c576020820181803683370190505b509050600360fc1b8160008151811061175557634e487b7160e01b600052603260045260246000fd5b60200101906001600160f81b031916908160001a905350600f60fb1b8160018151811061179257634e487b7160e01b600052603260045260246000fd5b60200101906001600160f81b031916908160001a90535060006117b6846002612481565b6117c1906001612455565b90505b6001811115611855576f181899199a1a9b1b9c1cb0b131b232b360811b85600f166010811061180357634e487b7160e01b600052603260045260246000fd5b1a60f81b82828151811061182757634e487b7160e01b600052603260045260246000fd5b60200101906001600160f81b031916908160001a90535060049490941c9361184e816124e3565b90506117c4565b5083156116bb5760405162461bcd60e51b815260206004820181905260248201527f537472696e67733a20686578206c656e67746820696e73756666696369656e746044820152606401610552565b6040517f19457468657265756d205369676e6564204d6573736167653a0a3332000000006020820152603c8101829052600090605c01604051602081830303815290604052805190602001209050919050565b60008060006119068585611b3f565b9150915061191381611baf565b509392505050565b60006001600160a01b0384163b15611a1d57604051630a85bd0160e11b81526001600160a01b0385169063150b7a029061195f90339089908890889060040161233e565b602060405180830381600087803b15801561197957600080fd5b505af19250505080156119a9575060408051601f3d908101601f191682019092526119a6918101906121d9565b60015b611a03573d8080156119d7576040519150601f19603f3d011682016040523d82523d6000602084013e6119dc565b606091505b5080516119fb5760405162461bcd60e51b815260040161055290612384565b805181602001fd5b6001600160e01b031916630a85bd0160e11b149050610bbc565b506001610bbc565b606081611a495750506040805180820190915260018152600360fc1b602082015290565b8160005b8115611a735780611a5d81612535565b9150611a6c9050600a8361246d565b9150611a4d565b60008167ffffffffffffffff811115611a9c57634e487b7160e01b600052604160045260246000fd5b6040519080825280601f01601f191660200182016040528015611ac6576020820181803683370190505b5090505b8415610bbc57611adb6001836124a0565b9150611ae8600a86612550565b611af3906030612455565b60f81b818381518110611b1657634e487b7160e01b600052603260045260246000fd5b60200101906001600160f81b031916908160001a905350611b38600a8661246d565b9450611aca565b600080825160411415611b765760208301516040840151606085015160001a611b6a87828585611db3565b94509450505050611ba8565b825160401415611ba05760208301516040840151611b95868383611ea0565b935093505050611ba8565b506000905060025b9250929050565b6000816004811115611bd157634e487b7160e01b600052602160045260246000fd5b1415611bda5750565b6001816004811115611bfc57634e487b7160e01b600052602160045260246000fd5b1415611c4a5760405162461bcd60e51b815260206004820152601860248201527f45434453413a20696e76616c6964207369676e617475726500000000000000006044820152606401610552565b6002816004811115611c6c57634e487b7160e01b600052602160045260246000fd5b1415611cba5760405162461bcd60e51b815260206004820152601f60248201527f45434453413a20696e76616c6964207369676e6174757265206c656e677468006044820152606401610552565b6003816004811115611cdc57634e487b7160e01b600052602160045260246000fd5b1415611d355760405162461bcd60e51b815260206004820152602260248201527f45434453413a20696e76616c6964207369676e6174757265202773272076616c604482015261756560f01b6064820152608401610552565b6004816004811115611d5757634e487b7160e01b600052602160045260246000fd5b1415611db05760405162461bcd60e51b815260206004820152602260248201527f45434453413a20696e76616c6964207369676e6174757265202776272076616c604482015261756560f01b6064820152608401610552565b50565b6000807f7fffffffffffffffffffffffffffffff5d576e7357a4501ddfe92f46681b20a0831115611dea5750600090506003611e97565b8460ff16601b14158015611e0257508460ff16601c14155b15611e135750600090506004611e97565b6040805160008082526020820180845289905260ff881692820192909252606081018690526080810185905260019060a0016020604051602081039080840390855afa158015611e67573d6000803e3d6000fd5b5050604051601f1901519150506001600160a01b038116611e9057600060019250925050611e97565b9150600090505b94509492505050565b6000806001600160ff1b03831660ff84901c601b01611ec187828885611db3565b935093505050935093915050565b828054611edb906124fa565b90600052602060002090601f016020900481019282611efd5760008555611f43565b82601f10611f1657805160ff1916838001178555611f43565b82800160010185558215611f43579182015b82811115611f43578251825591602001919060010190611f28565b50611f4f929150611f53565b5090565b5b80821115611f4f5760008155600101611f54565b80356001600160a01b0381168114611f7f57600080fd5b919050565b60008083601f840112611f95578182fd5b50813567ffffffffffffffff811115611fac578182fd5b602083019150836020828501011115611ba857600080fd5b600060208284031215611fd5578081fd5b6116bb82611f68565b60008060408385031215611ff0578081fd5b611ff983611f68565b915061200760208401611f68565b90509250929050565b600080600060608486031215612024578081fd5b61202d84611f68565b925061203b60208501611f68565b9150604084013590509250925092565b60008060008060808587031215612060578081fd5b61206985611f68565b935061207760208601611f68565b925060408501359150606085013567ffffffffffffffff8082111561209a578283fd5b818701915087601f8301126120ad578283fd5b8135818111156120bf576120bf612590565b604051601f8201601f19908116603f011681019083821181831017156120e7576120e7612590565b816040528281528a60208487010111156120ff578586fd5b82602086016020830137918201602001949094529598949750929550505050565b60008060408385031215612132578182fd5b61213b83611f68565b91506020830135801515811461214f578182fd5b809150509250929050565b6000806040838503121561216c578182fd5b61217583611f68565b946020939093013593505050565b600060208284031215612194578081fd5b5035919050565b600080604083850312156121ad578182fd5b8235915061200760208401611f68565b6000602082840312156121ce578081fd5b81356116bb816125a6565b6000602082840312156121ea578081fd5b81516116bb816125a6565b6000806000806040858703121561220a578384fd5b843567ffffffffffffffff80821115612221578586fd5b61222d88838901611f84565b90965094506020870135915080821115612245578384fd5b5061225287828801611f84565b95989497509550505050565b600081518084526122768160208601602086016124b7565b601f01601f19169290920160200192915050565b8183823760009101908152919050565b600083516122ac8184602088016124b7565b8351908301906122c08183602088016124b7565b01949350505050565b7f416363657373436f6e74726f6c3a206163636f756e74200000000000000000008152600083516123018160178501602088016124b7565b7001034b99036b4b9b9b4b733903937b6329607d1b60179184019182015283516123328160288401602088016124b7565b01602801949350505050565b6001600160a01b038581168252841660208201526040810183905260806060820181905260009061113a9083018461225e565b6020815260006116bb602083018461225e565b60208082526032908201527f4552433732313a207472616e7366657220746f206e6f6e20455243373231526560408201527131b2b4bb32b91034b6b83632b6b2b73a32b960711b606082015260800190565b6020808252601490820152732330b4b632b2103a379039b2b7321022ba3432b960611b604082015260600190565b60208082526031908201527f4552433732313a207472616e736665722063616c6c6572206973206e6f74206f6040820152701ddb995c881b9bdc88185c1c1c9bdd9959607a1b606082015260800190565b6000821982111561246857612468612564565b500190565b60008261247c5761247c61257a565b500490565b600081600019048311821515161561249b5761249b612564565b500290565b6000828210156124b2576124b2612564565b500390565b60005b838110156124d25781810151838201526020016124ba565b83811115610a475750506000910152565b6000816124f2576124f2612564565b506000190190565b600181811c9082168061250e57607f821691505b6020821081141561252f57634e487b7160e01b600052602260045260246000fd5b50919050565b600060001982141561254957612549612564565b5060010190565b60008261255f5761255f61257a565b500690565b634e487b7160e01b600052601160045260246000fd5b634e487b7160e01b600052601260045260246000fd5b634e487b7160e01b600052604160045260246000fd5b6001600160e01b031981168114611db057600080fdfea264697066735822122028642ac290203d3345e739ecc74d5f79dacd5affb7c3f0766464bfcafb19a02964736f6c63430008040033",
  "linkReferences": {},
  "deployedLinkReferences": {}
}