{
  "_format": "hh-sol-artifact-1",
  "contractName": "Lazy",
  "sourceName": "contracts/Lazy.sol",
  "abi": [
    {
      "inputs": [
        {
          "internalType": "address payable",
          "name": "minter",
          "type": "address"
        }
      ],
      "stateMutability": "nonpayable",
      "type": "constructor"
    },
    {
      "anonymous": false,
      "inputs": [
        {
          "indexed": true,
          "internalType": "address",
          "name": "owner",
          "type": "address"
        },
        {
          "indexed": true,
          "internalType": "address",
          "name": "approved",
          "type": "address"
        },
        {
          "indexed": true,
          "internalType": "uint256",
          "name": "tokenId",
          "type": "uint256"
        }
      ],
      "name": "Approval",
      "type": "event"
    },
    {
      "anonymous": false,
      "inputs": [
        {
          "indexed": true,
          "internalType": "address",
          "name": "owner",
          "type": "address"
        },
        {
          "indexed": true,
          "internalType": "address",
          "name": "operator",
          "type": "address"
        },
        {
          "indexed": false,
          "internalType": "bool",
          "name": "approved",
          "type": "bool"
        }
      ],
      "name": "ApprovalForAll",
      "type": "event"
    },
    {
      "anonymous": false,
      "inputs": [
        {
          "indexed": true,
          "internalType": "address",
          "name": "previousOwner",
          "type": "address"
        },
        {
          "indexed": true,
          "internalType": "address",
          "name": "newOwner",
          "type": "address"
        }
      ],
      "name": "OwnershipTransferred",
      "type": "event"
    },
    {
      "anonymous": false,
      "inputs": [
        {
          "indexed": true,
          "internalType": "bytes32",
          "name": "role",
          "type": "bytes32"
        },
        {
          "indexed": true,
          "internalType": "bytes32",
          "name": "previousAdminRole",
          "type": "bytes32"
        },
        {
          "indexed": true,
          "internalType": "bytes32",
          "name": "newAdminRole",
          "type": "bytes32"
        }
      ],
      "name": "RoleAdminChanged",
      "type": "event"
    },
    {
      "anonymous": false,
      "inputs": [
        {
          "indexed": true,
          "internalType": "bytes32",
          "name": "role",
          "type": "bytes32"
        },
        {
          "indexed": true,
          "internalType": "address",
          "name": "account",
          "type": "address"
        },
        {
          "indexed": true,
          "internalType": "address",
          "name": "sender",
          "type": "address"
        }
      ],
      "name": "RoleGranted",
      "type": "event"
    },
    {
      "anonymous": false,
      "inputs": [
        {
          "indexed": true,
          "internalType": "bytes32",
          "name": "role",
          "type": "bytes32"
        },
        {
          "indexed": true,
          "internalType": "address",
          "name": "account",
          "type": "address"
        },
        {
          "indexed": true,
          "internalType": "address",
          "name": "sender",
          "type": "address"
        }
      ],
      "name": "RoleRevoked",
      "type": "event"
    },
    {
      "anonymous": false,
      "inputs": [
        {
          "indexed": true,
          "internalType": "address",
          "name": "from",
          "type": "address"
        },
        {
          "indexed": true,
          "internalType": "address",
          "name": "to",
          "type": "address"
        },
        {
          "indexed": true,
          "internalType": "uint256",
          "name": "tokenId",
          "type": "uint256"
        }
      ],
      "name": "Transfer",
      "type": "event"
    },
    {
      "inputs": [],
      "name": "DEFAULT_ADMIN_ROLE",
      "outputs": [
        {
          "internalType": "bytes32",
          "name": "",
          "type": "bytes32"
        }
      ],
      "stateMutability": "view",
      "type": "function"
    },
    {
      "inputs": [],
      "name": "MINTER_ROLE",
      "outputs": [
        {
          "internalType": "bytes32",
          "name": "",
          "type": "bytes32"
        }
      ],
      "stateMutability": "view",
      "type": "function"
    },
    {
      "inputs": [
        {
          "internalType": "string",
          "name": "message",
          "type": "string"
        },
        {
          "internalType": "bytes",
          "name": "sign",
          "type": "bytes"
        }
      ],
      "name": "_verify",
      "outputs": [
        {
          "internalType": "address",
          "name": "",
          "type": "address"
        }
      ],
      "stateMutability": "pure",
      "type": "function"
    },
    {
      "inputs": [
        {
          "internalType": "address",
          "name": "user",
          "type": "address"
        }
      ],
      "name": "addWhitelistuser",
      "outputs": [],
      "stateMutability": "nonpayable",
      "type": "function"
    },
    {
      "inputs": [
        {
          "internalType": "address",
          "name": "to",
          "type": "address"
        },
        {
          "internalType": "uint256",
          "name": "tokenId",
          "type": "uint256"
        }
      ],
      "name": "approve",
      "outputs": [],
      "stateMutability": "nonpayable",
      "type": "function"
    },
    {
      "inputs": [
        {
          "internalType": "address",
          "name": "owner",
          "type": "address"
        }
      ],
      "name": "balanceOf",
      "outputs": [
        {
          "internalType": "uint256",
          "name": "",
          "type": "uint256"
        }
      ],
      "stateMutability": "view",
      "type": "function"
    },
    {
      "inputs": [
        {
          "internalType": "uint256",
          "name": "tokenId",
          "type": "uint256"
        }
      ],
      "name": "getApproved",
      "outputs": [
        {
          "internalType": "address",
          "name": "",
          "type": "address"
        }
      ],
      "stateMutability": "view",
      "type": "function"
    },
    {
      "inputs": [
        {
          "internalType": "bytes32",
          "name": "role",
          "type": "bytes32"
        }
      ],
      "name": "getRoleAdmin",
      "outputs": [
        {
          "internalType": "bytes32",
          "name": "",
          "type": "bytes32"
        }
      ],
      "stateMutability": "view",
      "type": "function"
    },
    {
      "inputs": [
        {
          "internalType": "bytes32",
          "name": "role",
          "type": "bytes32"
        },
        {
          "internalType": "address",
          "name": "account",
          "type": "address"
        }
      ],
      "name": "grantRole",
      "outputs": [],
      "stateMutability": "nonpayable",
      "type": "function"
    },
    {
      "inputs": [
        {
          "internalType": "bytes32",
          "name": "role",
          "type": "bytes32"
        },
        {
          "internalType": "address",
          "name": "account",
          "type": "address"
        }
      ],
      "name": "hasRole",
      "outputs": [
        {
          "internalType": "bool",
          "name": "",
          "type": "bool"
        }
      ],
      "stateMutability": "view",
      "type": "function"
    },
    {
      "inputs": [
        {
          "internalType": "address",
          "name": "owner",
          "type": "address"
        },
        {
          "internalType": "address",
          "name": "operator",
          "type": "address"
        }
      ],
      "name": "isApprovedForAll",
      "outputs": [
        {
          "internalType": "bool",
          "name": "",
          "type": "bool"
        }
      ],
      "stateMutability": "view",
      "type": "function"
    },
    {
      "inputs": [
        {
          "internalType": "uint256",
          "name": "tokenId",
          "type": "uint256"
        }
      ],
      "name": "mint",
      "outputs": [],
      "stateMutability": "nonpayable",
      "type": "function"
    },
    {
      "inputs": [
        {
          "internalType": "string",
          "name": "message",
          "type": "string"
        },
        {
          "internalType": "bytes",
          "name": "sign",
          "type": "bytes"
        }
      ],
      "name": "mintToken",
      "outputs": [],
      "stateMutability": "payable",
      "type": "function"
    },
    {
      "inputs": [],
      "name": "name",
      "outputs": [
        {
          "internalType": "string",
          "name": "",
          "type": "string"
        }
      ],
      "stateMutability": "view",
      "type": "function"
    },
    {
      "inputs": [],
      "name": "owner",
      "outputs": [
        {
          "internalType": "address",
          "name": "",
          "type": "address"
        }
      ],
      "stateMutability": "view",
      "type": "function"
    },
    {
      "inputs": [
        {
          "internalType": "uint256",
          "name": "tokenId",
          "type": "uint256"
        }
      ],
      "name": "ownerOf",
      "outputs": [
        {
          "internalType": "address",
          "name": "",
          "type": "address"
        }
      ],
      "stateMutability": "view",
      "type": "function"
    },
    {
      "inputs": [],
      "name": "renounceOwnership",
      "outputs": [],
      "stateMutability": "nonpayable",
      "type": "function"
    },
    {
      "inputs": [
        {
          "internalType": "bytes32",
          "name": "role",
          "type": "bytes32"
        },
        {
          "internalType": "address",
          "name": "account",
          "type": "address"
        }
      ],
      "name": "renounceRole",
      "outputs": [],
      "stateMutability": "nonpayable",
      "type": "function"
    },
    {
      "inputs": [
        {
          "internalType": "bytes32",
          "name": "role",
          "type": "bytes32"
        },
        {
          "internalType": "address",
          "name": "account",
          "type": "address"
        }
      ],
      "name": "revokeRole",
      "outputs": [],
      "stateMutability": "nonpayable",
      "type": "function"
    },
    {
      "inputs": [
        {
          "internalType": "address",
          "name": "from",
          "type": "address"
        },
        {
          "internalType": "address",
          "name": "to",
          "type": "address"
        },
        {
          "internalType": "uint256",
          "name": "tokenId",
          "type": "uint256"
        }
      ],
      "name": "safeTransferFrom",
      "outputs": [],
      "stateMutability": "nonpayable",
      "type": "function"
    },
    {
      "inputs": [
        {
          "internalType": "address",
          "name": "from",
          "type": "address"
        },
        {
          "internalType": "address",
          "name": "to",
          "type": "address"
        },
        {
          "internalType": "uint256",
          "name": "tokenId",
          "type": "uint256"
        },
        {
          "internalType": "bytes",
          "name": "_data",
          "type": "bytes"
        }
      ],
      "name": "safeTransferFrom",
      "outputs": [],
      "stateMutability": "nonpayable",
      "type": "function"
    },
    {
      "inputs": [
        {
          "internalType": "address",
          "name": "operator",
          "type": "address"
        },
        {
          "internalType": "bool",
          "name": "approved",
          "type": "bool"
        }
      ],
      "name": "setApprovalForAll",
      "outputs": [],
      "stateMutability": "nonpayable",
      "type": "function"
    },
    {
      "inputs": [
        {
          "internalType": "bytes4",
          "name": "interfaceId",
          "type": "bytes4"
        }
      ],
      "name": "supportsInterface",
      "outputs": [
        {
          "internalType": "bool",
          "name": "",
          "type": "bool"
        }
      ],
      "stateMutability": "view",
      "type": "function"
    },
    {
      "inputs": [],
      "name": "symbol",
      "outputs": [
        {
          "internalType": "string",
          "name": "",
          "type": "string"
        }
      ],
      "stateMutability": "view",
      "type": "function"
    },
    {
      "inputs": [
        {
          "internalType": "uint256",
          "name": "tokenId",
          "type": "uint256"
        }
      ],
      "name": "tokenURI",
      "outputs": [
        {
          "internalType": "string",
          "name": "",
          "type": "string"
        }
      ],
      "stateMutability": "view",
      "type": "function"
    },
    {
      "inputs": [
        {
          "internalType": "address",
          "name": "from",
          "type": "address"
        },
        {
          "internalType": "address",
          "name": "to",
          "type": "address"
        },
        {
          "internalType": "uint256",
          "name": "tokenId",
          "type": "uint256"
        }
      ],
      "name": "transferFrom",
      "outputs": [],
      "stateMutability": "nonpayable",
      "type": "function"
    },
    {
      "inputs": [
        {
          "internalType": "address",
          "name": "newOwner",
          "type": "address"
        }
      ],
      "name": "transferOwnership",
      "outputs": [],
      "stateMutability": "nonpayable",
      "type": "function"
    }
  ],
  "bytecode": "0x6101406040526703782dace9d90000600a5561206c600b556105dc600c5560c8600d8190556116a8600e55610fa0600f55601055601280546001600160a01b03199081167390f79bf6eb2c4f870365e785982e1f101e93b906179091556013805482167315d34aaf54267db7d7c367839aaf71a00a2c6a6517905560148054909116739965507d1a55bcc2695c58ba16fb37d819b0a4dc179055348015620000a657600080fd5b5060405162002e0938038062002e09833981016040819052620000c99162000409565b6040518060400160405280600f81526020016e2630bd3ca7232a16ab37bab1b432b960891b815250604051806040016040528060018152602001603160f81b8152506040518060400160405280601081526020016f4c415a592d4d494e5445445f424f495360801b815250604051806040016040528060048152602001634c415a5960e01b81525081600090805190602001906200016992919062000363565b5080516200017f90600190602084019062000363565b5050825160208085019190912083518483012060e08290526101008190524660a0818152604080517f8b73c3c69bb8fe3d512ecc4cf759cc79239f7b179b0ffacaa9a75d522b39400f81880181905281830187905260608201869052608082019490945230818401528151808203909301835260c0019052805194019390932091935091906080523060601b60c05261012052506200022a9250620002249150503390565b6200025d565b620002567f9f2df0fed2c77648de5860a4cc508cd0818c85b8b8a1ab4ceeef8d981c8956a682620002af565b5062000476565b600880546001600160a01b038381166001600160a01b0319831681179093556040519116919082907f8be0079c531659141344cd1fd0a4f28419497f9722a3daafe3b4186f6b6457e090600090a35050565b620002bb8282620002bf565b5050565b60008281526007602090815260408083206001600160a01b038516845290915290205460ff16620002bb5760008281526007602090815260408083206001600160a01b03851684529091529020805460ff191660011790556200031f3390565b6001600160a01b0316816001600160a01b0316837f2f8788117e7eff1d82e926ec794901d17c78024a50270940304540a733656f0d60405160405180910390a45050565b828054620003719062000439565b90600052602060002090601f016020900481019282620003955760008555620003e0565b82601f10620003b057805160ff1916838001178555620003e0565b82800160010185558215620003e0579182015b82811115620003e0578251825591602001919060010190620003c3565b50620003ee929150620003f2565b5090565b5b80821115620003ee5760008155600101620003f3565b6000602082840312156200041b578081fd5b81516001600160a01b038116811462000432578182fd5b9392505050565b600181811c908216806200044e57607f821691505b602082108114156200047057634e487b7160e01b600052602260045260246000fd5b50919050565b60805160a05160c05160601c60e0516101005161012051612952620004b76000396000505060005050600050506000505060005050600050506129526000f3fe60806040526004361061019c5760003560e01c806391d14854116100ec578063c87b56dd1161008a578063d539139311610064578063d5391393146104a0578063d547741f146104d4578063e985e9c5146104f4578063f2fde38b1461053d57600080fd5b8063c87b56dd14610440578063cbf8127c14610460578063d44d9d821461048057600080fd5b8063a1fd16fc116100c6578063a1fd16fc146103d8578063a217fddf146103eb578063a22cb46514610400578063b88d4fde1461042057600080fd5b806391d148541461038357806395d89b41146103a3578063a0712d68146103b857600080fd5b80632f2ff15d116101595780636352211e116101335780636352211e1461031057806370a0823114610330578063715018a6146103505780638da5cb5b1461036557600080fd5b80632f2ff15d146102b057806336568abe146102d057806342842e0e146102f057600080fd5b806301ffc9a7146101a157806306fdde03146101d6578063081812fc146101f8578063095ea7b31461023057806323b872dd14610252578063248a9ca314610272575b600080fd5b3480156101ad57600080fd5b506101c16101bc366004612491565b61055d565b60405190151581526020015b60405180910390f35b3480156101e257600080fd5b506101eb61057d565b6040516101cd9190612645565b34801561020457600080fd5b50610218610213366004612457565b61060f565b6040516001600160a01b0390911681526020016101cd565b34801561023c57600080fd5b5061025061024b36600461242e565b61069c565b005b34801561025e57600080fd5b5061025061026d3660046122e4565b6107b2565b34801561027e57600080fd5b506102a261028d366004612457565b60009081526007602052604090206001015490565b6040519081526020016101cd565b3480156102bc57600080fd5b506102506102cb36600461246f565b6107e3565b3480156102dc57600080fd5b506102506102eb36600461246f565b610809565b3480156102fc57600080fd5b5061025061030b3660046122e4565b610887565b34801561031c57600080fd5b5061021861032b366004612457565b6108a2565b34801561033c57600080fd5b506102a261034b366004612298565b610919565b34801561035c57600080fd5b506102506109a0565b34801561037157600080fd5b506008546001600160a01b0316610218565b34801561038f57600080fd5b506101c161039e36600461246f565b6109d6565b3480156103af57600080fd5b506101eb610a01565b3480156103c457600080fd5b506102506103d3366004612457565b610a10565b6102506103e63660046124c9565b610a69565b3480156103f757600080fd5b506102a2600081565b34801561040c57600080fd5b5061025061041b3660046123f4565b610d8f565b34801561042c57600080fd5b5061025061043b36600461231f565b610d9a565b34801561044c57600080fd5b506101eb61045b366004612457565b610dd2565b34801561046c57600080fd5b5061025061047b366004612298565b610f49565b34801561048c57600080fd5b5061021861049b3660046124c9565b610f97565b3480156104ac57600080fd5b506102a27f9f2df0fed2c77648de5860a4cc508cd0818c85b8b8a1ab4ceeef8d981c8956a681565b3480156104e057600080fd5b506102506104ef36600461246f565b61101a565b34801561050057600080fd5b506101c161050f3660046122b2565b6001600160a01b03918216600090815260056020908152604080832093909416825291909152205460ff1690565b34801561054957600080fd5b50610250610558366004612298565b611040565b6000610568826110d8565b80610577575061057782611128565b92915050565b60606000805461058c90612803565b80601f01602080910402602001604051908101604052809291908181526020018280546105b890612803565b80156106055780601f106105da57610100808354040283529160200191610605565b820191906000526020600020905b8154815290600101906020018083116105e857829003601f168201915b5050505050905090565b600061061a8261114d565b6106805760405162461bcd60e51b815260206004820152602c60248201527f4552433732313a20617070726f76656420717565727920666f72206e6f6e657860448201526b34b9ba32b73a103a37b5b2b760a11b60648201526084015b60405180910390fd5b506000908152600460205260409020546001600160a01b031690565b60006106a7826108a2565b9050806001600160a01b0316836001600160a01b031614156107155760405162461bcd60e51b815260206004820152602160248201527f4552433732313a20617070726f76616c20746f2063757272656e74206f776e656044820152603960f91b6064820152608401610677565b336001600160a01b03821614806107315750610731813361050f565b6107a35760405162461bcd60e51b815260206004820152603860248201527f4552433732313a20617070726f76652063616c6c6572206973206e6f74206f7760448201527f6e6572206e6f7220617070726f76656420666f7220616c6c00000000000000006064820152608401610677565b6107ad838361116a565b505050565b6107bc33826111d8565b6107d85760405162461bcd60e51b81526004016106779061270d565b6107ad8383836112be565b6000828152600760205260409020600101546107ff813361145e565b6107ad83836114c2565b6001600160a01b03811633146108795760405162461bcd60e51b815260206004820152602f60248201527f416363657373436f6e74726f6c3a2063616e206f6e6c792072656e6f756e636560448201526e103937b632b9903337b91039b2b63360891b6064820152608401610677565b6108838282611548565b5050565b6107ad83838360405180602001604052806000815250610d9a565b6000818152600260205260408120546001600160a01b0316806105775760405162461bcd60e51b815260206004820152602960248201527f4552433732313a206f776e657220717565727920666f72206e6f6e657869737460448201526832b73a103a37b5b2b760b91b6064820152608401610677565b60006001600160a01b0382166109845760405162461bcd60e51b815260206004820152602a60248201527f4552433732313a2062616c616e636520717565727920666f7220746865207a65604482015269726f206164647265737360b01b6064820152608401610677565b506001600160a01b031660009081526003602052604090205490565b6008546001600160a01b031633146109ca5760405162461bcd60e51b8152600401610677906126d8565b6109d460006115af565b565b60009182526007602090815260408084206001600160a01b0393909316845291905290205460ff1690565b60606001805461058c90612803565b6008546001600160a01b03163314610a3a5760405162461bcd60e51b8152600401610677906126d8565b610a443382611601565b610a66816040518060800160405280605781526020016128c660579139611734565b50565b6000610a7785858585610f97565b9050610aa37f9f2df0fed2c77648de5860a4cc508cd0818c85b8b8a1ab4ceeef8d981c8956a6826109d6565b610af95760405162461bcd60e51b815260206004820152602160248201527f5369676e617475726520696e76616c6964206f7220756e617574686f72697a656044820152601960fa1b6064820152608401610677565b600a543414610b3d5760405162461bcd60e51b815260206004820152601060248201526f6e6f7420656e6f756768206d6f6e657960801b6044820152606401610677565b6000610b4860095490565b9050610b58600980546001019055565b610b628282611601565b610ba28187878080601f01602080910402602001604051908101604052809392919081815260200183838082843760009201919091525061173492505050565b610bad8233836112be565b336000908152601160205260408120548190819060ff1615610bdd57600e549250600f5491506010549050610bed565b600b549250600c549150600d5490505b6012546000906001600160a01b0316612710610c09863461278a565b610c139190612776565b604051600081818185875af1925050503d8060008114610c4f576040519150601f19603f3d011682016040523d82523d6000602084013e610c54565b606091505b5050905080610c755760405162461bcd60e51b8152600401610677906126aa565b6013546001600160a01b0316612710610c8e853461278a565b610c989190612776565b604051600081818185875af1925050503d8060008114610cd4576040519150601f19603f3d011682016040523d82523d6000602084013e610cd9565b606091505b50508091505080610cfc5760405162461bcd60e51b8152600401610677906126aa565b6014546001600160a01b0316612710610d15843461278a565b610d1f9190612776565b604051600081818185875af1925050503d8060008114610d5b576040519150601f19603f3d011682016040523d82523d6000602084013e610d60565b606091505b50508091505080610d835760405162461bcd60e51b8152600401610677906126aa565b50505050505050505050565b6108833383836117bf565b610da433836111d8565b610dc05760405162461bcd60e51b81526004016106779061270d565b610dcc8484848461188e565b50505050565b6060610ddd8261114d565b610e435760405162461bcd60e51b815260206004820152603160248201527f45524337323155524953746f726167653a2055524920717565727920666f72206044820152703737b732bc34b9ba32b73a103a37b5b2b760791b6064820152608401610677565b60008281526006602052604081208054610e5c90612803565b80601f0160208091040260200160405190810160405280929190818152602001828054610e8890612803565b8015610ed55780601f10610eaa57610100808354040283529160200191610ed5565b820191906000526020600020905b815481529060010190602001808311610eb857829003601f168201915b505050505090506000610ef360408051602081019091526000815290565b9050805160001415610f06575092915050565b815115610f38578082604051602001610f2092919061256e565b60405160208183030381529060405292505050919050565b610f41846118c1565b949350505050565b6008546001600160a01b03163314610f735760405162461bcd60e51b8152600401610677906126d8565b6001600160a01b03166000908152601160205260409020805460ff19166001179055565b6000808585604051602001610fad92919061255e565b60405160208183030381529060405280519060200120905061101084848080601f01602080910402602001604051908101604052809392919081815260200183838082843760009201919091525061100a92508591506119999050565b906119ec565b9695505050505050565b600082815260076020526040902060010154611036813361145e565b6107ad8383611548565b6008546001600160a01b0316331461106a5760405162461bcd60e51b8152600401610677906126d8565b6001600160a01b0381166110cf5760405162461bcd60e51b815260206004820152602660248201527f4f776e61626c653a206e6577206f776e657220697320746865207a65726f206160448201526564647265737360d01b6064820152608401610677565b610a66816115af565b60006001600160e01b031982166380ac58cd60e01b148061110957506001600160e01b03198216635b5e139f60e01b145b8061057757506301ffc9a760e01b6001600160e01b0319831614610577565b60006001600160e01b03198216637965db0b60e01b14806105775750610577826110d8565b6000908152600260205260409020546001600160a01b0316151590565b600081815260046020526040902080546001600160a01b0319166001600160a01b038416908117909155819061119f826108a2565b6001600160a01b03167f8c5be1e5ebec7d5bd14f71427d1e84f3dd0314c0f7b2291e5b200ac8c7c3b92560405160405180910390a45050565b60006111e38261114d565b6112445760405162461bcd60e51b815260206004820152602c60248201527f4552433732313a206f70657261746f7220717565727920666f72206e6f6e657860448201526b34b9ba32b73a103a37b5b2b760a11b6064820152608401610677565b600061124f836108a2565b9050806001600160a01b0316846001600160a01b0316148061128a5750836001600160a01b031661127f8461060f565b6001600160a01b0316145b80610f4157506001600160a01b0380821660009081526005602090815260408083209388168352929052205460ff16610f41565b826001600160a01b03166112d1826108a2565b6001600160a01b0316146113395760405162461bcd60e51b815260206004820152602960248201527f4552433732313a207472616e73666572206f6620746f6b656e2074686174206960448201526839903737ba1037bbb760b91b6064820152608401610677565b6001600160a01b03821661139b5760405162461bcd60e51b8152602060048201526024808201527f4552433732313a207472616e7366657220746f20746865207a65726f206164646044820152637265737360e01b6064820152608401610677565b6113a660008261116a565b6001600160a01b03831660009081526003602052604081208054600192906113cf9084906127a9565b90915550506001600160a01b03821660009081526003602052604081208054600192906113fd90849061275e565b909155505060008181526002602052604080822080546001600160a01b0319166001600160a01b0386811691821790925591518493918716917fddf252ad1be2c89b69c2b068fc378daa952ba7f163c4a11628f55a4df523b3ef91a4505050565b61146882826109d6565b61088357611480816001600160a01b03166014611a10565b61148b836020611a10565b60405160200161149c92919061259d565b60408051601f198184030181529082905262461bcd60e51b825261067791600401612645565b6114cc82826109d6565b6108835760008281526007602090815260408083206001600160a01b03851684529091529020805460ff191660011790556115043390565b6001600160a01b0316816001600160a01b0316837f2f8788117e7eff1d82e926ec794901d17c78024a50270940304540a733656f0d60405160405180910390a45050565b61155282826109d6565b156108835760008281526007602090815260408083206001600160a01b0385168085529252808320805460ff1916905551339285917ff6391f5c32d9c69d2a47ea670b442974b53935d1edc7fd64eb21e047a839171b9190a45050565b600880546001600160a01b038381166001600160a01b0319831681179093556040519116919082907f8be0079c531659141344cd1fd0a4f28419497f9722a3daafe3b4186f6b6457e090600090a35050565b6001600160a01b0382166116575760405162461bcd60e51b815260206004820181905260248201527f4552433732313a206d696e7420746f20746865207a65726f20616464726573736044820152606401610677565b6116608161114d565b156116ad5760405162461bcd60e51b815260206004820152601c60248201527f4552433732313a20746f6b656e20616c7265616479206d696e746564000000006044820152606401610677565b6001600160a01b03821660009081526003602052604081208054600192906116d690849061275e565b909155505060008181526002602052604080822080546001600160a01b0319166001600160a01b03861690811790915590518392907fddf252ad1be2c89b69c2b068fc378daa952ba7f163c4a11628f55a4df523b3ef908290a45050565b61173d8261114d565b6117a05760405162461bcd60e51b815260206004820152602e60248201527f45524337323155524953746f726167653a2055524920736574206f66206e6f6e60448201526d32bc34b9ba32b73a103a37b5b2b760911b6064820152608401610677565b600082815260066020908152604090912082516107ad928401906121a3565b816001600160a01b0316836001600160a01b031614156118215760405162461bcd60e51b815260206004820152601960248201527f4552433732313a20617070726f766520746f2063616c6c6572000000000000006044820152606401610677565b6001600160a01b03838116600081815260056020908152604080832094871680845294825291829020805460ff191686151590811790915591519182527f17307eab39ab6107e8899845ad3d59bd9653f200f220920489ca2b5937696c31910160405180910390a3505050565b6118998484846112be565b6118a584848484611bf2565b610dcc5760405162461bcd60e51b815260040161067790612658565b60606118cc8261114d565b6119305760405162461bcd60e51b815260206004820152602f60248201527f4552433732314d657461646174613a2055524920717565727920666f72206e6f60448201526e3732bc34b9ba32b73a103a37b5b2b760891b6064820152608401610677565b600061194760408051602081019091526000815290565b905060008151116119675760405180602001604052806000815250611992565b8061197184611cfc565b60405160200161198292919061256e565b6040516020818303038152906040525b9392505050565b6040517f19457468657265756d205369676e6564204d6573736167653a0a3332000000006020820152603c8101829052600090605c01604051602081830303815290604052805190602001209050919050565b60008060006119fb8585611e16565b91509150611a0881611e86565b509392505050565b60606000611a1f83600261278a565b611a2a90600261275e565b67ffffffffffffffff811115611a5057634e487b7160e01b600052604160045260246000fd5b6040519080825280601f01601f191660200182016040528015611a7a576020820181803683370190505b509050600360fc1b81600081518110611aa357634e487b7160e01b600052603260045260246000fd5b60200101906001600160f81b031916908160001a905350600f60fb1b81600181518110611ae057634e487b7160e01b600052603260045260246000fd5b60200101906001600160f81b031916908160001a9053506000611b0484600261278a565b611b0f90600161275e565b90505b6001811115611ba3576f181899199a1a9b1b9c1cb0b131b232b360811b85600f1660108110611b5157634e487b7160e01b600052603260045260246000fd5b1a60f81b828281518110611b7557634e487b7160e01b600052603260045260246000fd5b60200101906001600160f81b031916908160001a90535060049490941c93611b9c816127ec565b9050611b12565b5083156119925760405162461bcd60e51b815260206004820181905260248201527f537472696e67733a20686578206c656e67746820696e73756666696369656e746044820152606401610677565b60006001600160a01b0384163b15611cf457604051630a85bd0160e11b81526001600160a01b0385169063150b7a0290611c36903390899088908890600401612612565b602060405180830381600087803b158015611c5057600080fd5b505af1925050508015611c80575060408051601f3d908101601f19168201909252611c7d918101906124ad565b60015b611cda573d808015611cae576040519150601f19603f3d011682016040523d82523d6000602084013e611cb3565b606091505b508051611cd25760405162461bcd60e51b815260040161067790612658565b805181602001fd5b6001600160e01b031916630a85bd0160e11b149050610f41565b506001610f41565b606081611d205750506040805180820190915260018152600360fc1b602082015290565b8160005b8115611d4a5780611d348161283e565b9150611d439050600a83612776565b9150611d24565b60008167ffffffffffffffff811115611d7357634e487b7160e01b600052604160045260246000fd5b6040519080825280601f01601f191660200182016040528015611d9d576020820181803683370190505b5090505b8415610f4157611db26001836127a9565b9150611dbf600a86612859565b611dca90603061275e565b60f81b818381518110611ded57634e487b7160e01b600052603260045260246000fd5b60200101906001600160f81b031916908160001a905350611e0f600a86612776565b9450611da1565b600080825160411415611e4d5760208301516040840151606085015160001a611e4187828585612087565b94509450505050611e7f565b825160401415611e775760208301516040840151611e6c868383612174565b935093505050611e7f565b506000905060025b9250929050565b6000816004811115611ea857634e487b7160e01b600052602160045260246000fd5b1415611eb15750565b6001816004811115611ed357634e487b7160e01b600052602160045260246000fd5b1415611f215760405162461bcd60e51b815260206004820152601860248201527f45434453413a20696e76616c6964207369676e617475726500000000000000006044820152606401610677565b6002816004811115611f4357634e487b7160e01b600052602160045260246000fd5b1415611f915760405162461bcd60e51b815260206004820152601f60248201527f45434453413a20696e76616c6964207369676e6174757265206c656e677468006044820152606401610677565b6003816004811115611fb357634e487b7160e01b600052602160045260246000fd5b141561200c5760405162461bcd60e51b815260206004820152602260248201527f45434453413a20696e76616c6964207369676e6174757265202773272076616c604482015261756560f01b6064820152608401610677565b600481600481111561202e57634e487b7160e01b600052602160045260246000fd5b1415610a665760405162461bcd60e51b815260206004820152602260248201527f45434453413a20696e76616c6964207369676e6174757265202776272076616c604482015261756560f01b6064820152608401610677565b6000807f7fffffffffffffffffffffffffffffff5d576e7357a4501ddfe92f46681b20a08311156120be575060009050600361216b565b8460ff16601b141580156120d657508460ff16601c14155b156120e7575060009050600461216b565b6040805160008082526020820180845289905260ff881692820192909252606081018690526080810185905260019060a0016020604051602081039080840390855afa15801561213b573d6000803e3d6000fd5b5050604051601f1901519150506001600160a01b0381166121645760006001925092505061216b565b9150600090505b94509492505050565b6000806001600160ff1b03831660ff84901c601b0161219587828885612087565b935093505050935093915050565b8280546121af90612803565b90600052602060002090601f0160209004810192826121d15760008555612217565b82601f106121ea57805160ff1916838001178555612217565b82800160010185558215612217579182015b828111156122175782518255916020019190600101906121fc565b50612223929150612227565b5090565b5b808211156122235760008155600101612228565b80356001600160a01b038116811461225357600080fd5b919050565b60008083601f840112612269578182fd5b50813567ffffffffffffffff811115612280578182fd5b602083019150836020828501011115611e7f57600080fd5b6000602082840312156122a9578081fd5b6119928261223c565b600080604083850312156122c4578081fd5b6122cd8361223c565b91506122db6020840161223c565b90509250929050565b6000806000606084860312156122f8578081fd5b6123018461223c565b925061230f6020850161223c565b9150604084013590509250925092565b60008060008060808587031215612334578081fd5b61233d8561223c565b935061234b6020860161223c565b925060408501359150606085013567ffffffffffffffff8082111561236e578283fd5b818701915087601f830112612381578283fd5b81358181111561239357612393612899565b604051601f8201601f19908116603f011681019083821181831017156123bb576123bb612899565b816040528281528a60208487010111156123d3578586fd5b82602086016020830137918201602001949094529598949750929550505050565b60008060408385031215612406578182fd5b61240f8361223c565b915060208301358015158114612423578182fd5b809150509250929050565b60008060408385031215612440578182fd5b6124498361223c565b946020939093013593505050565b600060208284031215612468578081fd5b5035919050565b60008060408385031215612481578182fd5b823591506122db6020840161223c565b6000602082840312156124a2578081fd5b8135611992816128af565b6000602082840312156124be578081fd5b8151611992816128af565b600080600080604085870312156124de578384fd5b843567ffffffffffffffff808211156124f5578586fd5b61250188838901612258565b90965094506020870135915080821115612519578384fd5b5061252687828801612258565b95989497509550505050565b6000815180845261254a8160208601602086016127c0565b601f01601f19169290920160200192915050565b8183823760009101908152919050565b600083516125808184602088016127c0565b8351908301906125948183602088016127c0565b01949350505050565b7f416363657373436f6e74726f6c3a206163636f756e74200000000000000000008152600083516125d58160178501602088016127c0565b7001034b99036b4b9b9b4b733903937b6329607d1b60179184019182015283516126068160288401602088016127c0565b01602801949350505050565b6001600160a01b038581168252841660208201526040810183905260806060820181905260009061101090830184612532565b6020815260006119926020830184612532565b60208082526032908201527f4552433732313a207472616e7366657220746f206e6f6e20455243373231526560408201527131b2b4bb32b91034b6b83632b6b2b73a32b960711b606082015260800190565b6020808252601490820152732330b4b632b2103a379039b2b7321022ba3432b960611b604082015260600190565b6020808252818101527f4f776e61626c653a2063616c6c6572206973206e6f7420746865206f776e6572604082015260600190565b60208082526031908201527f4552433732313a207472616e736665722063616c6c6572206973206e6f74206f6040820152701ddb995c881b9bdc88185c1c1c9bdd9959607a1b606082015260800190565b600082198211156127715761277161286d565b500190565b60008261278557612785612883565b500490565b60008160001904831182151516156127a4576127a461286d565b500290565b6000828210156127bb576127bb61286d565b500390565b60005b838110156127db5781810151838201526020016127c3565b83811115610dcc5750506000910152565b6000816127fb576127fb61286d565b506000190190565b600181811c9082168061281757607f821691505b6020821081141561283857634e487b7160e01b600052602260045260246000fd5b50919050565b60006000198214156128525761285261286d565b5060010190565b60008261286857612868612883565b500690565b634e487b7160e01b600052601160045260246000fd5b634e487b7160e01b600052601260045260246000fd5b634e487b7160e01b600052604160045260246000fd5b6001600160e01b031981168114610a6657600080fdfe68747470733a2f2f676174657761792e70696e6174612e636c6f75642f697066732f516d596935393156534e6e3177506d5244444e34426d477147477050646263324775424a4771767859713245485a2f312e6a736f6ea2646970667358221220ce3561b6f36de378b87bfd11ff47b803e90f2f4dab303ffbfb86061cea84d32564736f6c63430008040033",
  "linkReferences": {},
  "deployedLinkReferences": {}
}