{
  "_format": "hh-sol-artifact-1",
  "contractName": "Lazy",
  "sourceName": "contracts/Lazy.sol",
  "abi": [
    {
      "inputs": [
        {
          "internalType": "address payable",
          "name": "minter",
          "type": "address"
        }
      ],
      "stateMutability": "nonpayable",
      "type": "constructor"
    },
    {
      "anonymous": false,
      "inputs": [
        {
          "indexed": true,
          "internalType": "address",
          "name": "owner",
          "type": "address"
        },
        {
          "indexed": true,
          "internalType": "address",
          "name": "approved",
          "type": "address"
        },
        {
          "indexed": true,
          "internalType": "uint256",
          "name": "tokenId",
          "type": "uint256"
        }
      ],
      "name": "Approval",
      "type": "event"
    },
    {
      "anonymous": false,
      "inputs": [
        {
          "indexed": true,
          "internalType": "address",
          "name": "owner",
          "type": "address"
        },
        {
          "indexed": true,
          "internalType": "address",
          "name": "operator",
          "type": "address"
        },
        {
          "indexed": false,
          "internalType": "bool",
          "name": "approved",
          "type": "bool"
        }
      ],
      "name": "ApprovalForAll",
      "type": "event"
    },
    {
      "anonymous": false,
      "inputs": [
        {
          "indexed": true,
          "internalType": "bytes32",
          "name": "role",
          "type": "bytes32"
        },
        {
          "indexed": true,
          "internalType": "bytes32",
          "name": "previousAdminRole",
          "type": "bytes32"
        },
        {
          "indexed": true,
          "internalType": "bytes32",
          "name": "newAdminRole",
          "type": "bytes32"
        }
      ],
      "name": "RoleAdminChanged",
      "type": "event"
    },
    {
      "anonymous": false,
      "inputs": [
        {
          "indexed": true,
          "internalType": "bytes32",
          "name": "role",
          "type": "bytes32"
        },
        {
          "indexed": true,
          "internalType": "address",
          "name": "account",
          "type": "address"
        },
        {
          "indexed": true,
          "internalType": "address",
          "name": "sender",
          "type": "address"
        }
      ],
      "name": "RoleGranted",
      "type": "event"
    },
    {
      "anonymous": false,
      "inputs": [
        {
          "indexed": true,
          "internalType": "bytes32",
          "name": "role",
          "type": "bytes32"
        },
        {
          "indexed": true,
          "internalType": "address",
          "name": "account",
          "type": "address"
        },
        {
          "indexed": true,
          "internalType": "address",
          "name": "sender",
          "type": "address"
        }
      ],
      "name": "RoleRevoked",
      "type": "event"
    },
    {
      "anonymous": false,
      "inputs": [
        {
          "indexed": true,
          "internalType": "address",
          "name": "from",
          "type": "address"
        },
        {
          "indexed": true,
          "internalType": "address",
          "name": "to",
          "type": "address"
        },
        {
          "indexed": true,
          "internalType": "uint256",
          "name": "tokenId",
          "type": "uint256"
        }
      ],
      "name": "Transfer",
      "type": "event"
    },
    {
      "inputs": [],
      "name": "DEFAULT_ADMIN_ROLE",
      "outputs": [
        {
          "internalType": "bytes32",
          "name": "",
          "type": "bytes32"
        }
      ],
      "stateMutability": "view",
      "type": "function"
    },
    {
      "inputs": [],
      "name": "MINTER_ROLE",
      "outputs": [
        {
          "internalType": "bytes32",
          "name": "",
          "type": "bytes32"
        }
      ],
      "stateMutability": "view",
      "type": "function"
    },
    {
      "inputs": [
        {
          "internalType": "address",
          "name": "to",
          "type": "address"
        },
        {
          "internalType": "uint256",
          "name": "tokenId",
          "type": "uint256"
        }
      ],
      "name": "approve",
      "outputs": [],
      "stateMutability": "nonpayable",
      "type": "function"
    },
    {
      "inputs": [
        {
          "internalType": "address",
          "name": "owner",
          "type": "address"
        }
      ],
      "name": "balanceOf",
      "outputs": [
        {
          "internalType": "uint256",
          "name": "",
          "type": "uint256"
        }
      ],
      "stateMutability": "view",
      "type": "function"
    },
    {
      "inputs": [
        {
          "internalType": "uint256",
          "name": "tokenId",
          "type": "uint256"
        }
      ],
      "name": "getApproved",
      "outputs": [
        {
          "internalType": "address",
          "name": "",
          "type": "address"
        }
      ],
      "stateMutability": "view",
      "type": "function"
    },
    {
      "inputs": [
        {
          "internalType": "bytes32",
          "name": "role",
          "type": "bytes32"
        }
      ],
      "name": "getRoleAdmin",
      "outputs": [
        {
          "internalType": "bytes32",
          "name": "",
          "type": "bytes32"
        }
      ],
      "stateMutability": "view",
      "type": "function"
    },
    {
      "inputs": [
        {
          "internalType": "bytes32",
          "name": "role",
          "type": "bytes32"
        },
        {
          "internalType": "address",
          "name": "account",
          "type": "address"
        }
      ],
      "name": "grantRole",
      "outputs": [],
      "stateMutability": "nonpayable",
      "type": "function"
    },
    {
      "inputs": [
        {
          "internalType": "bytes32",
          "name": "role",
          "type": "bytes32"
        },
        {
          "internalType": "address",
          "name": "account",
          "type": "address"
        }
      ],
      "name": "hasRole",
      "outputs": [
        {
          "internalType": "bool",
          "name": "",
          "type": "bool"
        }
      ],
      "stateMutability": "view",
      "type": "function"
    },
    {
      "inputs": [
        {
          "internalType": "address",
          "name": "owner",
          "type": "address"
        },
        {
          "internalType": "address",
          "name": "operator",
          "type": "address"
        }
      ],
      "name": "isApprovedForAll",
      "outputs": [
        {
          "internalType": "bool",
          "name": "",
          "type": "bool"
        }
      ],
      "stateMutability": "view",
      "type": "function"
    },
    {
      "inputs": [
        {
          "internalType": "string",
          "name": "message",
          "type": "string"
        },
        {
          "internalType": "bytes",
          "name": "sign",
          "type": "bytes"
        }
      ],
      "name": "mintToken",
      "outputs": [],
      "stateMutability": "payable",
      "type": "function"
    },
    {
      "inputs": [],
      "name": "name",
      "outputs": [
        {
          "internalType": "string",
          "name": "",
          "type": "string"
        }
      ],
      "stateMutability": "view",
      "type": "function"
    },
    {
      "inputs": [
        {
          "internalType": "uint256",
          "name": "tokenId",
          "type": "uint256"
        }
      ],
      "name": "ownerOf",
      "outputs": [
        {
          "internalType": "address",
          "name": "",
          "type": "address"
        }
      ],
      "stateMutability": "view",
      "type": "function"
    },
    {
      "inputs": [
        {
          "internalType": "bytes32",
          "name": "role",
          "type": "bytes32"
        },
        {
          "internalType": "address",
          "name": "account",
          "type": "address"
        }
      ],
      "name": "renounceRole",
      "outputs": [],
      "stateMutability": "nonpayable",
      "type": "function"
    },
    {
      "inputs": [
        {
          "internalType": "bytes32",
          "name": "role",
          "type": "bytes32"
        },
        {
          "internalType": "address",
          "name": "account",
          "type": "address"
        }
      ],
      "name": "revokeRole",
      "outputs": [],
      "stateMutability": "nonpayable",
      "type": "function"
    },
    {
      "inputs": [
        {
          "internalType": "address",
          "name": "from",
          "type": "address"
        },
        {
          "internalType": "address",
          "name": "to",
          "type": "address"
        },
        {
          "internalType": "uint256",
          "name": "tokenId",
          "type": "uint256"
        }
      ],
      "name": "safeTransferFrom",
      "outputs": [],
      "stateMutability": "nonpayable",
      "type": "function"
    },
    {
      "inputs": [
        {
          "internalType": "address",
          "name": "from",
          "type": "address"
        },
        {
          "internalType": "address",
          "name": "to",
          "type": "address"
        },
        {
          "internalType": "uint256",
          "name": "tokenId",
          "type": "uint256"
        },
        {
          "internalType": "bytes",
          "name": "_data",
          "type": "bytes"
        }
      ],
      "name": "safeTransferFrom",
      "outputs": [],
      "stateMutability": "nonpayable",
      "type": "function"
    },
    {
      "inputs": [
        {
          "internalType": "address",
          "name": "operator",
          "type": "address"
        },
        {
          "internalType": "bool",
          "name": "approved",
          "type": "bool"
        }
      ],
      "name": "setApprovalForAll",
      "outputs": [],
      "stateMutability": "nonpayable",
      "type": "function"
    },
    {
      "inputs": [
        {
          "internalType": "bytes4",
          "name": "interfaceId",
          "type": "bytes4"
        }
      ],
      "name": "supportsInterface",
      "outputs": [
        {
          "internalType": "bool",
          "name": "",
          "type": "bool"
        }
      ],
      "stateMutability": "view",
      "type": "function"
    },
    {
      "inputs": [],
      "name": "symbol",
      "outputs": [
        {
          "internalType": "string",
          "name": "",
          "type": "string"
        }
      ],
      "stateMutability": "view",
      "type": "function"
    },
    {
      "inputs": [
        {
          "internalType": "uint256",
          "name": "tokenId",
          "type": "uint256"
        }
      ],
      "name": "tokenURI",
      "outputs": [
        {
          "internalType": "string",
          "name": "",
          "type": "string"
        }
      ],
      "stateMutability": "view",
      "type": "function"
    },
    {
      "inputs": [
        {
          "internalType": "address",
          "name": "from",
          "type": "address"
        },
        {
          "internalType": "address",
          "name": "to",
          "type": "address"
        },
        {
          "internalType": "uint256",
          "name": "tokenId",
          "type": "uint256"
        }
      ],
      "name": "transferFrom",
      "outputs": [],
      "stateMutability": "nonpayable",
      "type": "function"
    }
  ],
  "bytecode": "0x6101406040526703782dace9d9000060095561206c600a556105dc600b5560c8600c819055612648600d556064600e819055600f55610fa06010556116a860115560125560148054730d4ae8effbcdf74f6005a4a4b6a28b50f36b75f06001600160a01b03199182168117909255601580548216831790556016805490911690911790553480156200009057600080fd5b5060405162002a1b38038062002a1b833981016040819052620000b39162000390565b6040518060400160405280600f81526020016e2630bd3ca7232a16ab37bab1b432b960891b815250604051806040016040528060018152602001603160f81b8152506040518060400160405280601081526020016f4c415a592d4d494e5445445f424f495360801b815250604051806040016040528060048152602001634c415a5960e01b815250816000908051906020019062000153929190620002ea565b50805162000169906001906020840190620002ea565b5050825160208085019190912083518483012060e08290526101008190524660a0818152604080517f8b73c3c69bb8fe3d512ecc4cf759cc79239f7b179b0ffacaa9a75d522b39400f81880181905281830187905260608201869052608082019490945230818401528151808203909301835260c0019052805194019390932091935091906080523060601b60c05261012052506200022f92507f9f2df0fed2c77648de5860a4cc508cd0818c85b8b8a1ab4ceeef8d981c8956a6915083905062000236565b50620003fd565b62000242828262000246565b5050565b60008281526007602090815260408083206001600160a01b038516845290915290205460ff16620002425760008281526007602090815260408083206001600160a01b03851684529091529020805460ff19166001179055620002a63390565b6001600160a01b0316816001600160a01b0316837f2f8788117e7eff1d82e926ec794901d17c78024a50270940304540a733656f0d60405160405180910390a45050565b828054620002f890620003c0565b90600052602060002090601f0160209004810192826200031c576000855562000367565b82601f106200033757805160ff191683800117855562000367565b8280016001018555821562000367579182015b82811115620003675782518255916020019190600101906200034a565b506200037592915062000379565b5090565b5b808211156200037557600081556001016200037a565b600060208284031215620003a2578081fd5b81516001600160a01b0381168114620003b9578182fd5b9392505050565b600181811c90821680620003d557607f821691505b60208210811415620003f757634e487b7160e01b600052602260045260246000fd5b50919050565b60805160a05160c05160601c60e05161010051610120516125dd6200043e6000396000505060005050600050506000505060005050600050506125dd6000f3fe60806040526004361061012a5760003560e01c806370a08231116100ab578063a22cb4651161006f578063a22cb4651461033b578063b88d4fde1461035b578063c87b56dd1461037b578063d53913931461039b578063d547741f146103cf578063e985e9c5146103ef57600080fd5b806370a08231146102be57806391d14854146102de57806395d89b41146102fe578063a1fd16fc14610313578063a217fddf1461032657600080fd5b8063248a9ca3116100f2578063248a9ca3146102005780632f2ff15d1461023e57806336568abe1461025e57806342842e0e1461027e5780636352211e1461029e57600080fd5b806301ffc9a71461012f57806306fdde0314610164578063081812fc14610186578063095ea7b3146101be57806323b872dd146101e0575b600080fd5b34801561013b57600080fd5b5061014f61014a3660046121a8565b610438565b60405190151581526020015b60405180910390f35b34801561017057600080fd5b50610179610458565b60405161015b919061235c565b34801561019257600080fd5b506101a66101a136600461216e565b6104ea565b6040516001600160a01b03909116815260200161015b565b3480156101ca57600080fd5b506101de6101d9366004612145565b610577565b005b3480156101ec57600080fd5b506101de6101fb366004611ffb565b61068d565b34801561020c57600080fd5b5061023061021b36600461216e565b60009081526007602052604090206001015490565b60405190815260200161015b565b34801561024a57600080fd5b506101de610259366004612186565b6106be565b34801561026a57600080fd5b506101de610279366004612186565b6106e4565b34801561028a57600080fd5b506101de610299366004611ffb565b610762565b3480156102aa57600080fd5b506101a66102b936600461216e565b61077d565b3480156102ca57600080fd5b506102306102d9366004611faf565b6107f4565b3480156102ea57600080fd5b5061014f6102f9366004612186565b61087b565b34801561030a57600080fd5b506101796108a6565b6101de6103213660046121e0565b6108b5565b34801561033257600080fd5b50610230600081565b34801561034757600080fd5b506101de61035636600461210b565b610bdb565b34801561036757600080fd5b506101de610376366004612036565b610be6565b34801561038757600080fd5b5061017961039636600461216e565b610c1e565b3480156103a757600080fd5b506102307f9f2df0fed2c77648de5860a4cc508cd0818c85b8b8a1ab4ceeef8d981c8956a681565b3480156103db57600080fd5b506101de6103ea366004612186565b610d95565b3480156103fb57600080fd5b5061014f61040a366004611fc9565b6001600160a01b03918216600090815260056020908152604080832093909416825291909152205460ff1690565b600061044382610dbb565b80610452575061045282610e0b565b92915050565b606060008054610467906124e5565b80601f0160208091040260200160405190810160405280929190818152602001828054610493906124e5565b80156104e05780601f106104b5576101008083540402835291602001916104e0565b820191906000526020600020905b8154815290600101906020018083116104c357829003601f168201915b5050505050905090565b60006104f582610e30565b61055b5760405162461bcd60e51b815260206004820152602c60248201527f4552433732313a20617070726f76656420717565727920666f72206e6f6e657860448201526b34b9ba32b73a103a37b5b2b760a11b60648201526084015b60405180910390fd5b506000908152600460205260409020546001600160a01b031690565b60006105828261077d565b9050806001600160a01b0316836001600160a01b031614156105f05760405162461bcd60e51b815260206004820152602160248201527f4552433732313a20617070726f76616c20746f2063757272656e74206f776e656044820152603960f91b6064820152608401610552565b336001600160a01b038216148061060c575061060c813361040a565b61067e5760405162461bcd60e51b815260206004820152603860248201527f4552433732313a20617070726f76652063616c6c6572206973206e6f74206f7760448201527f6e6572206e6f7220617070726f76656420666f7220616c6c00000000000000006064820152608401610552565b6106888383610e4d565b505050565b6106973382610ebb565b6106b35760405162461bcd60e51b8152600401610552906123ef565b610688838383610fa1565b6000828152600760205260409020600101546106da8133611141565b61068883836111a5565b6001600160a01b03811633146107545760405162461bcd60e51b815260206004820152602f60248201527f416363657373436f6e74726f6c3a2063616e206f6e6c792072656e6f756e636560448201526e103937b632b9903337b91039b2b63360891b6064820152608401610552565b61075e828261122b565b5050565b61068883838360405180602001604052806000815250610be6565b6000818152600260205260408120546001600160a01b0316806104525760405162461bcd60e51b815260206004820152602960248201527f4552433732313a206f776e657220717565727920666f72206e6f6e657869737460448201526832b73a103a37b5b2b760b91b6064820152608401610552565b60006001600160a01b03821661085f5760405162461bcd60e51b815260206004820152602a60248201527f4552433732313a2062616c616e636520717565727920666f7220746865207a65604482015269726f206164647265737360b01b6064820152608401610552565b506001600160a01b031660009081526003602052604090205490565b60009182526007602090815260408084206001600160a01b0393909316845291905290205460ff1690565b606060018054610467906124e5565b60006108c385858585611292565b90506108ef7f9f2df0fed2c77648de5860a4cc508cd0818c85b8b8a1ab4ceeef8d981c8956a68261087b565b6109455760405162461bcd60e51b815260206004820152602160248201527f5369676e617475726520696e76616c6964206f7220756e617574686f72697a656044820152601960fa1b6064820152608401610552565b60095434146109895760405162461bcd60e51b815260206004820152601060248201526f6e6f7420656e6f756768206d6f6e657960801b6044820152606401610552565b600061099460085490565b90506109a4600880546001019055565b6109ae8282611315565b6109ee8187878080601f01602080910402602001604051908101604052809392919081815260200183838082843760009201919091525061144892505050565b6109f9823383610fa1565b336000908152601360205260408120548190819060ff1615610a2957601054925060115491506012549050610a39565b600a549250600b549150600c5490505b6014546000906001600160a01b0316612710610a55863461246c565b610a5f9190612458565b604051600081818185875af1925050503d8060008114610a9b576040519150601f19603f3d011682016040523d82523d6000602084013e610aa0565b606091505b5050905080610ac15760405162461bcd60e51b8152600401610552906123c1565b6015546001600160a01b0316612710610ada853461246c565b610ae49190612458565b604051600081818185875af1925050503d8060008114610b20576040519150601f19603f3d011682016040523d82523d6000602084013e610b25565b606091505b50508091505080610b485760405162461bcd60e51b8152600401610552906123c1565b6016546001600160a01b0316612710610b61843461246c565b610b6b9190612458565b604051600081818185875af1925050503d8060008114610ba7576040519150601f19603f3d011682016040523d82523d6000602084013e610bac565b606091505b50508091505080610bcf5760405162461bcd60e51b8152600401610552906123c1565b50505050505050505050565b61075e3383836114d3565b610bf03383610ebb565b610c0c5760405162461bcd60e51b8152600401610552906123ef565b610c18848484846115a2565b50505050565b6060610c2982610e30565b610c8f5760405162461bcd60e51b815260206004820152603160248201527f45524337323155524953746f726167653a2055524920717565727920666f72206044820152703737b732bc34b9ba32b73a103a37b5b2b760791b6064820152608401610552565b60008281526006602052604081208054610ca8906124e5565b80601f0160208091040260200160405190810160405280929190818152602001828054610cd4906124e5565b8015610d215780601f10610cf657610100808354040283529160200191610d21565b820191906000526020600020905b815481529060010190602001808311610d0457829003601f168201915b505050505090506000610d3f60408051602081019091526000815290565b9050805160001415610d52575092915050565b815115610d84578082604051602001610d6c929190612285565b60405160208183030381529060405292505050919050565b610d8d846115d5565b949350505050565b600082815260076020526040902060010154610db18133611141565b610688838361122b565b60006001600160e01b031982166380ac58cd60e01b1480610dec57506001600160e01b03198216635b5e139f60e01b145b8061045257506301ffc9a760e01b6001600160e01b0319831614610452565b60006001600160e01b03198216637965db0b60e01b1480610452575061045282610dbb565b6000908152600260205260409020546001600160a01b0316151590565b600081815260046020526040902080546001600160a01b0319166001600160a01b0384169081179091558190610e828261077d565b6001600160a01b03167f8c5be1e5ebec7d5bd14f71427d1e84f3dd0314c0f7b2291e5b200ac8c7c3b92560405160405180910390a45050565b6000610ec682610e30565b610f275760405162461bcd60e51b815260206004820152602c60248201527f4552433732313a206f70657261746f7220717565727920666f72206e6f6e657860448201526b34b9ba32b73a103a37b5b2b760a11b6064820152608401610552565b6000610f328361077d565b9050806001600160a01b0316846001600160a01b03161480610f6d5750836001600160a01b0316610f62846104ea565b6001600160a01b0316145b80610d8d57506001600160a01b0380821660009081526005602090815260408083209388168352929052205460ff16610d8d565b826001600160a01b0316610fb48261077d565b6001600160a01b03161461101c5760405162461bcd60e51b815260206004820152602960248201527f4552433732313a207472616e73666572206f6620746f6b656e2074686174206960448201526839903737ba1037bbb760b91b6064820152608401610552565b6001600160a01b03821661107e5760405162461bcd60e51b8152602060048201526024808201527f4552433732313a207472616e7366657220746f20746865207a65726f206164646044820152637265737360e01b6064820152608401610552565b611089600082610e4d565b6001600160a01b03831660009081526003602052604081208054600192906110b290849061248b565b90915550506001600160a01b03821660009081526003602052604081208054600192906110e0908490612440565b909155505060008181526002602052604080822080546001600160a01b0319166001600160a01b0386811691821790925591518493918716917fddf252ad1be2c89b69c2b068fc378daa952ba7f163c4a11628f55a4df523b3ef91a4505050565b61114b828261087b565b61075e57611163816001600160a01b031660146116ad565b61116e8360206116ad565b60405160200161117f9291906122b4565b60408051601f198184030181529082905262461bcd60e51b82526105529160040161235c565b6111af828261087b565b61075e5760008281526007602090815260408083206001600160a01b03851684529091529020805460ff191660011790556111e73390565b6001600160a01b0316816001600160a01b0316837f2f8788117e7eff1d82e926ec794901d17c78024a50270940304540a733656f0d60405160405180910390a45050565b611235828261087b565b1561075e5760008281526007602090815260408083206001600160a01b0385168085529252808320805460ff1916905551339285917ff6391f5c32d9c69d2a47ea670b442974b53935d1edc7fd64eb21e047a839171b9190a45050565b60008085856040516020016112a8929190612275565b60405160208183030381529060405280519060200120905061130b84848080601f016020809104026020016040519081016040528093929190818152602001838380828437600092019190915250611305925085915061188f9050565b906118e2565b9695505050505050565b6001600160a01b03821661136b5760405162461bcd60e51b815260206004820181905260248201527f4552433732313a206d696e7420746f20746865207a65726f20616464726573736044820152606401610552565b61137481610e30565b156113c15760405162461bcd60e51b815260206004820152601c60248201527f4552433732313a20746f6b656e20616c7265616479206d696e746564000000006044820152606401610552565b6001600160a01b03821660009081526003602052604081208054600192906113ea908490612440565b909155505060008181526002602052604080822080546001600160a01b0319166001600160a01b03861690811790915590518392907fddf252ad1be2c89b69c2b068fc378daa952ba7f163c4a11628f55a4df523b3ef908290a45050565b61145182610e30565b6114b45760405162461bcd60e51b815260206004820152602e60248201527f45524337323155524953746f726167653a2055524920736574206f66206e6f6e60448201526d32bc34b9ba32b73a103a37b5b2b760911b6064820152608401610552565b6000828152600660209081526040909120825161068892840190611eba565b816001600160a01b0316836001600160a01b031614156115355760405162461bcd60e51b815260206004820152601960248201527f4552433732313a20617070726f766520746f2063616c6c6572000000000000006044820152606401610552565b6001600160a01b03838116600081815260056020908152604080832094871680845294825291829020805460ff191686151590811790915591519182527f17307eab39ab6107e8899845ad3d59bd9653f200f220920489ca2b5937696c31910160405180910390a3505050565b6115ad848484610fa1565b6115b984848484611906565b610c185760405162461bcd60e51b81526004016105529061236f565b60606115e082610e30565b6116445760405162461bcd60e51b815260206004820152602f60248201527f4552433732314d657461646174613a2055524920717565727920666f72206e6f60448201526e3732bc34b9ba32b73a103a37b5b2b760891b6064820152608401610552565b600061165b60408051602081019091526000815290565b9050600081511161167b57604051806020016040528060008152506116a6565b8061168584611a10565b604051602001611696929190612285565b6040516020818303038152906040525b9392505050565b606060006116bc83600261246c565b6116c7906002612440565b67ffffffffffffffff8111156116ed57634e487b7160e01b600052604160045260246000fd5b6040519080825280601f01601f191660200182016040528015611717576020820181803683370190505b509050600360fc1b8160008151811061174057634e487b7160e01b600052603260045260246000fd5b60200101906001600160f81b031916908160001a905350600f60fb1b8160018151811061177d57634e487b7160e01b600052603260045260246000fd5b60200101906001600160f81b031916908160001a90535060006117a184600261246c565b6117ac906001612440565b90505b6001811115611840576f181899199a1a9b1b9c1cb0b131b232b360811b85600f16601081106117ee57634e487b7160e01b600052603260045260246000fd5b1a60f81b82828151811061181257634e487b7160e01b600052603260045260246000fd5b60200101906001600160f81b031916908160001a90535060049490941c93611839816124ce565b90506117af565b5083156116a65760405162461bcd60e51b815260206004820181905260248201527f537472696e67733a20686578206c656e67746820696e73756666696369656e746044820152606401610552565b6040517f19457468657265756d205369676e6564204d6573736167653a0a3332000000006020820152603c8101829052600090605c01604051602081830303815290604052805190602001209050919050565b60008060006118f18585611b2a565b915091506118fe81611b9a565b509392505050565b60006001600160a01b0384163b15611a0857604051630a85bd0160e11b81526001600160a01b0385169063150b7a029061194a903390899088908890600401612329565b602060405180830381600087803b15801561196457600080fd5b505af1925050508015611994575060408051601f3d908101601f19168201909252611991918101906121c4565b60015b6119ee573d8080156119c2576040519150601f19603f3d011682016040523d82523d6000602084013e6119c7565b606091505b5080516119e65760405162461bcd60e51b81526004016105529061236f565b805181602001fd5b6001600160e01b031916630a85bd0160e11b149050610d8d565b506001610d8d565b606081611a345750506040805180820190915260018152600360fc1b602082015290565b8160005b8115611a5e5780611a4881612520565b9150611a579050600a83612458565b9150611a38565b60008167ffffffffffffffff811115611a8757634e487b7160e01b600052604160045260246000fd5b6040519080825280601f01601f191660200182016040528015611ab1576020820181803683370190505b5090505b8415610d8d57611ac660018361248b565b9150611ad3600a8661253b565b611ade906030612440565b60f81b818381518110611b0157634e487b7160e01b600052603260045260246000fd5b60200101906001600160f81b031916908160001a905350611b23600a86612458565b9450611ab5565b600080825160411415611b615760208301516040840151606085015160001a611b5587828585611d9e565b94509450505050611b93565b825160401415611b8b5760208301516040840151611b80868383611e8b565b935093505050611b93565b506000905060025b9250929050565b6000816004811115611bbc57634e487b7160e01b600052602160045260246000fd5b1415611bc55750565b6001816004811115611be757634e487b7160e01b600052602160045260246000fd5b1415611c355760405162461bcd60e51b815260206004820152601860248201527f45434453413a20696e76616c6964207369676e617475726500000000000000006044820152606401610552565b6002816004811115611c5757634e487b7160e01b600052602160045260246000fd5b1415611ca55760405162461bcd60e51b815260206004820152601f60248201527f45434453413a20696e76616c6964207369676e6174757265206c656e677468006044820152606401610552565b6003816004811115611cc757634e487b7160e01b600052602160045260246000fd5b1415611d205760405162461bcd60e51b815260206004820152602260248201527f45434453413a20696e76616c6964207369676e6174757265202773272076616c604482015261756560f01b6064820152608401610552565b6004816004811115611d4257634e487b7160e01b600052602160045260246000fd5b1415611d9b5760405162461bcd60e51b815260206004820152602260248201527f45434453413a20696e76616c6964207369676e6174757265202776272076616c604482015261756560f01b6064820152608401610552565b50565b6000807f7fffffffffffffffffffffffffffffff5d576e7357a4501ddfe92f46681b20a0831115611dd55750600090506003611e82565b8460ff16601b14158015611ded57508460ff16601c14155b15611dfe5750600090506004611e82565b6040805160008082526020820180845289905260ff881692820192909252606081018690526080810185905260019060a0016020604051602081039080840390855afa158015611e52573d6000803e3d6000fd5b5050604051601f1901519150506001600160a01b038116611e7b57600060019250925050611e82565b9150600090505b94509492505050565b6000806001600160ff1b03831660ff84901c601b01611eac87828885611d9e565b935093505050935093915050565b828054611ec6906124e5565b90600052602060002090601f016020900481019282611ee85760008555611f2e565b82601f10611f0157805160ff1916838001178555611f2e565b82800160010185558215611f2e579182015b82811115611f2e578251825591602001919060010190611f13565b50611f3a929150611f3e565b5090565b5b80821115611f3a5760008155600101611f3f565b80356001600160a01b0381168114611f6a57600080fd5b919050565b60008083601f840112611f80578182fd5b50813567ffffffffffffffff811115611f97578182fd5b602083019150836020828501011115611b9357600080fd5b600060208284031215611fc0578081fd5b6116a682611f53565b60008060408385031215611fdb578081fd5b611fe483611f53565b9150611ff260208401611f53565b90509250929050565b60008060006060848603121561200f578081fd5b61201884611f53565b925061202660208501611f53565b9150604084013590509250925092565b6000806000806080858703121561204b578081fd5b61205485611f53565b935061206260208601611f53565b925060408501359150606085013567ffffffffffffffff80821115612085578283fd5b818701915087601f830112612098578283fd5b8135818111156120aa576120aa61257b565b604051601f8201601f19908116603f011681019083821181831017156120d2576120d261257b565b816040528281528a60208487010111156120ea578586fd5b82602086016020830137918201602001949094529598949750929550505050565b6000806040838503121561211d578182fd5b61212683611f53565b91506020830135801515811461213a578182fd5b809150509250929050565b60008060408385031215612157578182fd5b61216083611f53565b946020939093013593505050565b60006020828403121561217f578081fd5b5035919050565b60008060408385031215612198578182fd5b82359150611ff260208401611f53565b6000602082840312156121b9578081fd5b81356116a681612591565b6000602082840312156121d5578081fd5b81516116a681612591565b600080600080604085870312156121f5578384fd5b843567ffffffffffffffff8082111561220c578586fd5b61221888838901611f6f565b90965094506020870135915080821115612230578384fd5b5061223d87828801611f6f565b95989497509550505050565b600081518084526122618160208601602086016124a2565b601f01601f19169290920160200192915050565b8183823760009101908152919050565b600083516122978184602088016124a2565b8351908301906122ab8183602088016124a2565b01949350505050565b7f416363657373436f6e74726f6c3a206163636f756e74200000000000000000008152600083516122ec8160178501602088016124a2565b7001034b99036b4b9b9b4b733903937b6329607d1b601791840191820152835161231d8160288401602088016124a2565b01602801949350505050565b6001600160a01b038581168252841660208201526040810183905260806060820181905260009061130b90830184612249565b6020815260006116a66020830184612249565b60208082526032908201527f4552433732313a207472616e7366657220746f206e6f6e20455243373231526560408201527131b2b4bb32b91034b6b83632b6b2b73a32b960711b606082015260800190565b6020808252601490820152732330b4b632b2103a379039b2b7321022ba3432b960611b604082015260600190565b60208082526031908201527f4552433732313a207472616e736665722063616c6c6572206973206e6f74206f6040820152701ddb995c881b9bdc88185c1c1c9bdd9959607a1b606082015260800190565b600082198211156124535761245361254f565b500190565b60008261246757612467612565565b500490565b60008160001904831182151516156124865761248661254f565b500290565b60008282101561249d5761249d61254f565b500390565b60005b838110156124bd5781810151838201526020016124a5565b83811115610c185750506000910152565b6000816124dd576124dd61254f565b506000190190565b600181811c908216806124f957607f821691505b6020821081141561251a57634e487b7160e01b600052602260045260246000fd5b50919050565b60006000198214156125345761253461254f565b5060010190565b60008261254a5761254a612565565b500690565b634e487b7160e01b600052601160045260246000fd5b634e487b7160e01b600052601260045260246000fd5b634e487b7160e01b600052604160045260246000fd5b6001600160e01b031981168114611d9b57600080fdfea26469706673582212206b6541cdfdd017352a605d367d40a8bc091e130d11f071938e082c3d455d5a8764736f6c63430008040033",
  "linkReferences": {},
  "deployedLinkReferences": {}
}