{
  "_format": "hh-sol-artifact-1",
  "contractName": "Lazy",
  "sourceName": "contracts/Lazy.sol",
  "abi": [
    {
      "inputs": [
        {
          "internalType": "address payable",
          "name": "minter",
          "type": "address"
        }
      ],
      "stateMutability": "nonpayable",
      "type": "constructor"
    },
    {
      "anonymous": false,
      "inputs": [
        {
          "indexed": true,
          "internalType": "address",
          "name": "owner",
          "type": "address"
        },
        {
          "indexed": true,
          "internalType": "address",
          "name": "approved",
          "type": "address"
        },
        {
          "indexed": true,
          "internalType": "uint256",
          "name": "tokenId",
          "type": "uint256"
        }
      ],
      "name": "Approval",
      "type": "event"
    },
    {
      "anonymous": false,
      "inputs": [
        {
          "indexed": true,
          "internalType": "address",
          "name": "owner",
          "type": "address"
        },
        {
          "indexed": true,
          "internalType": "address",
          "name": "operator",
          "type": "address"
        },
        {
          "indexed": false,
          "internalType": "bool",
          "name": "approved",
          "type": "bool"
        }
      ],
      "name": "ApprovalForAll",
      "type": "event"
    },
    {
      "anonymous": false,
      "inputs": [
        {
          "indexed": true,
          "internalType": "address",
          "name": "previousOwner",
          "type": "address"
        },
        {
          "indexed": true,
          "internalType": "address",
          "name": "newOwner",
          "type": "address"
        }
      ],
      "name": "OwnershipTransferred",
      "type": "event"
    },
    {
      "anonymous": false,
      "inputs": [
        {
          "indexed": true,
          "internalType": "bytes32",
          "name": "role",
          "type": "bytes32"
        },
        {
          "indexed": true,
          "internalType": "bytes32",
          "name": "previousAdminRole",
          "type": "bytes32"
        },
        {
          "indexed": true,
          "internalType": "bytes32",
          "name": "newAdminRole",
          "type": "bytes32"
        }
      ],
      "name": "RoleAdminChanged",
      "type": "event"
    },
    {
      "anonymous": false,
      "inputs": [
        {
          "indexed": true,
          "internalType": "bytes32",
          "name": "role",
          "type": "bytes32"
        },
        {
          "indexed": true,
          "internalType": "address",
          "name": "account",
          "type": "address"
        },
        {
          "indexed": true,
          "internalType": "address",
          "name": "sender",
          "type": "address"
        }
      ],
      "name": "RoleGranted",
      "type": "event"
    },
    {
      "anonymous": false,
      "inputs": [
        {
          "indexed": true,
          "internalType": "bytes32",
          "name": "role",
          "type": "bytes32"
        },
        {
          "indexed": true,
          "internalType": "address",
          "name": "account",
          "type": "address"
        },
        {
          "indexed": true,
          "internalType": "address",
          "name": "sender",
          "type": "address"
        }
      ],
      "name": "RoleRevoked",
      "type": "event"
    },
    {
      "anonymous": false,
      "inputs": [
        {
          "indexed": true,
          "internalType": "address",
          "name": "from",
          "type": "address"
        },
        {
          "indexed": true,
          "internalType": "address",
          "name": "to",
          "type": "address"
        },
        {
          "indexed": true,
          "internalType": "uint256",
          "name": "tokenId",
          "type": "uint256"
        }
      ],
      "name": "Transfer",
      "type": "event"
    },
    {
      "inputs": [],
      "name": "DEFAULT_ADMIN_ROLE",
      "outputs": [
        {
          "internalType": "bytes32",
          "name": "",
          "type": "bytes32"
        }
      ],
      "stateMutability": "view",
      "type": "function"
    },
    {
      "inputs": [],
      "name": "MINTER_ROLE",
      "outputs": [
        {
          "internalType": "bytes32",
          "name": "",
          "type": "bytes32"
        }
      ],
      "stateMutability": "view",
      "type": "function"
    },
    {
      "inputs": [
        {
          "internalType": "string",
          "name": "message",
          "type": "string"
        },
        {
          "internalType": "bytes",
          "name": "sign",
          "type": "bytes"
        }
      ],
      "name": "_verify",
      "outputs": [
        {
          "internalType": "address",
          "name": "",
          "type": "address"
        }
      ],
      "stateMutability": "pure",
      "type": "function"
    },
    {
      "inputs": [
        {
          "internalType": "address[]",
          "name": "users",
          "type": "address[]"
        }
      ],
      "name": "addBulkWhitelistUser",
      "outputs": [],
      "stateMutability": "nonpayable",
      "type": "function"
    },
    {
      "inputs": [
        {
          "internalType": "address",
          "name": "user",
          "type": "address"
        }
      ],
      "name": "addWhitelistuser",
      "outputs": [],
      "stateMutability": "nonpayable",
      "type": "function"
    },
    {
      "inputs": [
        {
          "internalType": "address",
          "name": "to",
          "type": "address"
        },
        {
          "internalType": "uint256",
          "name": "tokenId",
          "type": "uint256"
        }
      ],
      "name": "approve",
      "outputs": [],
      "stateMutability": "nonpayable",
      "type": "function"
    },
    {
      "inputs": [
        {
          "internalType": "address",
          "name": "owner",
          "type": "address"
        }
      ],
      "name": "balanceOf",
      "outputs": [
        {
          "internalType": "uint256",
          "name": "",
          "type": "uint256"
        }
      ],
      "stateMutability": "view",
      "type": "function"
    },
    {
      "inputs": [
        {
          "internalType": "uint256",
          "name": "tokenId",
          "type": "uint256"
        }
      ],
      "name": "getApproved",
      "outputs": [
        {
          "internalType": "address",
          "name": "",
          "type": "address"
        }
      ],
      "stateMutability": "view",
      "type": "function"
    },
    {
      "inputs": [
        {
          "internalType": "bytes32",
          "name": "role",
          "type": "bytes32"
        }
      ],
      "name": "getRoleAdmin",
      "outputs": [
        {
          "internalType": "bytes32",
          "name": "",
          "type": "bytes32"
        }
      ],
      "stateMutability": "view",
      "type": "function"
    },
    {
      "inputs": [
        {
          "internalType": "bytes32",
          "name": "role",
          "type": "bytes32"
        },
        {
          "internalType": "address",
          "name": "account",
          "type": "address"
        }
      ],
      "name": "grantRole",
      "outputs": [],
      "stateMutability": "nonpayable",
      "type": "function"
    },
    {
      "inputs": [
        {
          "internalType": "bytes32",
          "name": "role",
          "type": "bytes32"
        },
        {
          "internalType": "address",
          "name": "account",
          "type": "address"
        }
      ],
      "name": "hasRole",
      "outputs": [
        {
          "internalType": "bool",
          "name": "",
          "type": "bool"
        }
      ],
      "stateMutability": "view",
      "type": "function"
    },
    {
      "inputs": [
        {
          "internalType": "address",
          "name": "owner",
          "type": "address"
        },
        {
          "internalType": "address",
          "name": "operator",
          "type": "address"
        }
      ],
      "name": "isApprovedForAll",
      "outputs": [
        {
          "internalType": "bool",
          "name": "",
          "type": "bool"
        }
      ],
      "stateMutability": "view",
      "type": "function"
    },
    {
      "inputs": [
        {
          "internalType": "uint256",
          "name": "amount",
          "type": "uint256"
        },
        {
          "internalType": "string[]",
          "name": "message",
          "type": "string[]"
        },
        {
          "internalType": "bytes[]",
          "name": "sign",
          "type": "bytes[]"
        }
      ],
      "name": "mintToken",
      "outputs": [],
      "stateMutability": "payable",
      "type": "function"
    },
    {
      "inputs": [],
      "name": "name",
      "outputs": [
        {
          "internalType": "string",
          "name": "",
          "type": "string"
        }
      ],
      "stateMutability": "view",
      "type": "function"
    },
    {
      "inputs": [],
      "name": "owner",
      "outputs": [
        {
          "internalType": "address",
          "name": "",
          "type": "address"
        }
      ],
      "stateMutability": "view",
      "type": "function"
    },
    {
      "inputs": [
        {
          "internalType": "uint256",
          "name": "tokenId",
          "type": "uint256"
        }
      ],
      "name": "ownerOf",
      "outputs": [
        {
          "internalType": "address",
          "name": "",
          "type": "address"
        }
      ],
      "stateMutability": "view",
      "type": "function"
    },
    {
      "inputs": [
        {
          "internalType": "address",
          "name": "user",
          "type": "address"
        }
      ],
      "name": "removeWhitelistuser",
      "outputs": [],
      "stateMutability": "nonpayable",
      "type": "function"
    },
    {
      "inputs": [],
      "name": "renounceOwnership",
      "outputs": [],
      "stateMutability": "nonpayable",
      "type": "function"
    },
    {
      "inputs": [
        {
          "internalType": "bytes32",
          "name": "role",
          "type": "bytes32"
        },
        {
          "internalType": "address",
          "name": "account",
          "type": "address"
        }
      ],
      "name": "renounceRole",
      "outputs": [],
      "stateMutability": "nonpayable",
      "type": "function"
    },
    {
      "inputs": [
        {
          "internalType": "bytes32",
          "name": "role",
          "type": "bytes32"
        },
        {
          "internalType": "address",
          "name": "account",
          "type": "address"
        }
      ],
      "name": "revokeRole",
      "outputs": [],
      "stateMutability": "nonpayable",
      "type": "function"
    },
    {
      "inputs": [
        {
          "internalType": "address",
          "name": "from",
          "type": "address"
        },
        {
          "internalType": "address",
          "name": "to",
          "type": "address"
        },
        {
          "internalType": "uint256",
          "name": "tokenId",
          "type": "uint256"
        }
      ],
      "name": "safeTransferFrom",
      "outputs": [],
      "stateMutability": "nonpayable",
      "type": "function"
    },
    {
      "inputs": [
        {
          "internalType": "address",
          "name": "from",
          "type": "address"
        },
        {
          "internalType": "address",
          "name": "to",
          "type": "address"
        },
        {
          "internalType": "uint256",
          "name": "tokenId",
          "type": "uint256"
        },
        {
          "internalType": "bytes",
          "name": "_data",
          "type": "bytes"
        }
      ],
      "name": "safeTransferFrom",
      "outputs": [],
      "stateMutability": "nonpayable",
      "type": "function"
    },
    {
      "inputs": [
        {
          "internalType": "address",
          "name": "operator",
          "type": "address"
        },
        {
          "internalType": "bool",
          "name": "approved",
          "type": "bool"
        }
      ],
      "name": "setApprovalForAll",
      "outputs": [],
      "stateMutability": "nonpayable",
      "type": "function"
    },
    {
      "inputs": [
        {
          "internalType": "bytes4",
          "name": "interfaceId",
          "type": "bytes4"
        }
      ],
      "name": "supportsInterface",
      "outputs": [
        {
          "internalType": "bool",
          "name": "",
          "type": "bool"
        }
      ],
      "stateMutability": "view",
      "type": "function"
    },
    {
      "inputs": [],
      "name": "symbol",
      "outputs": [
        {
          "internalType": "string",
          "name": "",
          "type": "string"
        }
      ],
      "stateMutability": "view",
      "type": "function"
    },
    {
      "inputs": [
        {
          "internalType": "uint256",
          "name": "index",
          "type": "uint256"
        }
      ],
      "name": "tokenByIndex",
      "outputs": [
        {
          "internalType": "uint256",
          "name": "",
          "type": "uint256"
        }
      ],
      "stateMutability": "view",
      "type": "function"
    },
    {
      "inputs": [
        {
          "internalType": "address",
          "name": "owner",
          "type": "address"
        },
        {
          "internalType": "uint256",
          "name": "index",
          "type": "uint256"
        }
      ],
      "name": "tokenOfOwnerByIndex",
      "outputs": [
        {
          "internalType": "uint256",
          "name": "",
          "type": "uint256"
        }
      ],
      "stateMutability": "view",
      "type": "function"
    },
    {
      "inputs": [
        {
          "internalType": "uint256",
          "name": "tokenId",
          "type": "uint256"
        }
      ],
      "name": "tokenURI",
      "outputs": [
        {
          "internalType": "string",
          "name": "",
          "type": "string"
        }
      ],
      "stateMutability": "view",
      "type": "function"
    },
    {
      "inputs": [],
      "name": "totalSupply",
      "outputs": [
        {
          "internalType": "uint256",
          "name": "",
          "type": "uint256"
        }
      ],
      "stateMutability": "view",
      "type": "function"
    },
    {
      "inputs": [
        {
          "internalType": "address",
          "name": "from",
          "type": "address"
        },
        {
          "internalType": "address",
          "name": "to",
          "type": "address"
        },
        {
          "internalType": "uint256",
          "name": "tokenId",
          "type": "uint256"
        }
      ],
      "name": "transferFrom",
      "outputs": [],
      "stateMutability": "nonpayable",
      "type": "function"
    },
    {
      "inputs": [
        {
          "internalType": "address",
          "name": "newOwner",
          "type": "address"
        }
      ],
      "name": "transferOwnership",
      "outputs": [],
      "stateMutability": "nonpayable",
      "type": "function"
    }
  ],
  "bytecode": "0x6101406040526703782dace9d90000600e5561206c600f556105dc60105560c860118190556116a8601255610fa0601355601455601680546001600160a01b0319908116735db8bb85d6065f95350d8ae3934d72ad0ab3ae7e179091556017805482167304d59d5699e1b28161ea972ffd81a6705bfeb8a317905560188054909116738ffaf9e4e61e4fbc5ba749be4498a08783b166b6179055348015620000a657600080fd5b506040516200361238038062003612833981016040819052620000c99162000409565b6040518060400160405280600f81526020016e2630bd3ca7232a16ab37bab1b432b960891b815250604051806040016040528060018152602001603160f81b8152506040518060400160405280601081526020016f4c415a592d4d494e5445445f424f495360801b815250604051806040016040528060048152602001634c415a5960e01b81525081600090805190602001906200016992919062000363565b5080516200017f90600190602084019062000363565b5050825160208085019190912083518483012060e08290526101008190524660a0818152604080517f8b73c3c69bb8fe3d512ecc4cf759cc79239f7b179b0ffacaa9a75d522b39400f81880181905281830187905260608201869052608082019490945230818401528151808203909301835260c0019052805194019390932091935091906080523060601b60c05261012052506200022a9250620002249150503390565b6200025d565b620002567f9f2df0fed2c77648de5860a4cc508cd0818c85b8b8a1ab4ceeef8d981c8956a682620002af565b5062000476565b600880546001600160a01b038381166001600160a01b0319831681179093556040519116919082907f8be0079c531659141344cd1fd0a4f28419497f9722a3daafe3b4186f6b6457e090600090a35050565b620002bb8282620002bf565b5050565b60008281526007602090815260408083206001600160a01b038516845290915290205460ff16620002bb5760008281526007602090815260408083206001600160a01b03851684529091529020805460ff191660011790556200031f3390565b6001600160a01b0316816001600160a01b0316837f2f8788117e7eff1d82e926ec794901d17c78024a50270940304540a733656f0d60405160405180910390a45050565b828054620003719062000439565b90600052602060002090601f016020900481019282620003955760008555620003e0565b82601f10620003b057805160ff1916838001178555620003e0565b82800160010185558215620003e0579182015b82811115620003e0578251825591602001919060010190620003c3565b50620003ee929150620003f2565b5090565b5b80821115620003ee5760008155600101620003f3565b6000602082840312156200041b578081fd5b81516001600160a01b038116811462000432578182fd5b9392505050565b600181811c908216806200044e57607f821691505b602082108114156200047057634e487b7160e01b600052602260045260246000fd5b50919050565b60805160a05160c05160601c60e051610100516101205161315b620004b760003960005050600050506000505060005050600050506000505061315b6000f3fe6080604052600436106101d85760003560e01c8063715018a611610102578063bdfb19c511610095578063d539139311610064578063d53913931461054d578063d547741f14610581578063e985e9c5146105a1578063f2fde38b146105ea57600080fd5b8063bdfb19c5146104cd578063c87b56dd146104ed578063cbf8127c1461050d578063d44d9d821461052d57600080fd5b806395d89b41116100d157806395d89b4114610463578063a217fddf14610478578063a22cb4651461048d578063b88d4fde146104ad57600080fd5b8063715018a6146103fd57806373bf00eb146104125780638da5cb5b1461042557806391d148541461044357600080fd5b80632f2ff15d1161017a57806342842e0e1161014957806342842e0e1461037d5780634f6ccce71461039d5780636352211e146103bd57806370a08231146103dd57600080fd5b80632f2ff15d146102fd5780632f745c591461031d57806336568abe1461033d5780633fb2da5e1461035d57600080fd5b8063095ea7b3116101b6578063095ea7b31461026c57806318160ddd1461028e57806323b872dd146102ad578063248a9ca3146102cd57600080fd5b806301ffc9a7146101dd57806306fdde0314610212578063081812fc14610234575b600080fd5b3480156101e957600080fd5b506101fd6101f8366004612bfa565b61060a565b60405190151581526020015b60405180910390f35b34801561021e57600080fd5b5061022761062a565b6040516102099190612e2f565b34801561024057600080fd5b5061025461024f366004612bc0565b6106bc565b6040516001600160a01b039091168152602001610209565b34801561027857600080fd5b5061028c610287366004612ae8565b610749565b005b34801561029a57600080fd5b50600b545b604051908152602001610209565b3480156102b957600080fd5b5061028c6102c83660046129bb565b61085f565b3480156102d957600080fd5b5061029f6102e8366004612bc0565b60009081526007602052604090206001015490565b34801561030957600080fd5b5061028c610318366004612bd8565b610890565b34801561032957600080fd5b5061029f610338366004612ae8565b6108b6565b34801561034957600080fd5b5061028c610358366004612bd8565b61094c565b34801561036957600080fd5b5061028c61037836600461296f565b6109ca565b34801561038957600080fd5b5061028c6103983660046129bb565b610a15565b3480156103a957600080fd5b5061029f6103b8366004612bc0565b610a30565b3480156103c957600080fd5b506102546103d8366004612bc0565b610ad1565b3480156103e957600080fd5b5061029f6103f836600461296f565b610b48565b34801561040957600080fd5b5061028c610bcf565b61028c610420366004612c9b565b610c05565b34801561043157600080fd5b506008546001600160a01b0316610254565b34801561044f57600080fd5b506101fd61045e366004612bd8565b6110a7565b34801561046f57600080fd5b506102276110d2565b34801561048457600080fd5b5061029f600081565b34801561049957600080fd5b5061028c6104a8366004612aae565b6110e1565b3480156104b957600080fd5b5061028c6104c83660046129f6565b6110ec565b3480156104d957600080fd5b5061028c6104e8366004612b11565b611124565b3480156104f957600080fd5b50610227610508366004612bc0565b6111c4565b34801561051957600080fd5b5061028c61052836600461296f565b6111cf565b34801561053957600080fd5b50610254610548366004612c32565b61121d565b34801561055957600080fd5b5061029f7f9f2df0fed2c77648de5860a4cc508cd0818c85b8b8a1ab4ceeef8d981c8956a681565b34801561058d57600080fd5b5061028c61059c366004612bd8565b6112a2565b3480156105ad57600080fd5b506101fd6105bc366004612989565b6001600160a01b03918216600090815260056020908152604080832093909416825291909152205460ff1690565b3480156105f657600080fd5b5061028c61060536600461296f565b6112c8565b600061061582611363565b806106245750610624826113b3565b92915050565b60606000805461063990613063565b80601f016020809104026020016040519081016040528092919081815260200182805461066590613063565b80156106b25780601f10610687576101008083540402835291602001916106b2565b820191906000526020600020905b81548152906001019060200180831161069557829003601f168201915b5050505050905090565b60006106c7826113d8565b61072d5760405162461bcd60e51b815260206004820152602c60248201527f4552433732313a20617070726f76656420717565727920666f72206e6f6e657860448201526b34b9ba32b73a103a37b5b2b760a11b60648201526084015b60405180910390fd5b506000908152600460205260409020546001600160a01b031690565b600061075482610ad1565b9050806001600160a01b0316836001600160a01b031614156107c25760405162461bcd60e51b815260206004820152602160248201527f4552433732313a20617070726f76616c20746f2063757272656e74206f776e656044820152603960f91b6064820152608401610724565b336001600160a01b03821614806107de57506107de81336105bc565b6108505760405162461bcd60e51b815260206004820152603860248201527f4552433732313a20617070726f76652063616c6c6572206973206e6f74206f7760448201527f6e6572206e6f7220617070726f76656420666f7220616c6c00000000000000006064820152608401610724565b61085a83836113f5565b505050565b6108693382611463565b6108855760405162461bcd60e51b815260040161072490612ef7565b61085a838383611549565b6000828152600760205260409020600101546108ac81336116f4565b61085a8383611758565b60006108c183610b48565b82106109235760405162461bcd60e51b815260206004820152602b60248201527f455243373231456e756d657261626c653a206f776e657220696e646578206f7560448201526a74206f6620626f756e647360a81b6064820152608401610724565b506001600160a01b03919091166000908152600960209081526040808320938352929052205490565b6001600160a01b03811633146109bc5760405162461bcd60e51b815260206004820152602f60248201527f416363657373436f6e74726f6c3a2063616e206f6e6c792072656e6f756e636560448201526e103937b632b9903337b91039b2b63360891b6064820152608401610724565b6109c682826117de565b5050565b6008546001600160a01b031633146109f45760405162461bcd60e51b815260040161072490612ec2565b6001600160a01b03166000908152601560205260409020805460ff19169055565b61085a838383604051806020016040528060008152506110ec565b6000610a3b600b5490565b8210610a9e5760405162461bcd60e51b815260206004820152602c60248201527f455243373231456e756d657261626c653a20676c6f62616c20696e646578206f60448201526b7574206f6620626f756e647360a01b6064820152608401610724565b600b8281548110610abf57634e487b7160e01b600052603260045260246000fd5b90600052602060002001549050919050565b6000818152600260205260408120546001600160a01b0316806106245760405162461bcd60e51b815260206004820152602960248201527f4552433732313a206f776e657220717565727920666f72206e6f6e657869737460448201526832b73a103a37b5b2b760b91b6064820152608401610724565b60006001600160a01b038216610bb35760405162461bcd60e51b815260206004820152602a60248201527f4552433732313a2062616c616e636520717565727920666f7220746865207a65604482015269726f206164647265737360b01b6064820152608401610724565b506001600160a01b031660009081526003602052604090205490565b6008546001600160a01b03163314610bf95760405162461bcd60e51b815260040161072490612ec2565b610c036000611845565b565b828514610c545760405162461bcd60e51b815260206004820152601a60248201527f496e76616c6964206e756d626572206f66206d657373616765730000000000006044820152606401610724565b84600e54610c629190612fea565b3414610ca35760405162461bcd60e51b815260206004820152601060248201526f6e6f7420656e6f756768206d6f6e657960801b6044820152606401610724565b61271085610cb0600b5490565b610cba9190612fbe565b1115610cf95760405162461bcd60e51b815260206004820152600e60248201526d06f766572207468652031303030360941b6044820152606401610724565b60005b85811015610ea4576000610d6d868684818110610d2957634e487b7160e01b600052603260045260246000fd5b9050602002810190610d3b9190612f48565b868686818110610d5b57634e487b7160e01b600052603260045260246000fd5b90506020028101906105489190612f48565b9050610d997f9f2df0fed2c77648de5860a4cc508cd0818c85b8b8a1ab4ceeef8d981c8956a6826110a7565b610def5760405162461bcd60e51b815260206004820152602160248201527f5369676e617475726520696e76616c6964206f7220756e617574686f72697a656044820152601960fa1b6064820152608401610724565b610dfd600d80546001019055565b6000610e08600d5490565b9050610e148282611897565b610e8481888886818110610e3857634e487b7160e01b600052603260045260246000fd5b9050602002810190610e4a9190612f48565b8080601f0160208091040260200160405190810160405280939291908181526020018383808284376000920191909152506119d692505050565b610e8f823383611549565b50508080610e9c9061309e565b915050610cfc565b50336000908152601560205260408120548190819060ff1615610ed557601254925060135491506014549050610ee5565b600f549250601054915060115490505b6016546000906001600160a01b031661271085610f028c34612fea565b610f0c9190612fea565b610f169190612fd6565b604051600081818185875af1925050503d8060008114610f52576040519150601f19603f3d011682016040523d82523d6000602084013e610f57565b606091505b5050905080610f785760405162461bcd60e51b815260040161072490612e94565b6017546001600160a01b031661271084610f928c34612fea565b610f9c9190612fea565b610fa69190612fd6565b604051600081818185875af1925050503d8060008114610fe2576040519150601f19603f3d011682016040523d82523d6000602084013e610fe7565b606091505b5050809150508061100a5760405162461bcd60e51b815260040161072490612e94565b6018546001600160a01b0316612710836110248c34612fea565b61102e9190612fea565b6110389190612fd6565b604051600081818185875af1925050503d8060008114611074576040519150601f19603f3d011682016040523d82523d6000602084013e611079565b606091505b5050809150508061109c5760405162461bcd60e51b815260040161072490612e94565b505050505050505050565b60009182526007602090815260408084206001600160a01b0393909316845291905290205460ff1690565b60606001805461063990613063565b6109c6338383611a61565b6110f63383611463565b6111125760405162461bcd60e51b815260040161072490612ef7565b61111e84848484611b30565b50505050565b6008546001600160a01b0316331461114e5760405162461bcd60e51b815260040161072490612ec2565b60005b81518110156109c65760016015600084848151811061118057634e487b7160e01b600052603260045260246000fd5b6020908102919091018101516001600160a01b03168252810191909152604001600020805460ff1916911515919091179055806111bc8161309e565b915050611151565b606061062482611b63565b6008546001600160a01b031633146111f95760405162461bcd60e51b815260040161072490612ec2565b6001600160a01b03166000908152601560205260409020805460ff19166001179055565b6000808585604051602001611233929190612d3e565b60405160208183030381529060405280519060200120905061129684848080601f0160208091040260200160405190810160405280939291908181526020018383808284376000920191909152506112909250859150611cd29050565b90611d25565b9150505b949350505050565b6000828152600760205260409020600101546112be81336116f4565b61085a83836117de565b6008546001600160a01b031633146112f25760405162461bcd60e51b815260040161072490612ec2565b6001600160a01b0381166113575760405162461bcd60e51b815260206004820152602660248201527f4f776e61626c653a206e6577206f776e657220697320746865207a65726f206160448201526564647265737360d01b6064820152608401610724565b61136081611845565b50565b60006001600160e01b031982166380ac58cd60e01b148061139457506001600160e01b03198216635b5e139f60e01b145b8061062457506301ffc9a760e01b6001600160e01b0319831614610624565b60006001600160e01b03198216637965db0b60e01b1480610624575061062482611363565b6000908152600260205260409020546001600160a01b0316151590565b600081815260046020526040902080546001600160a01b0319166001600160a01b038416908117909155819061142a82610ad1565b6001600160a01b03167f8c5be1e5ebec7d5bd14f71427d1e84f3dd0314c0f7b2291e5b200ac8c7c3b92560405160405180910390a45050565b600061146e826113d8565b6114cf5760405162461bcd60e51b815260206004820152602c60248201527f4552433732313a206f70657261746f7220717565727920666f72206e6f6e657860448201526b34b9ba32b73a103a37b5b2b760a11b6064820152608401610724565b60006114da83610ad1565b9050806001600160a01b0316846001600160a01b031614806115155750836001600160a01b031661150a846106bc565b6001600160a01b0316145b8061129a57506001600160a01b0380821660009081526005602090815260408083209388168352929052205460ff1661129a565b826001600160a01b031661155c82610ad1565b6001600160a01b0316146115c45760405162461bcd60e51b815260206004820152602960248201527f4552433732313a207472616e73666572206f6620746f6b656e2074686174206960448201526839903737ba1037bbb760b91b6064820152608401610724565b6001600160a01b0382166116265760405162461bcd60e51b8152602060048201526024808201527f4552433732313a207472616e7366657220746f20746865207a65726f206164646044820152637265737360e01b6064820152608401610724565b611631838383611d49565b61163c6000826113f5565b6001600160a01b0383166000908152600360205260408120805460019290611665908490613009565b90915550506001600160a01b0382166000908152600360205260408120805460019290611693908490612fbe565b909155505060008181526002602052604080822080546001600160a01b0319166001600160a01b0386811691821790925591518493918716917fddf252ad1be2c89b69c2b068fc378daa952ba7f163c4a11628f55a4df523b3ef91a4505050565b6116fe82826110a7565b6109c657611716816001600160a01b03166014611d54565b611721836020611d54565b604051602001611732929190612d7d565b60408051601f198184030181529082905262461bcd60e51b825261072491600401612e2f565b61176282826110a7565b6109c65760008281526007602090815260408083206001600160a01b03851684529091529020805460ff1916600117905561179a3390565b6001600160a01b0316816001600160a01b0316837f2f8788117e7eff1d82e926ec794901d17c78024a50270940304540a733656f0d60405160405180910390a45050565b6117e882826110a7565b156109c65760008281526007602090815260408083206001600160a01b0385168085529252808320805460ff1916905551339285917ff6391f5c32d9c69d2a47ea670b442974b53935d1edc7fd64eb21e047a839171b9190a45050565b600880546001600160a01b038381166001600160a01b0319831681179093556040519116919082907f8be0079c531659141344cd1fd0a4f28419497f9722a3daafe3b4186f6b6457e090600090a35050565b6001600160a01b0382166118ed5760405162461bcd60e51b815260206004820181905260248201527f4552433732313a206d696e7420746f20746865207a65726f20616464726573736044820152606401610724565b6118f6816113d8565b156119435760405162461bcd60e51b815260206004820152601c60248201527f4552433732313a20746f6b656e20616c7265616479206d696e746564000000006044820152606401610724565b61194f60008383611d49565b6001600160a01b0382166000908152600360205260408120805460019290611978908490612fbe565b909155505060008181526002602052604080822080546001600160a01b0319166001600160a01b03861690811790915590518392907fddf252ad1be2c89b69c2b068fc378daa952ba7f163c4a11628f55a4df523b3ef908290a45050565b6119df826113d8565b611a425760405162461bcd60e51b815260206004820152602e60248201527f45524337323155524953746f726167653a2055524920736574206f66206e6f6e60448201526d32bc34b9ba32b73a103a37b5b2b760911b6064820152608401610724565b6000828152600660209081526040909120825161085a92840190612837565b816001600160a01b0316836001600160a01b03161415611ac35760405162461bcd60e51b815260206004820152601960248201527f4552433732313a20617070726f766520746f2063616c6c6572000000000000006044820152606401610724565b6001600160a01b03838116600081815260056020908152604080832094871680845294825291829020805460ff191686151590811790915591519182527f17307eab39ab6107e8899845ad3d59bd9653f200f220920489ca2b5937696c31910160405180910390a3505050565b611b3b848484611549565b611b4784848484611f3d565b61111e5760405162461bcd60e51b815260040161072490612e42565b6060611b6e826113d8565b611bd45760405162461bcd60e51b815260206004820152603160248201527f45524337323155524953746f726167653a2055524920717565727920666f72206044820152703737b732bc34b9ba32b73a103a37b5b2b760791b6064820152608401610724565b60008281526006602052604081208054611bed90613063565b80601f0160208091040260200160405190810160405280929190818152602001828054611c1990613063565b8015611c665780601f10611c3b57610100808354040283529160200191611c66565b820191906000526020600020905b815481529060010190602001808311611c4957829003601f168201915b505050505090506000611c8460408051602081019091526000815290565b9050805160001415611c97575092915050565b815115611cc9578082604051602001611cb1929190612d4e565b60405160208183030381529060405292505050919050565b61129a84612047565b6040517f19457468657265756d205369676e6564204d6573736167653a0a3332000000006020820152603c8101829052600090605c01604051602081830303815290604052805190602001209050919050565b6000806000611d34858561211e565b91509150611d418161218e565b509392505050565b61085a83838361238f565b60606000611d63836002612fea565b611d6e906002612fbe565b67ffffffffffffffff811115611d9457634e487b7160e01b600052604160045260246000fd5b6040519080825280601f01601f191660200182016040528015611dbe576020820181803683370190505b509050600360fc1b81600081518110611de757634e487b7160e01b600052603260045260246000fd5b60200101906001600160f81b031916908160001a905350600f60fb1b81600181518110611e2457634e487b7160e01b600052603260045260246000fd5b60200101906001600160f81b031916908160001a9053506000611e48846002612fea565b611e53906001612fbe565b90505b6001811115611ee7576f181899199a1a9b1b9c1cb0b131b232b360811b85600f1660108110611e9557634e487b7160e01b600052603260045260246000fd5b1a60f81b828281518110611eb957634e487b7160e01b600052603260045260246000fd5b60200101906001600160f81b031916908160001a90535060049490941c93611ee08161304c565b9050611e56565b508315611f365760405162461bcd60e51b815260206004820181905260248201527f537472696e67733a20686578206c656e67746820696e73756666696369656e746044820152606401610724565b9392505050565b60006001600160a01b0384163b1561203f57604051630a85bd0160e11b81526001600160a01b0385169063150b7a0290611f81903390899088908890600401612df2565b602060405180830381600087803b158015611f9b57600080fd5b505af1925050508015611fcb575060408051601f3d908101601f19168201909252611fc891810190612c16565b60015b612025573d808015611ff9576040519150601f19603f3d011682016040523d82523d6000602084013e611ffe565b606091505b50805161201d5760405162461bcd60e51b815260040161072490612e42565b805181602001fd5b6001600160e01b031916630a85bd0160e11b14905061129a565b50600161129a565b6060612052826113d8565b6120b65760405162461bcd60e51b815260206004820152602f60248201527f4552433732314d657461646174613a2055524920717565727920666f72206e6f60448201526e3732bc34b9ba32b73a103a37b5b2b760891b6064820152608401610724565b60006120cd60408051602081019091526000815290565b905060008151116120ed5760405180602001604052806000815250611f36565b806120f784612447565b604051602001612108929190612d4e565b6040516020818303038152906040529392505050565b6000808251604114156121555760208301516040840151606085015160001a61214987828585612561565b94509450505050612187565b82516040141561217f576020830151604084015161217486838361264e565b935093505050612187565b506000905060025b9250929050565b60008160048111156121b057634e487b7160e01b600052602160045260246000fd5b14156121b95750565b60018160048111156121db57634e487b7160e01b600052602160045260246000fd5b14156122295760405162461bcd60e51b815260206004820152601860248201527f45434453413a20696e76616c6964207369676e617475726500000000000000006044820152606401610724565b600281600481111561224b57634e487b7160e01b600052602160045260246000fd5b14156122995760405162461bcd60e51b815260206004820152601f60248201527f45434453413a20696e76616c6964207369676e6174757265206c656e677468006044820152606401610724565b60038160048111156122bb57634e487b7160e01b600052602160045260246000fd5b14156123145760405162461bcd60e51b815260206004820152602260248201527f45434453413a20696e76616c6964207369676e6174757265202773272076616c604482015261756560f01b6064820152608401610724565b600481600481111561233657634e487b7160e01b600052602160045260246000fd5b14156113605760405162461bcd60e51b815260206004820152602260248201527f45434453413a20696e76616c6964207369676e6174757265202776272076616c604482015261756560f01b6064820152608401610724565b6001600160a01b0383166123ea576123e581600b80546000838152600c60205260408120829055600182018355919091527f0175b7a638427703f0dbe7bb9bbf987a2551717b34e79f33b5b1008d1fa01db90155565b61240d565b816001600160a01b0316836001600160a01b03161461240d5761240d838261267d565b6001600160a01b0382166124245761085a8161271a565b826001600160a01b0316826001600160a01b03161461085a5761085a82826127f3565b60608161246b5750506040805180820190915260018152600360fc1b602082015290565b8160005b8115612495578061247f8161309e565b915061248e9050600a83612fd6565b915061246f565b60008167ffffffffffffffff8111156124be57634e487b7160e01b600052604160045260246000fd5b6040519080825280601f01601f1916602001820160405280156124e8576020820181803683370190505b5090505b841561129a576124fd600183613009565b915061250a600a866130b9565b612515906030612fbe565b60f81b81838151811061253857634e487b7160e01b600052603260045260246000fd5b60200101906001600160f81b031916908160001a90535061255a600a86612fd6565b94506124ec565b6000807f7fffffffffffffffffffffffffffffff5d576e7357a4501ddfe92f46681b20a08311156125985750600090506003612645565b8460ff16601b141580156125b057508460ff16601c14155b156125c15750600090506004612645565b6040805160008082526020820180845289905260ff881692820192909252606081018690526080810185905260019060a0016020604051602081039080840390855afa158015612615573d6000803e3d6000fd5b5050604051601f1901519150506001600160a01b03811661263e57600060019250925050612645565b9150600090505b94509492505050565b6000806001600160ff1b03831660ff84901c601b0161266f87828885612561565b935093505050935093915050565b6000600161268a84610b48565b6126949190613009565b6000838152600a60205260409020549091508082146126e7576001600160a01b03841660009081526009602090815260408083208584528252808320548484528184208190558352600a90915290208190555b506000918252600a602090815260408084208490556001600160a01b039094168352600981528383209183525290812055565b600b5460009061272c90600190613009565b6000838152600c6020526040812054600b805493945090928490811061276257634e487b7160e01b600052603260045260246000fd5b9060005260206000200154905080600b838154811061279157634e487b7160e01b600052603260045260246000fd5b6000918252602080832090910192909255828152600c9091526040808220849055858252812055600b8054806127d757634e487b7160e01b600052603160045260246000fd5b6001900381819060005260206000200160009055905550505050565b60006127fe83610b48565b6001600160a01b0390931660009081526009602090815260408083208684528252808320859055938252600a9052919091209190915550565b82805461284390613063565b90600052602060002090601f01602090048101928261286557600085556128ab565b82601f1061287e57805160ff19168380011785556128ab565b828001600101855582156128ab579182015b828111156128ab578251825591602001919060010190612890565b506128b79291506128bb565b5090565b5b808211156128b757600081556001016128bc565b80356001600160a01b03811681146128e757600080fd5b919050565b60008083601f8401126128fd578182fd5b50813567ffffffffffffffff811115612914578182fd5b6020830191508360208260051b850101111561218757600080fd5b60008083601f840112612940578182fd5b50813567ffffffffffffffff811115612957578182fd5b60208301915083602082850101111561218757600080fd5b600060208284031215612980578081fd5b611f36826128d0565b6000806040838503121561299b578081fd5b6129a4836128d0565b91506129b2602084016128d0565b90509250929050565b6000806000606084860312156129cf578081fd5b6129d8846128d0565b92506129e6602085016128d0565b9150604084013590509250925092565b60008060008060808587031215612a0b578081fd5b612a14856128d0565b93506020612a238187016128d0565b935060408601359250606086013567ffffffffffffffff80821115612a46578384fd5b818801915088601f830112612a59578384fd5b813581811115612a6b57612a6b6130f9565b612a7d601f8201601f19168501612f8d565b91508082528984828501011115612a92578485fd5b8084840185840137810190920192909252939692955090935050565b60008060408385031215612ac0578182fd5b612ac9836128d0565b915060208301358015158114612add578182fd5b809150509250929050565b60008060408385031215612afa578182fd5b612b03836128d0565b946020939093013593505050565b60006020808385031215612b23578182fd5b823567ffffffffffffffff80821115612b3a578384fd5b818501915085601f830112612b4d578384fd5b813581811115612b5f57612b5f6130f9565b8060051b9150612b70848301612f8d565b8181528481019084860184860187018a1015612b8a578788fd5b8795505b83861015612bb357612b9f816128d0565b835260019590950194918601918601612b8e565b5098975050505050505050565b600060208284031215612bd1578081fd5b5035919050565b60008060408385031215612bea578182fd5b823591506129b2602084016128d0565b600060208284031215612c0b578081fd5b8135611f368161310f565b600060208284031215612c27578081fd5b8151611f368161310f565b60008060008060408587031215612c47578182fd5b843567ffffffffffffffff80821115612c5e578384fd5b612c6a8883890161292f565b90965094506020870135915080821115612c82578384fd5b50612c8f8782880161292f565b95989497509550505050565b600080600080600060608688031215612cb2578283fd5b85359450602086013567ffffffffffffffff80821115612cd0578485fd5b612cdc89838a016128ec565b90965094506040880135915080821115612cf4578283fd5b50612d01888289016128ec565b969995985093965092949392505050565b60008151808452612d2a816020860160208601613020565b601f01601f19169290920160200192915050565b8183823760009101908152919050565b60008351612d60818460208801613020565b835190830190612d74818360208801613020565b01949350505050565b7f416363657373436f6e74726f6c3a206163636f756e7420000000000000000000815260008351612db5816017850160208801613020565b7001034b99036b4b9b9b4b733903937b6329607d1b6017918401918201528351612de6816028840160208801613020565b01602801949350505050565b6001600160a01b0385811682528416602082015260408101839052608060608201819052600090612e2590830184612d12565b9695505050505050565b602081526000611f366020830184612d12565b60208082526032908201527f4552433732313a207472616e7366657220746f206e6f6e20455243373231526560408201527131b2b4bb32b91034b6b83632b6b2b73a32b960711b606082015260800190565b6020808252601490820152732330b4b632b2103a379039b2b7321022ba3432b960611b604082015260600190565b6020808252818101527f4f776e61626c653a2063616c6c6572206973206e6f7420746865206f776e6572604082015260600190565b60208082526031908201527f4552433732313a207472616e736665722063616c6c6572206973206e6f74206f6040820152701ddb995c881b9bdc88185c1c1c9bdd9959607a1b606082015260800190565b6000808335601e19843603018112612f5e578283fd5b83018035915067ffffffffffffffff821115612f78578283fd5b60200191503681900382131561218757600080fd5b604051601f8201601f1916810167ffffffffffffffff81118282101715612fb657612fb66130f9565b604052919050565b60008219821115612fd157612fd16130cd565b500190565b600082612fe557612fe56130e3565b500490565b6000816000190483118215151615613004576130046130cd565b500290565b60008282101561301b5761301b6130cd565b500390565b60005b8381101561303b578181015183820152602001613023565b8381111561111e5750506000910152565b60008161305b5761305b6130cd565b506000190190565b600181811c9082168061307757607f821691505b6020821081141561309857634e487b7160e01b600052602260045260246000fd5b50919050565b60006000198214156130b2576130b26130cd565b5060010190565b6000826130c8576130c86130e3565b500690565b634e487b7160e01b600052601160045260246000fd5b634e487b7160e01b600052601260045260246000fd5b634e487b7160e01b600052604160045260246000fd5b6001600160e01b03198116811461136057600080fdfea2646970667358221220fd79c80f3fefcdd668653c2dd3cb1d199b1634e8375c8fda2ab99134ded6df0364736f6c63430008040033",
  "linkReferences": {},
  "deployedLinkReferences": {}
}