{
  "_format": "hh-sol-artifact-1",
  "contractName": "Lazy",
  "sourceName": "contracts/Lazy.sol",
  "abi": [
    {
      "inputs": [
        {
          "internalType": "address payable",
          "name": "minter",
          "type": "address"
        }
      ],
      "stateMutability": "nonpayable",
      "type": "constructor"
    },
    {
      "anonymous": false,
      "inputs": [
        {
          "indexed": true,
          "internalType": "address",
          "name": "owner",
          "type": "address"
        },
        {
          "indexed": true,
          "internalType": "address",
          "name": "approved",
          "type": "address"
        },
        {
          "indexed": true,
          "internalType": "uint256",
          "name": "tokenId",
          "type": "uint256"
        }
      ],
      "name": "Approval",
      "type": "event"
    },
    {
      "anonymous": false,
      "inputs": [
        {
          "indexed": true,
          "internalType": "address",
          "name": "owner",
          "type": "address"
        },
        {
          "indexed": true,
          "internalType": "address",
          "name": "operator",
          "type": "address"
        },
        {
          "indexed": false,
          "internalType": "bool",
          "name": "approved",
          "type": "bool"
        }
      ],
      "name": "ApprovalForAll",
      "type": "event"
    },
    {
      "anonymous": false,
      "inputs": [
        {
          "indexed": true,
          "internalType": "address",
          "name": "previousOwner",
          "type": "address"
        },
        {
          "indexed": true,
          "internalType": "address",
          "name": "newOwner",
          "type": "address"
        }
      ],
      "name": "OwnershipTransferred",
      "type": "event"
    },
    {
      "anonymous": false,
      "inputs": [
        {
          "indexed": true,
          "internalType": "bytes32",
          "name": "role",
          "type": "bytes32"
        },
        {
          "indexed": true,
          "internalType": "bytes32",
          "name": "previousAdminRole",
          "type": "bytes32"
        },
        {
          "indexed": true,
          "internalType": "bytes32",
          "name": "newAdminRole",
          "type": "bytes32"
        }
      ],
      "name": "RoleAdminChanged",
      "type": "event"
    },
    {
      "anonymous": false,
      "inputs": [
        {
          "indexed": true,
          "internalType": "bytes32",
          "name": "role",
          "type": "bytes32"
        },
        {
          "indexed": true,
          "internalType": "address",
          "name": "account",
          "type": "address"
        },
        {
          "indexed": true,
          "internalType": "address",
          "name": "sender",
          "type": "address"
        }
      ],
      "name": "RoleGranted",
      "type": "event"
    },
    {
      "anonymous": false,
      "inputs": [
        {
          "indexed": true,
          "internalType": "bytes32",
          "name": "role",
          "type": "bytes32"
        },
        {
          "indexed": true,
          "internalType": "address",
          "name": "account",
          "type": "address"
        },
        {
          "indexed": true,
          "internalType": "address",
          "name": "sender",
          "type": "address"
        }
      ],
      "name": "RoleRevoked",
      "type": "event"
    },
    {
      "anonymous": false,
      "inputs": [
        {
          "indexed": true,
          "internalType": "address",
          "name": "from",
          "type": "address"
        },
        {
          "indexed": true,
          "internalType": "address",
          "name": "to",
          "type": "address"
        },
        {
          "indexed": true,
          "internalType": "uint256",
          "name": "tokenId",
          "type": "uint256"
        }
      ],
      "name": "Transfer",
      "type": "event"
    },
    {
      "inputs": [],
      "name": "DEFAULT_ADMIN_ROLE",
      "outputs": [
        {
          "internalType": "bytes32",
          "name": "",
          "type": "bytes32"
        }
      ],
      "stateMutability": "view",
      "type": "function"
    },
    {
      "inputs": [],
      "name": "MINTER_ROLE",
      "outputs": [
        {
          "internalType": "bytes32",
          "name": "",
          "type": "bytes32"
        }
      ],
      "stateMutability": "view",
      "type": "function"
    },
    {
      "inputs": [
        {
          "internalType": "string",
          "name": "message",
          "type": "string"
        },
        {
          "internalType": "bytes",
          "name": "sign",
          "type": "bytes"
        }
      ],
      "name": "_verify",
      "outputs": [
        {
          "internalType": "address",
          "name": "",
          "type": "address"
        }
      ],
      "stateMutability": "pure",
      "type": "function"
    },
    {
      "inputs": [
        {
          "internalType": "address[]",
          "name": "users",
          "type": "address[]"
        }
      ],
      "name": "addBulkWhitelistUser",
      "outputs": [],
      "stateMutability": "nonpayable",
      "type": "function"
    },
    {
      "inputs": [
        {
          "internalType": "address",
          "name": "user",
          "type": "address"
        }
      ],
      "name": "addWhitelistuser",
      "outputs": [],
      "stateMutability": "nonpayable",
      "type": "function"
    },
    {
      "inputs": [
        {
          "internalType": "address",
          "name": "to",
          "type": "address"
        },
        {
          "internalType": "uint256",
          "name": "tokenId",
          "type": "uint256"
        }
      ],
      "name": "approve",
      "outputs": [],
      "stateMutability": "nonpayable",
      "type": "function"
    },
    {
      "inputs": [
        {
          "internalType": "address",
          "name": "owner",
          "type": "address"
        }
      ],
      "name": "balanceOf",
      "outputs": [
        {
          "internalType": "uint256",
          "name": "",
          "type": "uint256"
        }
      ],
      "stateMutability": "view",
      "type": "function"
    },
    {
      "inputs": [
        {
          "internalType": "uint256",
          "name": "tokenId",
          "type": "uint256"
        }
      ],
      "name": "getApproved",
      "outputs": [
        {
          "internalType": "address",
          "name": "",
          "type": "address"
        }
      ],
      "stateMutability": "view",
      "type": "function"
    },
    {
      "inputs": [
        {
          "internalType": "bytes32",
          "name": "role",
          "type": "bytes32"
        }
      ],
      "name": "getRoleAdmin",
      "outputs": [
        {
          "internalType": "bytes32",
          "name": "",
          "type": "bytes32"
        }
      ],
      "stateMutability": "view",
      "type": "function"
    },
    {
      "inputs": [
        {
          "internalType": "bytes32",
          "name": "role",
          "type": "bytes32"
        },
        {
          "internalType": "address",
          "name": "account",
          "type": "address"
        }
      ],
      "name": "grantRole",
      "outputs": [],
      "stateMutability": "nonpayable",
      "type": "function"
    },
    {
      "inputs": [
        {
          "internalType": "bytes32",
          "name": "role",
          "type": "bytes32"
        },
        {
          "internalType": "address",
          "name": "account",
          "type": "address"
        }
      ],
      "name": "hasRole",
      "outputs": [
        {
          "internalType": "bool",
          "name": "",
          "type": "bool"
        }
      ],
      "stateMutability": "view",
      "type": "function"
    },
    {
      "inputs": [
        {
          "internalType": "address",
          "name": "owner",
          "type": "address"
        },
        {
          "internalType": "address",
          "name": "operator",
          "type": "address"
        }
      ],
      "name": "isApprovedForAll",
      "outputs": [
        {
          "internalType": "bool",
          "name": "",
          "type": "bool"
        }
      ],
      "stateMutability": "view",
      "type": "function"
    },
    {
      "inputs": [
        {
          "internalType": "uint256",
          "name": "tokenId",
          "type": "uint256"
        },
        {
          "internalType": "uint256",
          "name": "index",
          "type": "uint256"
        }
      ],
      "name": "mint",
      "outputs": [],
      "stateMutability": "nonpayable",
      "type": "function"
    },
    {
      "inputs": [
        {
          "internalType": "uint256",
          "name": "amount",
          "type": "uint256"
        },
        {
          "internalType": "string[]",
          "name": "message",
          "type": "string[]"
        },
        {
          "internalType": "bytes[]",
          "name": "sign",
          "type": "bytes[]"
        }
      ],
      "name": "mintToken",
      "outputs": [],
      "stateMutability": "payable",
      "type": "function"
    },
    {
      "inputs": [],
      "name": "name",
      "outputs": [
        {
          "internalType": "string",
          "name": "",
          "type": "string"
        }
      ],
      "stateMutability": "view",
      "type": "function"
    },
    {
      "inputs": [],
      "name": "owner",
      "outputs": [
        {
          "internalType": "address",
          "name": "",
          "type": "address"
        }
      ],
      "stateMutability": "view",
      "type": "function"
    },
    {
      "inputs": [
        {
          "internalType": "uint256",
          "name": "tokenId",
          "type": "uint256"
        }
      ],
      "name": "ownerOf",
      "outputs": [
        {
          "internalType": "address",
          "name": "",
          "type": "address"
        }
      ],
      "stateMutability": "view",
      "type": "function"
    },
    {
      "inputs": [
        {
          "internalType": "address",
          "name": "user",
          "type": "address"
        }
      ],
      "name": "removeWhitelistuser",
      "outputs": [],
      "stateMutability": "nonpayable",
      "type": "function"
    },
    {
      "inputs": [],
      "name": "renounceOwnership",
      "outputs": [],
      "stateMutability": "nonpayable",
      "type": "function"
    },
    {
      "inputs": [
        {
          "internalType": "bytes32",
          "name": "role",
          "type": "bytes32"
        },
        {
          "internalType": "address",
          "name": "account",
          "type": "address"
        }
      ],
      "name": "renounceRole",
      "outputs": [],
      "stateMutability": "nonpayable",
      "type": "function"
    },
    {
      "inputs": [
        {
          "internalType": "bytes32",
          "name": "role",
          "type": "bytes32"
        },
        {
          "internalType": "address",
          "name": "account",
          "type": "address"
        }
      ],
      "name": "revokeRole",
      "outputs": [],
      "stateMutability": "nonpayable",
      "type": "function"
    },
    {
      "inputs": [
        {
          "internalType": "address",
          "name": "from",
          "type": "address"
        },
        {
          "internalType": "address",
          "name": "to",
          "type": "address"
        },
        {
          "internalType": "uint256",
          "name": "tokenId",
          "type": "uint256"
        }
      ],
      "name": "safeTransferFrom",
      "outputs": [],
      "stateMutability": "nonpayable",
      "type": "function"
    },
    {
      "inputs": [
        {
          "internalType": "address",
          "name": "from",
          "type": "address"
        },
        {
          "internalType": "address",
          "name": "to",
          "type": "address"
        },
        {
          "internalType": "uint256",
          "name": "tokenId",
          "type": "uint256"
        },
        {
          "internalType": "bytes",
          "name": "_data",
          "type": "bytes"
        }
      ],
      "name": "safeTransferFrom",
      "outputs": [],
      "stateMutability": "nonpayable",
      "type": "function"
    },
    {
      "inputs": [
        {
          "internalType": "address",
          "name": "operator",
          "type": "address"
        },
        {
          "internalType": "bool",
          "name": "approved",
          "type": "bool"
        }
      ],
      "name": "setApprovalForAll",
      "outputs": [],
      "stateMutability": "nonpayable",
      "type": "function"
    },
    {
      "inputs": [
        {
          "internalType": "bytes4",
          "name": "interfaceId",
          "type": "bytes4"
        }
      ],
      "name": "supportsInterface",
      "outputs": [
        {
          "internalType": "bool",
          "name": "",
          "type": "bool"
        }
      ],
      "stateMutability": "view",
      "type": "function"
    },
    {
      "inputs": [],
      "name": "symbol",
      "outputs": [
        {
          "internalType": "string",
          "name": "",
          "type": "string"
        }
      ],
      "stateMutability": "view",
      "type": "function"
    },
    {
      "inputs": [
        {
          "internalType": "uint256",
          "name": "index",
          "type": "uint256"
        }
      ],
      "name": "tokenByIndex",
      "outputs": [
        {
          "internalType": "uint256",
          "name": "",
          "type": "uint256"
        }
      ],
      "stateMutability": "view",
      "type": "function"
    },
    {
      "inputs": [
        {
          "internalType": "address",
          "name": "owner",
          "type": "address"
        },
        {
          "internalType": "uint256",
          "name": "index",
          "type": "uint256"
        }
      ],
      "name": "tokenOfOwnerByIndex",
      "outputs": [
        {
          "internalType": "uint256",
          "name": "",
          "type": "uint256"
        }
      ],
      "stateMutability": "view",
      "type": "function"
    },
    {
      "inputs": [
        {
          "internalType": "uint256",
          "name": "tokenId",
          "type": "uint256"
        }
      ],
      "name": "tokenURI",
      "outputs": [
        {
          "internalType": "string",
          "name": "",
          "type": "string"
        }
      ],
      "stateMutability": "view",
      "type": "function"
    },
    {
      "inputs": [],
      "name": "totalSupply",
      "outputs": [
        {
          "internalType": "uint256",
          "name": "",
          "type": "uint256"
        }
      ],
      "stateMutability": "view",
      "type": "function"
    },
    {
      "inputs": [
        {
          "internalType": "address",
          "name": "from",
          "type": "address"
        },
        {
          "internalType": "address",
          "name": "to",
          "type": "address"
        },
        {
          "internalType": "uint256",
          "name": "tokenId",
          "type": "uint256"
        }
      ],
      "name": "transferFrom",
      "outputs": [],
      "stateMutability": "nonpayable",
      "type": "function"
    },
    {
      "inputs": [
        {
          "internalType": "address",
          "name": "newOwner",
          "type": "address"
        }
      ],
      "name": "transferOwnership",
      "outputs": [],
      "stateMutability": "nonpayable",
      "type": "function"
    }
  ],
  "bytecode": "0x6101406040526703782dace9d90000600e5561206c600f556105dc60105560c860118190556116a8601255610fa0601355601455601680546001600160a01b0319908116735db8bb85d6065f95350d8ae3934d72ad0ab3ae7e179091556017805482167304d59d5699e1b28161ea972ffd81a6705bfeb8a317905560188054909116738ffaf9e4e61e4fbc5ba749be4498a08783b166b6179055348015620000a657600080fd5b50604051620039dd380380620039dd833981016040819052620000c99162000409565b6040518060400160405280600f81526020016e2630bd3ca7232a16ab37bab1b432b960891b815250604051806040016040528060018152602001603160f81b8152506040518060400160405280601081526020016f4c415a592d4d494e5445445f424f495360801b815250604051806040016040528060048152602001634c415a5960e01b81525081600090805190602001906200016992919062000363565b5080516200017f90600190602084019062000363565b5050825160208085019190912083518483012060e08290526101008190524660a0818152604080517f8b73c3c69bb8fe3d512ecc4cf759cc79239f7b179b0ffacaa9a75d522b39400f81880181905281830187905260608201869052608082019490945230818401528151808203909301835260c0019052805194019390932091935091906080523060601b60c05261012052506200022a9250620002249150503390565b6200025d565b620002567f9f2df0fed2c77648de5860a4cc508cd0818c85b8b8a1ab4ceeef8d981c8956a682620002af565b5062000476565b600880546001600160a01b038381166001600160a01b0319831681179093556040519116919082907f8be0079c531659141344cd1fd0a4f28419497f9722a3daafe3b4186f6b6457e090600090a35050565b620002bb8282620002bf565b5050565b60008281526007602090815260408083206001600160a01b038516845290915290205460ff16620002bb5760008281526007602090815260408083206001600160a01b03851684529091529020805460ff191660011790556200031f3390565b6001600160a01b0316816001600160a01b0316837f2f8788117e7eff1d82e926ec794901d17c78024a50270940304540a733656f0d60405160405180910390a45050565b828054620003719062000439565b90600052602060002090601f016020900481019282620003955760008555620003e0565b82601f10620003b057805160ff1916838001178555620003e0565b82800160010185558215620003e0579182015b82811115620003e0578251825591602001919060010190620003c3565b50620003ee929150620003f2565b5090565b5b80821115620003ee5760008155600101620003f3565b6000602082840312156200041b578081fd5b81516001600160a01b038116811462000432578182fd5b9392505050565b600181811c908216806200044e57607f821691505b602082108114156200047057634e487b7160e01b600052602260045260246000fd5b50919050565b60805160a05160c05160601c60e0516101005161012051613526620004b76000396000505060005050600050506000505060005050600050506135266000f3fe6080604052600436106101e35760003560e01c8063715018a611610102578063bdfb19c511610095578063d539139311610064578063d539139314610578578063d547741f146105ac578063e985e9c5146105cc578063f2fde38b1461061557600080fd5b8063bdfb19c5146104f8578063c87b56dd14610518578063cbf8127c14610538578063d44d9d821461055857600080fd5b806395d89b41116100d157806395d89b411461048e578063a217fddf146104a3578063a22cb465146104b8578063b88d4fde146104d857600080fd5b8063715018a61461042857806373bf00eb1461043d5780638da5cb5b1461045057806391d148541461046e57600080fd5b80632f2ff15d1161017a57806342842e0e1161014957806342842e0e146103a85780634f6ccce7146103c85780636352211e146103e857806370a082311461040857600080fd5b80632f2ff15d146103285780632f745c591461034857806336568abe146103685780633fb2da5e1461038857600080fd5b806318160ddd116101b657806318160ddd146102995780631b2ef1ca146102b857806323b872dd146102d8578063248a9ca3146102f857600080fd5b806301ffc9a7146101e857806306fdde031461021d578063081812fc1461023f578063095ea7b314610277575b600080fd5b3480156101f457600080fd5b50610208610203366004612df1565b610635565b60405190151581526020015b60405180910390f35b34801561022957600080fd5b50610232610655565b6040516102149190613047565b34801561024b57600080fd5b5061025f61025a366004612db7565b6106e7565b6040516001600160a01b039091168152602001610214565b34801561028357600080fd5b50610297610292366004612cdf565b610774565b005b3480156102a557600080fd5b50600b545b604051908152602001610214565b3480156102c457600080fd5b506102976102d3366004612f09565b61088a565b3480156102e457600080fd5b506102976102f3366004612bb2565b610a77565b34801561030457600080fd5b506102aa610313366004612db7565b60009081526007602052604090206001015490565b34801561033457600080fd5b50610297610343366004612dcf565b610aa8565b34801561035457600080fd5b506102aa610363366004612cdf565b610ace565b34801561037457600080fd5b50610297610383366004612dcf565b610b64565b34801561039457600080fd5b506102976103a3366004612b66565b610be2565b3480156103b457600080fd5b506102976103c3366004612bb2565b610c2d565b3480156103d457600080fd5b506102aa6103e3366004612db7565b610c48565b3480156103f457600080fd5b5061025f610403366004612db7565b610ce9565b34801561041457600080fd5b506102aa610423366004612b66565b610d60565b34801561043457600080fd5b50610297610de7565b61029761044b366004612e92565b610e1d565b34801561045c57600080fd5b506008546001600160a01b031661025f565b34801561047a57600080fd5b50610208610489366004612dcf565b61129e565b34801561049a57600080fd5b506102326112c9565b3480156104af57600080fd5b506102aa600081565b3480156104c457600080fd5b506102976104d3366004612ca5565b6112d8565b3480156104e457600080fd5b506102976104f3366004612bed565b6112e3565b34801561050457600080fd5b50610297610513366004612d08565b61131b565b34801561052457600080fd5b50610232610533366004612db7565b6113bb565b34801561054457600080fd5b50610297610553366004612b66565b6113c6565b34801561056457600080fd5b5061025f610573366004612e29565b611414565b34801561058457600080fd5b506102aa7f9f2df0fed2c77648de5860a4cc508cd0818c85b8b8a1ab4ceeef8d981c8956a681565b3480156105b857600080fd5b506102976105c7366004612dcf565b611499565b3480156105d857600080fd5b506102086105e7366004612b80565b6001600160a01b03918216600090815260056020908152604080832093909416825291909152205460ff1690565b34801561062157600080fd5b50610297610630366004612b66565b6114bf565b60006106408261155a565b8061064f575061064f826115aa565b92915050565b6060600080546106649061327b565b80601f01602080910402602001604051908101604052809291908181526020018280546106909061327b565b80156106dd5780601f106106b2576101008083540402835291602001916106dd565b820191906000526020600020905b8154815290600101906020018083116106c057829003601f168201915b5050505050905090565b60006106f2826115cf565b6107585760405162461bcd60e51b815260206004820152602c60248201527f4552433732313a20617070726f76656420717565727920666f72206e6f6e657860448201526b34b9ba32b73a103a37b5b2b760a11b60648201526084015b60405180910390fd5b506000908152600460205260409020546001600160a01b031690565b600061077f82610ce9565b9050806001600160a01b0316836001600160a01b031614156107ed5760405162461bcd60e51b815260206004820152602160248201527f4552433732313a20617070726f76616c20746f2063757272656e74206f776e656044820152603960f91b606482015260840161074f565b336001600160a01b0382161480610809575061080981336105e7565b61087b5760405162461bcd60e51b815260206004820152603860248201527f4552433732313a20617070726f76652063616c6c6572206973206e6f74206f7760448201527f6e6572206e6f7220617070726f76656420666f7220616c6c0000000000000000606482015260840161074f565b61088583836115ec565b505050565b6008546001600160a01b031633146108b45760405162461bcd60e51b815260040161074f906130da565b6108be338361165a565b60408051600580825260c08201909252600091816020015b60608152602001906001900390816108d6579050509050604051806080016040528060578152602001613395605791398160008151811061092757634e487b7160e01b600052603260045260246000fd5b60200260200101819052506040518060800160405280605781526020016133ec605791398160018151811061096c57634e487b7160e01b600052603260045260246000fd5b602002602001018190525060405180608001604052806057815260200161333e60579139816002815181106109b157634e487b7160e01b600052603260045260246000fd5b602002602001018190525060405180608001604052806057815260200161344360579139816003815181106109f657634e487b7160e01b600052603260045260246000fd5b602002602001018190525060405180608001604052806057815260200161349a6057913981600481518110610a3b57634e487b7160e01b600052603260045260246000fd5b602002602001018190525061088583828481518110610a6a57634e487b7160e01b600052603260045260246000fd5b6020026020010151611799565b610a813382611824565b610a9d5760405162461bcd60e51b815260040161074f9061310f565b61088583838361190a565b600082815260076020526040902060010154610ac48133611ab5565b6108858383611b19565b6000610ad983610d60565b8210610b3b5760405162461bcd60e51b815260206004820152602b60248201527f455243373231456e756d657261626c653a206f776e657220696e646578206f7560448201526a74206f6620626f756e647360a81b606482015260840161074f565b506001600160a01b03919091166000908152600960209081526040808320938352929052205490565b6001600160a01b0381163314610bd45760405162461bcd60e51b815260206004820152602f60248201527f416363657373436f6e74726f6c3a2063616e206f6e6c792072656e6f756e636560448201526e103937b632b9903337b91039b2b63360891b606482015260840161074f565b610bde8282611b9f565b5050565b6008546001600160a01b03163314610c0c5760405162461bcd60e51b815260040161074f906130da565b6001600160a01b03166000908152601560205260409020805460ff19169055565b610885838383604051806020016040528060008152506112e3565b6000610c53600b5490565b8210610cb65760405162461bcd60e51b815260206004820152602c60248201527f455243373231456e756d657261626c653a20676c6f62616c20696e646578206f60448201526b7574206f6620626f756e647360a01b606482015260840161074f565b600b8281548110610cd757634e487b7160e01b600052603260045260246000fd5b90600052602060002001549050919050565b6000818152600260205260408120546001600160a01b03168061064f5760405162461bcd60e51b815260206004820152602960248201527f4552433732313a206f776e657220717565727920666f72206e6f6e657869737460448201526832b73a103a37b5b2b760b91b606482015260840161074f565b60006001600160a01b038216610dcb5760405162461bcd60e51b815260206004820152602a60248201527f4552433732313a2062616c616e636520717565727920666f7220746865207a65604482015269726f206164647265737360b01b606482015260840161074f565b506001600160a01b031660009081526003602052604090205490565b6008546001600160a01b03163314610e115760405162461bcd60e51b815260040161074f906130da565b610e1b6000611c06565b565b828514610e6c5760405162461bcd60e51b815260206004820152601a60248201527f496e76616c6964206e756d626572206f66206d65737361676573000000000000604482015260640161074f565b84600e54610e7a9190613202565b3414610ebb5760405162461bcd60e51b815260206004820152601060248201526f6e6f7420656e6f756768206d6f6e657960801b604482015260640161074f565b61271085610ec8600b5490565b610ed291906131d6565b1115610f115760405162461bcd60e51b815260206004820152600e60248201526d06f766572207468652031303030360941b604482015260640161074f565b60005b858110156110bc576000610f85868684818110610f4157634e487b7160e01b600052603260045260246000fd5b9050602002810190610f539190613160565b868686818110610f7357634e487b7160e01b600052603260045260246000fd5b90506020028101906105739190613160565b9050610fb17f9f2df0fed2c77648de5860a4cc508cd0818c85b8b8a1ab4ceeef8d981c8956a68261129e565b6110075760405162461bcd60e51b815260206004820152602160248201527f5369676e617475726520696e76616c6964206f7220756e617574686f72697a656044820152601960fa1b606482015260840161074f565b611015600d80546001019055565b6000611020600d5490565b905061102c828261165a565b61109c8188888681811061105057634e487b7160e01b600052603260045260246000fd5b90506020028101906110629190613160565b8080601f01602080910402602001604051908101604052809392919081815260200183838082843760009201919091525061179992505050565b6110a782338361190a565b505080806110b4906132b6565b915050610f14565b50336000908152601560205260408120548190819060ff16156110ed576012549250601354915060145490506110fd565b600f549250601054915060115490505b6016546000906001600160a01b03166127106111198634613202565b61112391906131ee565b604051600081818185875af1925050503d806000811461115f576040519150601f19603f3d011682016040523d82523d6000602084013e611164565b606091505b50509050806111855760405162461bcd60e51b815260040161074f906130ac565b6017546001600160a01b031661271061119e8534613202565b6111a891906131ee565b604051600081818185875af1925050503d80600081146111e4576040519150601f19603f3d011682016040523d82523d6000602084013e6111e9565b606091505b5050809150508061120c5760405162461bcd60e51b815260040161074f906130ac565b6018546001600160a01b03166127106112258434613202565b61122f91906131ee565b604051600081818185875af1925050503d806000811461126b576040519150601f19603f3d011682016040523d82523d6000602084013e611270565b606091505b505080915050806112935760405162461bcd60e51b815260040161074f906130ac565b505050505050505050565b60009182526007602090815260408084206001600160a01b0393909316845291905290205460ff1690565b6060600180546106649061327b565b610bde338383611c58565b6112ed3383611824565b6113095760405162461bcd60e51b815260040161074f9061310f565b61131584848484611d27565b50505050565b6008546001600160a01b031633146113455760405162461bcd60e51b815260040161074f906130da565b60005b8151811015610bde5760016015600084848151811061137757634e487b7160e01b600052603260045260246000fd5b6020908102919091018101516001600160a01b03168252810191909152604001600020805460ff1916911515919091179055806113b3816132b6565b915050611348565b606061064f82611d5a565b6008546001600160a01b031633146113f05760405162461bcd60e51b815260040161074f906130da565b6001600160a01b03166000908152601560205260409020805460ff19166001179055565b600080858560405160200161142a929190612f56565b60405160208183030381529060405280519060200120905061148d84848080601f0160208091040260200160405190810160405280939291908181526020018383808284376000920191909152506114879250859150611ec99050565b90611f1c565b9150505b949350505050565b6000828152600760205260409020600101546114b58133611ab5565b6108858383611b9f565b6008546001600160a01b031633146114e95760405162461bcd60e51b815260040161074f906130da565b6001600160a01b03811661154e5760405162461bcd60e51b815260206004820152602660248201527f4f776e61626c653a206e6577206f776e657220697320746865207a65726f206160448201526564647265737360d01b606482015260840161074f565b61155781611c06565b50565b60006001600160e01b031982166380ac58cd60e01b148061158b57506001600160e01b03198216635b5e139f60e01b145b8061064f57506301ffc9a760e01b6001600160e01b031983161461064f565b60006001600160e01b03198216637965db0b60e01b148061064f575061064f8261155a565b6000908152600260205260409020546001600160a01b0316151590565b600081815260046020526040902080546001600160a01b0319166001600160a01b038416908117909155819061162182610ce9565b6001600160a01b03167f8c5be1e5ebec7d5bd14f71427d1e84f3dd0314c0f7b2291e5b200ac8c7c3b92560405160405180910390a45050565b6001600160a01b0382166116b05760405162461bcd60e51b815260206004820181905260248201527f4552433732313a206d696e7420746f20746865207a65726f2061646472657373604482015260640161074f565b6116b9816115cf565b156117065760405162461bcd60e51b815260206004820152601c60248201527f4552433732313a20746f6b656e20616c7265616479206d696e74656400000000604482015260640161074f565b61171260008383611f40565b6001600160a01b038216600090815260036020526040812080546001929061173b9084906131d6565b909155505060008181526002602052604080822080546001600160a01b0319166001600160a01b03861690811790915590518392907fddf252ad1be2c89b69c2b068fc378daa952ba7f163c4a11628f55a4df523b3ef908290a45050565b6117a2826115cf565b6118055760405162461bcd60e51b815260206004820152602e60248201527f45524337323155524953746f726167653a2055524920736574206f66206e6f6e60448201526d32bc34b9ba32b73a103a37b5b2b760911b606482015260840161074f565b6000828152600660209081526040909120825161088592840190612a2e565b600061182f826115cf565b6118905760405162461bcd60e51b815260206004820152602c60248201527f4552433732313a206f70657261746f7220717565727920666f72206e6f6e657860448201526b34b9ba32b73a103a37b5b2b760a11b606482015260840161074f565b600061189b83610ce9565b9050806001600160a01b0316846001600160a01b031614806118d65750836001600160a01b03166118cb846106e7565b6001600160a01b0316145b8061149157506001600160a01b0380821660009081526005602090815260408083209388168352929052205460ff16611491565b826001600160a01b031661191d82610ce9565b6001600160a01b0316146119855760405162461bcd60e51b815260206004820152602960248201527f4552433732313a207472616e73666572206f6620746f6b656e2074686174206960448201526839903737ba1037bbb760b91b606482015260840161074f565b6001600160a01b0382166119e75760405162461bcd60e51b8152602060048201526024808201527f4552433732313a207472616e7366657220746f20746865207a65726f206164646044820152637265737360e01b606482015260840161074f565b6119f2838383611f40565b6119fd6000826115ec565b6001600160a01b0383166000908152600360205260408120805460019290611a26908490613221565b90915550506001600160a01b0382166000908152600360205260408120805460019290611a549084906131d6565b909155505060008181526002602052604080822080546001600160a01b0319166001600160a01b0386811691821790925591518493918716917fddf252ad1be2c89b69c2b068fc378daa952ba7f163c4a11628f55a4df523b3ef91a4505050565b611abf828261129e565b610bde57611ad7816001600160a01b03166014611f4b565b611ae2836020611f4b565b604051602001611af3929190612f95565b60408051601f198184030181529082905262461bcd60e51b825261074f91600401613047565b611b23828261129e565b610bde5760008281526007602090815260408083206001600160a01b03851684529091529020805460ff19166001179055611b5b3390565b6001600160a01b0316816001600160a01b0316837f2f8788117e7eff1d82e926ec794901d17c78024a50270940304540a733656f0d60405160405180910390a45050565b611ba9828261129e565b15610bde5760008281526007602090815260408083206001600160a01b0385168085529252808320805460ff1916905551339285917ff6391f5c32d9c69d2a47ea670b442974b53935d1edc7fd64eb21e047a839171b9190a45050565b600880546001600160a01b038381166001600160a01b0319831681179093556040519116919082907f8be0079c531659141344cd1fd0a4f28419497f9722a3daafe3b4186f6b6457e090600090a35050565b816001600160a01b0316836001600160a01b03161415611cba5760405162461bcd60e51b815260206004820152601960248201527f4552433732313a20617070726f766520746f2063616c6c657200000000000000604482015260640161074f565b6001600160a01b03838116600081815260056020908152604080832094871680845294825291829020805460ff191686151590811790915591519182527f17307eab39ab6107e8899845ad3d59bd9653f200f220920489ca2b5937696c31910160405180910390a3505050565b611d3284848461190a565b611d3e84848484612134565b6113155760405162461bcd60e51b815260040161074f9061305a565b6060611d65826115cf565b611dcb5760405162461bcd60e51b815260206004820152603160248201527f45524337323155524953746f726167653a2055524920717565727920666f72206044820152703737b732bc34b9ba32b73a103a37b5b2b760791b606482015260840161074f565b60008281526006602052604081208054611de49061327b565b80601f0160208091040260200160405190810160405280929190818152602001828054611e109061327b565b8015611e5d5780601f10611e3257610100808354040283529160200191611e5d565b820191906000526020600020905b815481529060010190602001808311611e4057829003601f168201915b505050505090506000611e7b60408051602081019091526000815290565b9050805160001415611e8e575092915050565b815115611ec0578082604051602001611ea8929190612f66565b60405160208183030381529060405292505050919050565b6114918461223e565b6040517f19457468657265756d205369676e6564204d6573736167653a0a3332000000006020820152603c8101829052600090605c01604051602081830303815290604052805190602001209050919050565b6000806000611f2b8585612315565b91509150611f3881612385565b509392505050565b610885838383612586565b60606000611f5a836002613202565b611f659060026131d6565b67ffffffffffffffff811115611f8b57634e487b7160e01b600052604160045260246000fd5b6040519080825280601f01601f191660200182016040528015611fb5576020820181803683370190505b509050600360fc1b81600081518110611fde57634e487b7160e01b600052603260045260246000fd5b60200101906001600160f81b031916908160001a905350600f60fb1b8160018151811061201b57634e487b7160e01b600052603260045260246000fd5b60200101906001600160f81b031916908160001a905350600061203f846002613202565b61204a9060016131d6565b90505b60018111156120de576f181899199a1a9b1b9c1cb0b131b232b360811b85600f166010811061208c57634e487b7160e01b600052603260045260246000fd5b1a60f81b8282815181106120b057634e487b7160e01b600052603260045260246000fd5b60200101906001600160f81b031916908160001a90535060049490941c936120d781613264565b905061204d565b50831561212d5760405162461bcd60e51b815260206004820181905260248201527f537472696e67733a20686578206c656e67746820696e73756666696369656e74604482015260640161074f565b9392505050565b60006001600160a01b0384163b1561223657604051630a85bd0160e11b81526001600160a01b0385169063150b7a029061217890339089908890889060040161300a565b602060405180830381600087803b15801561219257600080fd5b505af19250505080156121c2575060408051601f3d908101601f191682019092526121bf91810190612e0d565b60015b61221c573d8080156121f0576040519150601f19603f3d011682016040523d82523d6000602084013e6121f5565b606091505b5080516122145760405162461bcd60e51b815260040161074f9061305a565b805181602001fd5b6001600160e01b031916630a85bd0160e11b149050611491565b506001611491565b6060612249826115cf565b6122ad5760405162461bcd60e51b815260206004820152602f60248201527f4552433732314d657461646174613a2055524920717565727920666f72206e6f60448201526e3732bc34b9ba32b73a103a37b5b2b760891b606482015260840161074f565b60006122c460408051602081019091526000815290565b905060008151116122e4576040518060200160405280600081525061212d565b806122ee8461263e565b6040516020016122ff929190612f66565b6040516020818303038152906040529392505050565b60008082516041141561234c5760208301516040840151606085015160001a61234087828585612758565b9450945050505061237e565b825160401415612376576020830151604084015161236b868383612845565b93509350505061237e565b506000905060025b9250929050565b60008160048111156123a757634e487b7160e01b600052602160045260246000fd5b14156123b05750565b60018160048111156123d257634e487b7160e01b600052602160045260246000fd5b14156124205760405162461bcd60e51b815260206004820152601860248201527f45434453413a20696e76616c6964207369676e61747572650000000000000000604482015260640161074f565b600281600481111561244257634e487b7160e01b600052602160045260246000fd5b14156124905760405162461bcd60e51b815260206004820152601f60248201527f45434453413a20696e76616c6964207369676e6174757265206c656e67746800604482015260640161074f565b60038160048111156124b257634e487b7160e01b600052602160045260246000fd5b141561250b5760405162461bcd60e51b815260206004820152602260248201527f45434453413a20696e76616c6964207369676e6174757265202773272076616c604482015261756560f01b606482015260840161074f565b600481600481111561252d57634e487b7160e01b600052602160045260246000fd5b14156115575760405162461bcd60e51b815260206004820152602260248201527f45434453413a20696e76616c6964207369676e6174757265202776272076616c604482015261756560f01b606482015260840161074f565b6001600160a01b0383166125e1576125dc81600b80546000838152600c60205260408120829055600182018355919091527f0175b7a638427703f0dbe7bb9bbf987a2551717b34e79f33b5b1008d1fa01db90155565b612604565b816001600160a01b0316836001600160a01b031614612604576126048382612874565b6001600160a01b03821661261b5761088581612911565b826001600160a01b0316826001600160a01b0316146108855761088582826129ea565b6060816126625750506040805180820190915260018152600360fc1b602082015290565b8160005b811561268c5780612676816132b6565b91506126859050600a836131ee565b9150612666565b60008167ffffffffffffffff8111156126b557634e487b7160e01b600052604160045260246000fd5b6040519080825280601f01601f1916602001820160405280156126df576020820181803683370190505b5090505b8415611491576126f4600183613221565b9150612701600a866132d1565b61270c9060306131d6565b60f81b81838151811061272f57634e487b7160e01b600052603260045260246000fd5b60200101906001600160f81b031916908160001a905350612751600a866131ee565b94506126e3565b6000807f7fffffffffffffffffffffffffffffff5d576e7357a4501ddfe92f46681b20a083111561278f575060009050600361283c565b8460ff16601b141580156127a757508460ff16601c14155b156127b8575060009050600461283c565b6040805160008082526020820180845289905260ff881692820192909252606081018690526080810185905260019060a0016020604051602081039080840390855afa15801561280c573d6000803e3d6000fd5b5050604051601f1901519150506001600160a01b0381166128355760006001925092505061283c565b9150600090505b94509492505050565b6000806001600160ff1b03831660ff84901c601b0161286687828885612758565b935093505050935093915050565b6000600161288184610d60565b61288b9190613221565b6000838152600a60205260409020549091508082146128de576001600160a01b03841660009081526009602090815260408083208584528252808320548484528184208190558352600a90915290208190555b506000918252600a602090815260408084208490556001600160a01b039094168352600981528383209183525290812055565b600b5460009061292390600190613221565b6000838152600c6020526040812054600b805493945090928490811061295957634e487b7160e01b600052603260045260246000fd5b9060005260206000200154905080600b838154811061298857634e487b7160e01b600052603260045260246000fd5b6000918252602080832090910192909255828152600c9091526040808220849055858252812055600b8054806129ce57634e487b7160e01b600052603160045260246000fd5b6001900381819060005260206000200160009055905550505050565b60006129f583610d60565b6001600160a01b0390931660009081526009602090815260408083208684528252808320859055938252600a9052919091209190915550565b828054612a3a9061327b565b90600052602060002090601f016020900481019282612a5c5760008555612aa2565b82601f10612a7557805160ff1916838001178555612aa2565b82800160010185558215612aa2579182015b82811115612aa2578251825591602001919060010190612a87565b50612aae929150612ab2565b5090565b5b80821115612aae5760008155600101612ab3565b80356001600160a01b0381168114612ade57600080fd5b919050565b60008083601f840112612af4578182fd5b50813567ffffffffffffffff811115612b0b578182fd5b6020830191508360208260051b850101111561237e57600080fd5b60008083601f840112612b37578182fd5b50813567ffffffffffffffff811115612b4e578182fd5b60208301915083602082850101111561237e57600080fd5b600060208284031215612b77578081fd5b61212d82612ac7565b60008060408385031215612b92578081fd5b612b9b83612ac7565b9150612ba960208401612ac7565b90509250929050565b600080600060608486031215612bc6578081fd5b612bcf84612ac7565b9250612bdd60208501612ac7565b9150604084013590509250925092565b60008060008060808587031215612c02578081fd5b612c0b85612ac7565b93506020612c1a818701612ac7565b935060408601359250606086013567ffffffffffffffff80821115612c3d578384fd5b818801915088601f830112612c50578384fd5b813581811115612c6257612c62613311565b612c74601f8201601f191685016131a5565b91508082528984828501011115612c89578485fd5b8084840185840137810190920192909252939692955090935050565b60008060408385031215612cb7578182fd5b612cc083612ac7565b915060208301358015158114612cd4578182fd5b809150509250929050565b60008060408385031215612cf1578182fd5b612cfa83612ac7565b946020939093013593505050565b60006020808385031215612d1a578182fd5b823567ffffffffffffffff80821115612d31578384fd5b818501915085601f830112612d44578384fd5b813581811115612d5657612d56613311565b8060051b9150612d678483016131a5565b8181528481019084860184860187018a1015612d81578788fd5b8795505b83861015612daa57612d9681612ac7565b835260019590950194918601918601612d85565b5098975050505050505050565b600060208284031215612dc8578081fd5b5035919050565b60008060408385031215612de1578182fd5b82359150612ba960208401612ac7565b600060208284031215612e02578081fd5b813561212d81613327565b600060208284031215612e1e578081fd5b815161212d81613327565b60008060008060408587031215612e3e578182fd5b843567ffffffffffffffff80821115612e55578384fd5b612e6188838901612b26565b90965094506020870135915080821115612e79578384fd5b50612e8687828801612b26565b95989497509550505050565b600080600080600060608688031215612ea9578283fd5b85359450602086013567ffffffffffffffff80821115612ec7578485fd5b612ed389838a01612ae3565b90965094506040880135915080821115612eeb578283fd5b50612ef888828901612ae3565b969995985093965092949392505050565b60008060408385031215612f1b578182fd5b50508035926020909101359150565b60008151808452612f42816020860160208601613238565b601f01601f19169290920160200192915050565b8183823760009101908152919050565b60008351612f78818460208801613238565b835190830190612f8c818360208801613238565b01949350505050565b7f416363657373436f6e74726f6c3a206163636f756e7420000000000000000000815260008351612fcd816017850160208801613238565b7001034b99036b4b9b9b4b733903937b6329607d1b6017918401918201528351612ffe816028840160208801613238565b01602801949350505050565b6001600160a01b038581168252841660208201526040810183905260806060820181905260009061303d90830184612f2a565b9695505050505050565b60208152600061212d6020830184612f2a565b60208082526032908201527f4552433732313a207472616e7366657220746f206e6f6e20455243373231526560408201527131b2b4bb32b91034b6b83632b6b2b73a32b960711b606082015260800190565b6020808252601490820152732330b4b632b2103a379039b2b7321022ba3432b960611b604082015260600190565b6020808252818101527f4f776e61626c653a2063616c6c6572206973206e6f7420746865206f776e6572604082015260600190565b60208082526031908201527f4552433732313a207472616e736665722063616c6c6572206973206e6f74206f6040820152701ddb995c881b9bdc88185c1c1c9bdd9959607a1b606082015260800190565b6000808335601e19843603018112613176578283fd5b83018035915067ffffffffffffffff821115613190578283fd5b60200191503681900382131561237e57600080fd5b604051601f8201601f1916810167ffffffffffffffff811182821017156131ce576131ce613311565b604052919050565b600082198211156131e9576131e96132e5565b500190565b6000826131fd576131fd6132fb565b500490565b600081600019048311821515161561321c5761321c6132e5565b500290565b600082821015613233576132336132e5565b500390565b60005b8381101561325357818101518382015260200161323b565b838111156113155750506000910152565b600081613273576132736132e5565b506000190190565b600181811c9082168061328f57607f821691505b602082108114156132b057634e487b7160e01b600052602260045260246000fd5b50919050565b60006000198214156132ca576132ca6132e5565b5060010190565b6000826132e0576132e06132fb565b500690565b634e487b7160e01b600052601160045260246000fd5b634e487b7160e01b600052601260045260246000fd5b634e487b7160e01b600052604160045260246000fd5b6001600160e01b03198116811461155757600080fdfe68747470733a2f2f676174657761792e70696e6174612e636c6f75642f697066732f516d6577523751705058554439524b707938354b5031687759486879596e336f4d755a6e356932506875535335412f332e6a736f6e68747470733a2f2f676174657761792e70696e6174612e636c6f75642f697066732f516d6577523751705058554439524b707938354b5031687759486879596e336f4d755a6e356932506875535335412f312e6a736f6e68747470733a2f2f676174657761792e70696e6174612e636c6f75642f697066732f516d6577523751705058554439524b707938354b5031687759486879596e336f4d755a6e356932506875535335412f322e6a736f6e68747470733a2f2f676174657761792e70696e6174612e636c6f75642f697066732f516d6577523751705058554439524b707938354b5031687759486879596e336f4d755a6e356932506875535335412f342e6a736f6e68747470733a2f2f676174657761792e70696e6174612e636c6f75642f697066732f516d6577523751705058554439524b707938354b5031687759486879596e336f4d755a6e356932506875535335412f352e6a736f6ea26469706673582212203a50c5bcec5482261b304f056a630ae556967ea3dce8dc788c1258b41766465864736f6c63430008040033",
  "linkReferences": {},
  "deployedLinkReferences": {}
}